:020000040800F2
:10000000980C00209D010008511E0008151B0008D7
:1000100000000000000000000000000000000000E0
:10002000000000000000000000000000B3230008F2
:100030000000000000000000B1230008B523000804
:10004000AF01000800000000AF010008AF01000888
:10005000AF010008AF010008AF010008AF010008C0
:1000600000000000AF010008AF010008AF01000868
:10007000AF01000829240008AF01000800000000BB
:10008000AF0100080000000000000000AF01000800
:1000900000000000AF010008AF010008AF01000838
:1000A000AF010008AF010008AF010008AF01000870
:1000B0005D2F0008000000000000000000000000AC
:1000C00000F002F800F03EF80CA030C80838241800
:1000D0002D18A246671EAB4654465D46AC4201D180
:1000E00000F030F87E460F3E0FCCB6460126334274
:1000F00000D0FB1AA246AB4633431847646B00009E
:10010000846B0000103A02D378C878C1FAD852073D
:1001100001D330C830C101D504680C6070470000BD
:100120000023002400250026103A01D378C1FBD813
:10013000520700D330C100D50B6070471FB51FBDFB
:1001400010B510BD00F04FFA1146FFF7F7FF04F0AD
:10015000F7FB00F067FA03B4FFF7F2FF03BC00F00F
:100160006DFA000070B505460C46164602E00FCC4D
:100170000FC5103E102EFAD2082E02D303CC03C5B1
:10018000083E042E07D301CC01C5361F03E02178B9
:100190002970641C6D1C761EF9D270BD074880471B
:1001A00007480047FEE7FEE7FEE7FEE7FEE7FEE75B
:1001B00004480549054A064B7047000025240008FD
:1001C000C100000898060020980C00209808002024
:1001D00098080020F8B5042A2CD3830712D00B7896
:1001E000491C0370401C521E83070BD00B78491C1E
:1001F0000370401C521E830704D00B78491C037007
:10020000401C521E8B079B0F05D0C91ADF0020230C
:10021000DE1B08C90AE0FFF7A5FFF8BD1D4608C9A7
:10022000FD401C46B4402C4310C0121F042AF5D2D6
:10023000F308C91A521EF0D40B78491C0370401CF5
:10024000521EEAD40B78491C0370401C012AE4D4E6
:1002500009780170F8BD01E004C0091F0429FBD230
:100260008B0701D50280801CC90700D0027070473F
:1002700000290BD0C30702D00270401C491E02297E
:1002800004D3830702D50280801C891EE3E7002285
:10029000EEE70022DFE7002203098B422CD3030A9A
:1002A0008B4211D300239C464EE003460B433CD4C3
:1002B000002243088B4231D303098B421CD3030A2B
:1002C0008B4201D394463FE0C3098B4201D3CB015B
:1002D000C01A524183098B4201D38B01C01A52418B
:1002E00043098B4201D34B01C01A524103098B428F
:1002F00001D30B01C01A5241C3088B4201D3CB007A
:10030000C01A524183088B4201D38B00C01A52415C
:1003100043088B4201D34B00C01A5241411A00D20C
:1003200001465241104670475DE0CA0F00D0494275
:10033000031000D34042534000229C4603098B42E5
:100340002DD3030A8B4212D3FC22890112BA030A6D
:100350008B420CD3890192118B4208D389019211EF
:100360008B4204D389013AD0921100E08909C30974
:100370008B4201D3CB01C01A524183098B4201D376
:100380008B01C01A524143098B4201D34B01C01A61
:10039000524103098B4201D30B01C01A5241C308D9
:1003A0008B4201D3CB00C01A524183088B4201D348
:1003B0008B00C01A5241D9D243088B4201D34B0063
:1003C000C01A5241411A00D20146634652415B10A5
:1003D000104601D34042002B00D549427047634686
:1003E0005B1000D3404201B50020C046C04602BDAC
:1003F0007047704770470000F0B5FF252D04C6090F
:10040000C209FF2704462E400137CB093E4348402E
:100410002A402B400746002A6BD0002B69D0AA4205
:1004200067D0AB4265D0002800DA32460125ED05E1
:1004300029432C4309022002090AD21A4B0C7F24BB
:10044000E31A434C000A7C44E35C7D242404121923
:1004500014145B00A218884201D3521C00E0400033
:1004600049420C465C4324115C43DB016415E318EC
:10047000040A5C43C502200D0C4644436419250A56
:100480005D432303EC0C0D46654300030019EB1894
:100490004C42A34201D35B18401CD4052018002B0A
:1004A00007D05B00C91804D3401C002901D14008C3
:1004B00040003F2189048A4209D3002A08DC110642
:1004C000090F04D0032149074018C00FC007F0BD31
:1004D00001224100120689187F2252069142F6D26B
:1004E00005214907C84201D59010F0BDFF20C00585
:1004F000F0BD002F00DA32461648AA4207D2AB42BE
:1005000005D21902090E17D0F80FC007F0BDFF255C
:1005100063002D06AB42F9D84900A942F6D8AB4298
:1005200001D1A942F2D0A94201D1002101E061002C
:100530004908D0050843F0BD1102090EFBD0FF2089
:100540000243D005F0BD0A460146104654E70000BC
:10055000D66700000000C07F0102C21504D001234D
:10056000DB071943002A0ADB9E239A1A02D40846A5
:10057000D0407047FF2241001206914201D900206D
:100580007047C017C04370471F22030C02D10F22CF
:1005900000041CD0030E01D10002083A030F01D160
:1005A0000001121F830F01D18000921E002801DB81
:1005B0004000521ED20551180212511819229040C3
:1005C00004D3491C002801D1490849000846704756
:1005D000C10FC90700D04042012292071143D3E75F
:1005E00001218907D0E7754600F024F8AE460500E2
:1005F00069465346C008C000854618B020B5FFF7CD
:10060000D7FD60BC00274908B6460026C0C5C0C556
:10061000C0C5C0C5C0C5C0C5C0C5C0C5403D4900F6
:100620008D46704710B50446C046C0462046FFF7C9
:1006300092FD10BD00487047340600200149182083
:10064000ABBEFEE726000200704710B5044603F07B
:1006500025FF462003F0DCFE03F056FF00280AD0F9
:10066000204603F0D5FE03F04FFF002805D003F02D
:1006700035FF002010BD012010BD022010BD10B5B7
:100680000120FFF7E2FF0720FFF7DFFF1020FFF751
:10069000DCFF782000F054F910BD10B503F0FEFE29
:1006A000472003F0B5FE03F02FFF00280ED003F023
:1006B0005FFE044603F08AFE03F05AFE2102401852
:1006C00084B203F0C9FE03F009FF204610BD00000C
:1006D00070B50122164E150300242946304600F05D
:1006E000F4F904E0641CE4B2012003F066FF29463B
:1006F000304600F0E5F9002802D0642CF2D310E077
:10070000642C0ED2002404E0641CE4B2012003F047
:1007100054FF2946304600F0D3F9002803D0642C5A
:1007200004D3012070BD642CEED3FAE7002070BD25
:100730000004005010B500F003F8FFF7C9FF10BD2A
:1007400070B50124094D240300222146284600F0FB
:10075000BCF9142000F0F4F801222146284600F0EC
:10076000B4F91E2003F029FF70BD00000004005002
:1007700070B50122174E150300242946304600F0BB
:10078000A4F904E0641CE4B2012003F016FF29463A
:10079000304600F095F9002801D0642CF2D30024F3
:1007A00004E0641CE4B2012003F007FF2946304650
:1007B00000F086F9002801D1642CF2D3282003F040
:1007C000FCFE2946304600F07BF9002800D00120CD
:1007D00070BD00000004005070B501220025110317
:1007E000074800F072F900246806050EFFF7C0FF05
:1007F0002843641CE4B20546082CF5D370BD000004
:1008000000040050FEB50D460646FFF799FFFFF7BE
:100810005FFF002801D00120FEBD00246F46FFF7D6
:10082000DBFF3855641CE4B2052CF8D36A46117816
:1008300050780B189078D27882189B186A461279F3
:10084000934201D1297030700020FEBD72B6FEE7E0
:10085000F0B5002808D0014620314A79022A05D097
:100860000422C263002008710120F0BD02681368F1
:100870000E24A3431360426C1468FF2301339C438E
:100880001460026814686408640014600C4A5568B7
:10089000066C1C24264001242746B7403D43556082
:1008A000826CC56C5560026D002A05D015689D43A9
:1008B0001560826D406D42604C7100200871F0BD82
:1008C00000000240F8B50024024620325179022986
:1008D00003D00421C16301242DE001680B680E25BB
:1008E000AB430B6001680B685B085B000B60416CFD
:1008F0000B68FF250135AB430B6010494D68066C52
:100900001C231E4001231F46B7403D434D60816CB0
:10091000C56C4D60016D002906D00E681D02AE4306
:100920000E60416D856D4D60537100211171816BB9
:10093000002900D088472046F8BD00000000024092
:1009400070B5044600F0C8F80546601C02D00448A3
:100950000078241800F0C0F8401BA042FAD370BD04
:1009600000000020F0B5002303249AE02A46012568
:100970009D402A407ED00E79B607B60F012E01D0D9
:10098000022E16D186682746B4465E00B646B740AA
:100990006646BE43B446CF687646B74066463743A0
:1009A00087604668AE430D79ED06ED0F9D403543F7
:1009B00045600D79ED43AD0708D0C5685F00264658
:1009C000BE40B5438E68BE402E43C6600D79AD076C
:1009D000AD0F022D0ED1DD08AD002D18AC462D6AED
:1009E0005E07F60E0F27B740BD430F69B7402F4390
:1009F00065462F6205685F002646BE40B5430E7906
:100A0000B607B60FBE402E4306604D68AD03AD0F6E
:100A100046D09E08264DB6007519AC462D6E9E0731
:100A2000F60E0F27B740BD4305273F07B84201D157
:100A300000270FE01F4FB84201D101270AE01E4FE7
:100A4000B84201D1022705E01C4FB84201D103276B
:100A500000E00527B7402F43154D664637662D68E1
:100A60004E689543F60200D51543114F3D607D68F1
:100A7000954300E014E04E68B60200D515437D6052
:100A80000B4D80356E684F689643BF0300D5164303
:100A90006E602E684F689643FF0300D516432E60A4
:100AA0005B1C0A681546DA4000D05FE7F0BD000025
:100AB000001802400004005000080050000C0050D4
:100AC0000069084000D001207047002A01D08161F0
:100AD00070478162704700000148806870470000DD
:100AE0000000002002488168027889188160704700
:100AF0000000002010B50848002401688215114349
:100B00000160032000F00AF8002801D0012401E070
:100B100000F028F8204610BD0020024070B50F4EAE
:100B2000002431780546002915D07D20C000FFF74C
:100B3000B2FB01460A480068FFF7ADFB00F050FB2E
:100B4000002808D1042D06D200222946401E00F0BC
:100B50002BF8756000E00124204670BD00000020E5
:100B60000C00002008B5094801680122114301600A
:100B700000681040009005484038C26B01040A43E9
:100B8000C263C06B0840009008BD000040100240E6
:100B9000002805DBC106C90E012088400149086014
:100BA0007047000000E100E010B502F0EDF910BD63
:100BB00010B50F4C2168032252029143014321607A
:100BC000C11FFF39FA390ED10A480621006848438F
:100BD0000949FFF760FB401C02E0002805D0401ED9
:100BE00061694905F9D4002010BD032010BD000043
:100BF000007000400C00002040420F00F8B50F4686
:100C0000060043D04D4D28684007400FB84213D22C
:100C10002868C008C00038432860FFF75DFF04461D
:100C200005E0FFF759FF011B4548814261D828685C
:100C30004007400FB842F4D13068424C81070DD5CF
:100C4000400704D5A068072109030843A060A068F5
:100C50000F2109028843B1680843A0603078C007BB
:100C600032D0706801280AD002280BD000280FD09B
:100C70003449403103280ED0C969890704E021684E
:100C8000890301E021688901002906DB0120F8BD04
:100C900021684905F8E7096AEFE7A168C908C900B2
:100CA0000143A160FFF718FF009006E0FFF714FF73
:100CB0000099411A224881421BD8A0683821084077
:100CC0007168C9008842F1D128684007400FB842D6
:100CD00017D91A480168C908C90039430160FFF7EC
:100CE000FBFE054607E0FFF7F7FE411B1448814273
:100CF00001D90320F8BD114800684007400FB842F1
:100D0000F1D13078400706D5A06807210903884350
:100D1000F1680843A06000F031F8A1683C2289091D
:100D20001140094A515CC906C90EC840074908600C
:100D300007480068FFF7F2FEF8BD000000200240FF
:100D40008813000000100240704A00080C000020C8
:100D5000040000200648074900688968064A4904DB
:100D6000490F8900515CC906C90EC8407047000090
:100D70000C00002000100240B04A000810B5204CC2
:100D8000A068204A8006400F16D0A0688006410F58
:100D9000501001290FD0A1688906490F022912D0ED
:100DA000A0688006400F042823D0A0688006400F6A
:100DB000032821D0002010BD206801218004400FAD
:100DC0008140104612E0E1688B07E1689B0F4906FD
:100DD000490F491C032B00D01046FFF75CFAE1686D
:100DE0004904490E4843E168490F491CFFF753FA8B
:100DF00010BD0120C00310BD7D20000210BD000009
:100E0000001002400024F400F8B504007ED02078E1
:100E10003827C007E94D002846D0A868E96838405F
:100E20008907890F102802D008280BD001E0032978
:100E300008D001206268000482420AD12968014377
:100E4000296015E0286880032ED560680028DDD071
:100E50002AE0052301211B0489049A422A6802D151
:100E60000A432A60EAE782432A60286888432860A8
:100E7000606800280CD0FFF72FFE064604E0FFF75D
:100E80002BFE801B642873D828688003F7D50BE0FD
:100E9000FFF722FE064604E0FFF71EFE801B6428D3
:100EA000F1D828688003F7D42078800769D5A8682E
:100EB000E96838408A070721920FC902102802D03A
:100EC000002813D001E0022A10D0E068002846D0A4
:100ED000286888432169084328602868FF21013178
:100EE00008432860FFF7F8FD06462CE02A68520503
:100EF00002D5E268002A89D06A687F231B029A43E0
:100F000063691B021A436A60002800E08DE00ED17D
:100F100028688843216908432860286801218004E3
:100F2000400F8140A648FFF7B6F9A6490860A648D9
:100F30000068FFF7F3FD002877D122E0FFF7CCFD32
:100F4000801B02289FD828684005F7D568687F2154
:100F500009028843616909020843686011E0296851
:100F6000FF20013081432960FFF7B6FD064605E00A
:100F700098E0FFF7B1FD801B022884D8286840055F
:100F8000F7D42078914E00072ED5A8688006400F30
:100F900003280AD0A0690028306A16D0012108432E
:100FA0003062FFF799FD07460BE0306A80071BD5DA
:100FB000A06900289FD017E0FFF78EFDC01B022814
:100FC00070D8306A8007F7D50EE0400840003062E4
:100FD000FFF782FD074604E0FFF77EFDC01B0228F5
:100FE00060D8306A8007F7D4207840076CD5A868AD
:100FF00000278006400F042818D0E86BC00008D4F2
:10100000E96B012000070143E963E96B0140012717
:1010100000916F480168C90519D401688215114310
:101020000160FFF759FD00900DE083E0F069800753
:101030004AD5A06800287DD046E0FFF74DFD009915
:10104000401A02282ED862480068C005F5D5A1686C
:10105000012910D004200529F16911D0490849005F
:10106000F161F1698143F161A068002816D0FFF7B2
:1010700033FD00900EE0F06901210843F061F3E7D1
:101080000143F161F7E7FFF727FD0099411A514845
:10109000814265D8F0698007F5D50EE0FFF71CFDA9
:1010A000009007E05CE0FFF717FD0099411A4948FE
:1010B000814255D8F0698007F5D4002F04D0E96B40
:1010C000012000078143E963E069002873D0A96823
:1010D0008906490F02294DD00126360602282868C4
:1010E00005D0B0432860FFF7F7FC04463AE0B04370
:1010F0002860FFF7F1FC074604E0FFF7EDFCC01B9A
:1011000002282DD828688001F7D4616A206AA26A73
:101110000843E16A120211430843216B0843E9685E
:101120002D4A11400843E860286830432860E86889
:10113000012100E03DE009070843E860FFF7CCFC2F
:10114000044604E0FFF7C8FC001B022808D8286802
:101150008001F7D52FE0FFF7BFFC001B022801D963
:101160000320F8BD28688001F5D4E8681B490840D1
:10117000E86020E00128F4D0E868226A8107890F3E
:10118000914216D17021626A0140914211D17F21B2
:10119000A26A09020140120291420AD11F214904A8
:1011A000E26A0140914204D1400F216B400788421E
:1011B00001D00120F8BD0020F8BD00000010024061
:1011C0000024F4000C000020040000204010024025
:1011D00000700040881300008C80C11FFCFFFEEFF0
:1011E000094910B5401E884201D9012010BD074CA5
:1011F00060610321081F01F0C7FE0020A0610720E5
:101200002061002010BD0000FFFFFF0000E000E0B3
:101210007047704770470000F0B5034620331A7FCF
:10122000012A24D001221A7702225A7704686268C0
:10123000A568104FBC4205D116460F2212059643F1
:101240004A6832437026B2430E68164366600068EF
:10125000B84202D0084A904204D18022896895435E
:10126000294381600120587700201877F0BD0220C3
:10127000F0BD0000002C01400004004070B50400E7
:1012800005D025462035687F002802D006E00120E1
:1012900070BD00202877204600F016F802206877FD
:1012A000211D206801F0C8F8012240342272AA777B
:1012B000EA7722706270A270E27022716271A2718C
:1012C000E2716A77002070BD08B50068094988425C
:1012D0000FD109480268C1140A4302600068002265
:1012E0000840009011460D20FFF75EFC0D20FFF72F
:1012F0004FFC08BD002C0140401002400146203147
:101300004A7F012A01D00120704702224A770168F2
:10131000CB6801221343CB6000680949884202D0A0
:101320000849884207D18168074B1940062905D032
:10133000DB1F994202D00168114301600020704711
:10134000002C01400004004007000100F8B50546EC
:1013500004462035287F0026012817D001272F7743
:1013600002206877226890682F4B1840FF231B02E9
:10137000984390600868502838D00EDC20284FD061
:1013800006DC00284CD010281ED149E00220F8BD10
:10139000302845D0402817D13AE060282ED0702858
:1013A00018D001221203801A0FD090420CD1CB68C2
:1013B0004A688968206801F083F820688168012202
:1013C00092031143816000E001266F7700202877A7
:1013D0003046F8BDCB684A688968206801F070F82B
:1013E00021688868772210438860EEE7CA684968F8
:1013F000206801F07BF85021206806E0CA6849683F
:10140000206801F084F86021206801F065F8DCE7CD
:10141000CA684968206801F069F840212068F4E74B
:10142000226801461046F0E788FFCEFF70470000B3
:10143000F8B504460068C66805690027A9070029B1
:1014400013DAB10711D5F91E016101202077206858
:1014500080698007204602D0FFF7E8FF04E000F033
:101460008BF8204600F089F82777680716D57007B3
:1014700014D504202168C043086102202077206829
:1014800080698005800F204602D0FFF7CFFF04E07F
:1014900000F072F8204600F070F82777280715D57D
:1014A000300713D508202168C04308610420207745
:1014B0002068C0698007204602D0FFF7B7FF04E02C
:1014C00000F05AF8204600F058F82777E80616D5BD
:1014D000F00614D510202168C04308610820207749
:1014E0002068C0698005800F204602D0FFF79EFF6C
:1014F00004E000F041F8204600F03FF82777E807C5
:1015000008D0F00706D001202168C04308612046BA
:1015100000F034F8280601D4A80407D5300605D514
:101520002168134808612046FFF773FEE80507D5D8
:10153000300605D521680F4808612046FFF768FE90
:10154000680608D5700606D540202168C0430861AA
:10155000204600F059F8A80608D5B00606D5202088
:101560002168C04308612046FFF754FEF8BD000023
:101570007FDFFFFFFFFEFFFF7047704770B51E491A
:10158000884237D11D48002302684168521C5941E6
:101590001B4C02604160E1881A4D491CE1802188A2
:1015A000491C21806188491C6180A188491CA18057
:1015B000828C2978002A04D0521E828402200143A2
:1015C00001E0FD200140297001F034FD02F096F8A1
:1015D000E088FF21F53188420AD30020E080287896
:1015E0004108C007C21701204900904301432970F8
:1015F00001F000FD70BD00003800002060010020F7
:10160000100000203000002070477047704770477E
:1016100070477047F8B503680446D96918689A6836
:10162000B44D0E462E4025468035002E75D0B24E64
:10163000B24F1640074037436ED0CF0706D0C705DC
:1016400004D501271F622B693B432B618B0708D50B
:10165000D30706D0276802233B622B6904273B434C
:101660002B614B0708D5D30706D0276804233B62BC
:101670002B6902273B432B610B0709D5202303402D
:10168000334305D02668082333622E691E432E613A
:101690000B0509D5430107D501232668DB02336218
:1016A0002B69202633432B612B69002B42D08906FE
:1016B0000AD520210840C9050A40104304D0616FB3
:1016C000002901D020468847286921688968490691
:1016D00002D42821084232D0204600F0F7FF2168CA
:1016E0008868400627D5EFF31080012282F3108826
:1016F0008B68402293438B6080F310882868002811
:1017000019D07F4981632868FFF7DCF8002811D0E1
:101710002868816B0DE000E017E08E0615D50127E3
:1017200020263F07064017403E430ED0616FB5E0CC
:1017300020468847F8BD2046FFF76BFFF8BD2046DE
:10174000FFF767FF00202861F8BDE66E012E7DD10E
:10175000CE067BD5C60679D510221A622368986812
:10176000264640064036002849DA2968086840685D
:101770000004000CE8D0B78B8742E5D9F0830868F5
:101780000068800634D4EFF31080012181F31088C3
:1017900019681701B943196080F31088EFF31080BE
:1017A000012181F3108821688B685B085B008B60E6
:1017B00080F31088EFF31080012181F310882168F5
:1017C0008B684027BB438B6080F310882020E86043
:1017D0000020E066EFF31080012181F3108821687A
:1017E0000B6893430B6080F310882868FFF730F88C
:1017F00002202067B08BF18B401A81B235E0B08BAC
:10180000F18B401A81B2F08B00289DD000299BD02B
:10181000EFF31080012686F310881E68FF2721371A
:10182000BE431E6080F31088EFF31080012383F322
:10183000108823689E68304FFF433E409E6080F3CF
:1018400010882020E8600020E06600E011E060677A
:10185000EFF31080012383F3108823681D689543FC
:101860001D6080F31088022020672046FFF7CDFE20
:10187000F8BDCE0208D5560206D501200005186233
:101880002046FFF7C5FEF8BD0E060BD501278026C2
:10189000FF0506403A40164304D0A16F002900D04E
:1018A00046E7F8BD4A0614D5420612D52046EFF3A6
:1018B0001081012282F310881A684024A2431A6022
:1018C00081F310882021A9600021816700F021F9AF
:1018D000F8BD0A0205D5420003D52046FFF797FE62
:1018E000F8BDC901FCD50028FADA2046FFF78EFEC4
:1018F000F8BD00000F0800000100001020010004E6
:10190000B926000870B5040005D025468035A868C2
:10191000002802D006E0012070BD0020287120467A
:1019200000F026F82420A8602068016849084900D2
:101930000160A06A002802D0204600F0FBFD20468E
:1019400001F07AF90128E7D0206841680922D20223
:1019500091434160206881682A2291438160206818
:101960000168012211430160204600F049FE70BD6C
:1019700010B586B0044614216846FEF78AFC154966
:101980002068884224D11448C26B012149040A43CB
:10199000C263C26B0A400592426B01210A43426353
:1019A000406B0491084005900C20009002200190AB
:1019B000002002900390052069460007FEF7D2FF41
:1019C000002211461C20FFF7EFF81C20FFF7E0F87B
:1019D00006B010BD004400400010024070B58C23DA
:1019E0001B58202B01D0022070BD00290BD0002AEB
:1019F00009D0012483682403A34206D10369002B84
:101A000003D1CB0701D0012070BD0023C366046859
:101A100063681B020BD5EFF31083012585F3108853
:101A200025680126B6063543256083F3108801F04A
:101A3000B7F970BD10B5044602F096FD204600F0DF
:101A400023FC10BDFFB5064604468036B06883B05F
:101A50000D46202802D0022007B0F0BD002D0CD08A
:101A60000598002809D00120A1680003814206D111
:101A70002069002803D1E80701D00120ECE700200D
:101A800030612120B060FFF727F8019027464037EA
:101A90000598B8820598F8820120A1680003814268
:101AA00002D12069002802D00295002515E000200F
:101AB000029012E000228021204601F007FA00285F
:101AC00018D10298002819D02168007888620298FD
:101AD000401C0290F88A401EF882F88A019B002878
:101AE00006980090E6D100224021204601F0EEF950
:101AF00000280AD02020B0600320ADE728882168A4
:101B0000C005C00D8862AD1CE4E72020B060002055
:101B1000A2E77047FEE7000002480078C006C00F49
:101B20007047000030000020024800788006C00F97
:101B30007047000030000020024800784006C00FC7
:101B4000704700003000002001480078C00970474D
:101B50003000002002484078C007C00F70470000E6
:101B60003000002070B505460C2029496843441810
:101B7000206880476A000521AB180026002860799C
:101B800031D0052801D2617170BD0A2802D2401CF3
:101B9000607170BD690020796D186D1C002804D13A
:101BA00001202071E8B201F09BFD21890029F0D0CD
:101BB000E088884208D2401C80B2E08021898842B7
:101BC000E7D1DB1CD8B20BE0A07A0028E1D0E07AA4
:101BD000401CC0B2E072A17A8842DAD1E672E8B263
:101BE00001F07EFD70BD052801D961710CE000286F
:101BF00002D0401E607107E02079012804D19B1CAF
:101C00002671D8B201F06CFDE680E67270BD00006E
:101C10001801002030B500210D4805240B4664252D
:101C20000C224A43121813715471D3801581491C38
:101C30009372C9B2D3720529F2D3064901600649ED
:101C4000C16006498161064941620649016330BDB0
:101C500018010020191B0008291B0008391B000867
:101C6000491B0008551B000810B5FEF716FDFEF7CE
:101C7000B7FC0249FEF7C0FB10BD0000CDCC8C3F85
:101C8000F0B587B014216846FEF703FB3E48426B6F
:101C900020210A434263426B0A400592416B0125B1
:101CA00029434163416B29400591426B02210A435C
:101CB0004263426B0A400592426B08210A43426329
:101CC000406B002208400590052030490007FEF7D0
:101CD000FCFE8321012209012D48FEF7F6FE0022B9
:101CE0002C492B48FEF7F1FE002203212A48FEF77B
:101CF000ECFE102000900024032605206946039680
:101D0000019502940007FEF72DFEE0206A4631C2DD
:101D1000052069460007FEF725FE69461C48009627
:101D200002950194FEF71EFE1C480090694603963A
:101D3000019502941648FEF715FE2803112700901E
:101D400069460197039602941148FEF70BFEE803DB
:101D50000090052002946946019503940007FEF760
:101D600001FE029469460C48009601950394FEF723
:101D7000F9FD3020009069460197039602950448CA
:101D8000FEF7F0FD07B0F0BD00100240108000002B
:101D90000004005008100000000C0050080800006B
:101DA00010B588B000240594069418480394049450
:101DB000009401941449029401603F2184604160C1
:101DC000046113494461C16080218161FFF756FAC3
:101DD000002801D0FEF73AFD01200003039003A97B
:101DE0000A48FFF7B3FA002801D0FEF72FFD009450
:101DF0000194694605480294FFF70EFA002801D0C5
:101E0000FEF724FD08B010BD002C01403800002072
:101E1000E703000010B50D480B4901604B21C901D3
:101E2000416000218160C16001618161C161016225
:101E30000C22416242618162FFF764FD002801D0FB
:101E4000FEF704FD10BD00000044004084000020A7
:101E5000FEE7000010B50021084B0A460020C40030
:101E6000E418401CC0B262548028F8D3491CC9B29F
:101E70000829F3D300F092F810BD0000880100207B
:101E800030B5CC084B075B0F01259D40EBB2074DE9
:101E9000C0004519C808285C002A01D0184302E098
:101EA000C0431843C043285530BD000088010020BE
:101EB00010B50021AE2002F0ADFD0021084602F071
:101EC000A9FD0021102002F0A5FD0021402002F014
:101ED000A1FD0021812002F09DFD0021CF2002F014
:101EE00099FD0021A12002F095FD0021C82002F0FB
:101EF00091FD0021A62002F08DFD0021A82002F016
:101F000089FD00213F2002F085FD0021D32002F051
:101F100081FD0021084602F07DFD0021D52002F060
:101F200079FD0021802002F075FD0021D92002F00A
:101F300071FD0021F12002F06DFD0021DA2002F098
:101F400069FD0021122002F065FD0021DB2002F076
:101F500061FD0021302002F05DFD0021202002F013
:101F600059FD0021022002F055FD00218D2002F0D4
:101F700051FD0021142002F04DFDFFF76BFF002101
:101F8000AF2002F047FD10BD0246012000E05043A3
:101F90000B46491EC9B2002BF9D1704770B5002419
:101FA0002046B030C0B2002102F034FD00210846C6
:101FB00002F030FD0021102002F02CFD02F06EFA3C
:101FC000782002F025FA02F09FFA00281BD040206A
:101FD00002F01EFA02F098FA002814D00A4E0025EA
:101FE000E8008019005D02F013FA02F08DFA002873
:101FF00009D06D1CEDB2802DF2D302F06FFA641C93
:10200000E4B2082CCCD370BD88010020FFB589B0A4
:102010000998079058081C460E4605910690082B13
:102020000DD0E008610700D001214018069948430F
:10203000C0B2203A0190D0B20390002047E00620C1
:10204000F7E7082C11D00C2C14D0102C17D0182C1A
:1020500041D1039824214843214941180098002781
:102060000D5CE8070FD0129A11E00398062148434F
:102070001C49F2E703980C2148431B49EDE70398FC
:102080001A490001E9E71298002826D000223146BB
:102090000998FFF7F5FE761C7F1C6D08FFB2F6B2BB
:1020A000082FDED30998401CC0B20990082C0AD032
:1020B0000799411A0698814205D107980990059819
:1020C0000830C0B205900098059E401CC0B201992E
:1020D00000908842B5D30DB0F0BD0122D7E70000D3
:1020E0005C570008D04A0008F84C00086C51000802
:1020F000FFB587B0079805900A980E460491C1086D
:10210000400700D0012008180A9948430024019094
:1021100043E00A9810280FD0182811D0202815D095
:1021200040283DD10998204940024018055D00270C
:10213000E80710D0109A12E009981C494001F4E712
:102140000998482148431849C839EEE709981649C3
:10215000C0018039E9E71098002823D000223146D9
:102160000798FFF78DFE761C7F1C6D08FFB2F6B254
:10217000082FDDD30798401CC0B201460790059890
:10218000091A0A98814205D10598079004980830E9
:10219000C0B20490641C049EA4B201988442B8D3D7
:1021A0000BB0F0BD0122DAE7006A0008B86400084D
:1021B000FFB581B00A9800251E46082800D10225E7
:1021C000002447081DE0301B401EC1B20A20FFF763
:1021D000DBFE01460398FEF75EF80A21FEF75BF886
:1021E0000B980029009010D03031CAB278190199AB
:1021F000604340180A9BC0B20299FFF707FF641CB6
:10220000E4B2B442DFD305B0F0BD78190199604360
:102210004018C0B230220A9BEEE7FFB581B01E46DF
:10222000154604465F080BE00A98009033462046A6
:102230000299FFF7EBFE082E09D03819C4B26D1CC5
:102240002A78104620385E28EED905B0F0BDA41DCE
:10225000E4B2F4E708B509A000680090084901203D
:102260008876FF232D33042269460648FFF7EAFBF0
:10227000022203490348FFF7B1FB08BDF842C241FF
:10228000080600208400002070B5006818498842C4
:102290000CD1184C002560780126042813D0422860
:1022A00005D0842821D0C22800D1E57670BDA07E5B
:1022B000012801D0E67670BD0222A11C0E48FFF76E
:1022C0008DFBA57670BD607E012807D000F05EF81A
:1022D0000028F7D100F012F8267770BD1722A11C54
:1022E0000548FFF77BFB657670BD257770BD000064
:1022F0000044004008060020840000201348C178F4
:10230000027909028918C183417982790902891801
:102310000184017A427A090312028918827A8918A3
:102320004184017B427B090312028918827B891850
:102330008184417C827C09028918C184C17C007D32
:102340000902081801492031087270470806002068
:102350001CB50AA103C9019100900A4901204876E1
:10236000FF232D33082269460748FFF76BFB022243
:1023700004490548FFF732FB1CBD0000F8040000CB
:10238000000A6464080600208400002000B51721BC
:10239000064802F0EBF805490A7EC97D1202511881
:1023A000884201D1002000BD012000BD08060020A8
:1023B0007047704710B5FEF795FB10BD30B591B072
:1023C00034216846FDF765FF002501200D950E9527
:1023D0000F9540021095FEF7EBFB0224E0010390FD
:1023E00000944020059008200A9080030B900794E9
:1023F000000304950C90099508946846FEF704FDC7
:10240000002801D072B6FEE707200DA931C10221D4
:102410000DA81095FEF7F2FB002801D072B6FEE77A
:1024200011B030BD7047000010B50248FFF700F84A
:1024300010BD00003800002070B502681B4B1C4E18
:10244000984201D0B04203D17024A2434C68224389
:10245000184C194D984208D0B04206D0174EB042E1
:1024600003D0A04201D0A84204D103263602B243D1
:10247000CE6832438026B2434E69324302608A6896
:10248000C2620A688262984203D0A04201D0A84288
:1024900001D109690163012141610169C90703D0C3
:1024A000016949084900016170BD0000002C01402C
:1024B000000400400044014000480140002000406A
:1024C00030B58468FF252D021B021343AC430B4338
:1024D0002343836030BD00008268034B1A400A43E7
:1024E00007210A43826070478FFFCFFF30B5036A30
:1024F000046A6408640004628469F025AC43120134
:1025000022430A24A3430B438261036230BD30B5EA
:10251000046A036A1025AB43036283690F252D0308
:102520001203AB431A43A0239C4309012143826158
:10253000016230BD10B5018D090707D501684A68F1
:102540000123DB039A43836B1A434A60018DC90759
:1025500007D001684A6801235B049A43C36A1A439F
:102560004A60018D890707D501684A6801231B0469
:102570009A43036B1A434A60018D490707D50168E6
:102580004A6801239B049A43436B1A434A60018DB6
:10259000C90607D50268916801231B039943C36BE1
:1025A00019439160018D890607D501688A68012366
:1025B0005B039A43036C1A438A60018D490612D566
:1025C00003685A6801210905446C8A4322435A6012
:1025D000426C8A4207D10268516803235B05994324
:1025E000836C19435160018D090607D501684A685B
:1025F0000123DB04C06C9A4302434A6010BD000013
:10260000FEB505460026803504462E61FEF764FAC5
:1026100001902068006820270007002817DA254865
:102620000090002239042046019B00F04FFC002856
:102630000DD0EFF31080012181F3108821680A6822
:1026400080239A430A6080F31088AF6028E02068F6
:102650000068400727D5174800900121002289050E
:102660002046019B00F032FC00281CD0EFF31080C4
:10267000012181F3108821680A68FF2321339A43DE
:102680000A6080F31088EFF31080012181F3108835
:1026900021688A68520852008A6080F31088EF60CF
:1026A0002E710320FEBDAF60EF60E66626672E71D7
:1026B0000020FEBDFFFFFF0110B5806A0022014629
:1026C0004031CA83CA82FEF7A4FF10BD10B5EFF3F4
:1026D0001081012282F3108802681368FF242134DC
:1026E000A343136081F31088EFF31081012282F37A
:1026F0001088026893680D4C2340936081F3108822
:10270000C16E01290BD1EFF31081012282F31088F1
:10271000026813681024A343136081F310882022F9
:102720008C210A500021C166416710BDFEFFFFEFFA
:1027300070B501464031034680330C8CDD68026879
:10274000222D04D0906908210843906170BD526A1F
:10275000856D22402A80826D921C8265CA8B521E32
:10276000CA83CA8B002AF1D1EFF31082012484F3CB
:10277000108804682568FF262136B543256082F35A
:102780001088EFF31082012484F310880468A56890
:102790006D086D00A56082F310882022DA600023A6
:1027A000436703670468626812020BD5EFF3108277
:1027B000012585F3108825680126B606B5432560F6
:1027C00082F31088C26E012A02D0FFF733F970BD80
:1027D000C366EFF31082012383F310880468256831
:1027E00010239D43256082F310880268D469E44376
:1027F000E40600D41362898BFEF707FF70BD00006A
:10280000F0B50546044640358BB0288C0290206810
:10281000C669016806918168049121468031009162
:10282000C968222905D081690822114381610BB052
:10283000F0BD2F8D79E02068406A029AA16D1040AA
:102840000880A06D801CA065E88B401EE88320688E
:10285000C669710731D0F10709D00699C90506D5B7
:102860000121016200980069084300990861B007DE
:102870000BD50498C00708D0216802200862009890
:102880000069042108430099086170070BD504987A
:10289000C00708D02168042008620098006902215E
:1028A00008430099086100980069002805D0204677
:1028B000FEF7AFFE009900200861E88B002834D1B4
:1028C000EFF31080012181F3108821680A68FF234B
:1028D00001339A430A6080F31088EFF310800121DE
:1028E00081F3108821688A68304B1A408A6080F32F
:1028F000108800982021C16000206067206721684F
:10290000486800020BD5EFF31080012282F3108893
:102910000A6801239B069A430A6080F31088E06EE0
:10292000012829D02046FFF785F8002F01D0B006F6
:1029300081D4E88B002800D179E7298D8142FBD929
:10294000EFF31080012181F3108821688B68012248
:10295000120793438B6080F3108815486067EFF38C
:102960001080012181F31088226811682023194307
:10297000116080F310885AE70020E066EFF31080C2
:10298000012181F310882268136810218B431360A2
:1029900080F310882068C269D243D20600D4016255
:1029A000A98B2046FEF731FEBFE70000FEFFFFEFD8
:1029B0003127000870B501464031034680330C8C46
:1029C000DD680268222D04D09069082108439061D7
:1029D00070BD526A2240846D2270826D521C8265E5
:1029E000CA8B521ECA83CA8B002AF1D1EFF3108220
:1029F000012484F3108804682568FF262136B54336
:102A0000256082F31088EFF31082012484F310888C
:102A10000468A5686D086D00A56082F31088202207
:102A2000DA600023436703670468626812020BD50B
:102A3000EFF31082012585F3108825680126B6067C
:102A4000B543256082F31088C26E012A02D0FEF7DA
:102A5000F1FF70BDC366EFF31082012383F310888A
:102A60000468256810239D43256082F3108802685E
:102A7000D469E443E40600D41362898BFEF7C5FDF4
:102A800070BD0000F0B50546044640358BB0288C7B
:102A900002902068C6690168069181680491214608
:102AA00080310091C968222905D08169082211432B
:102AB00081610BB0F0BD2F8D79E02068406A0299EA
:102AC0000840A16D0870A06D401CA065E88B401EF9
:102AD000E8832068C669710731D0F10709D00699EB
:102AE000C90506D5012101620098006908430099D3
:102AF0000861B0070BD50498C00708D021680220F0
:102B00000862009800690421084300990861700771
:102B10000BD50498C00708D02168042008620098EB
:102B200000690221084300990861009800690028A3
:102B300005D02046FEF76DFD009900200861E88B66
:102B4000002834D1EFF31080012181F3108821682F
:102B50000A68FF2301339A430A6080F31088EFF379
:102B60001080012181F3108821688A68304B1A4057
:102B70008A6080F3108800992020C8600020606778
:102B800020672168486800020BD5EFF3108001220E
:102B900082F310880A6801239B069A430A6080F337
:102BA0001088E06E012829D02046FEF743FF002F51
:102BB00001D0B00681D4E88B002800D179E7298DB7
:102BC0008142FBD9EFF31081012080F31088206847
:102BD000826801231B079A43826081F3108815489D
:102BE0006067EFF31080012181F3108821680A6883
:102BF00020231A430A6080F310885AE70020E06619
:102C0000EFF31080012181F31088226813681021EE
:102C10008B43136080F310882068C269D243D206C8
:102C200000D40162A98B2046FEF7EFFCBFE700004D
:102C3000FEFFFFEFB5290008F8B50446806821695A
:102C4000E26908436169002511432268084311685D
:102C50004B4B194001431160206841680322120365
:102C60009143E26811434160A169206A08432168E9
:102C70008A68444B1A4002438A602068C16A626ACB
:102C8000090909011143C1623F492068884211D1F5
:102C90003E4840698007800F0FD0012806D00228E7
:102CA00002D003280BD103E0022109E0042107E050
:102CB000082105E03649884201D1002100E01021B9
:102CC0000120E369C003334A334E344F834227D196
:102CD000002906D0022907D0042907D008293FD1AE
:102CE00008E0FEF737F803E0104603E0FEF746F889
:102CF00000283AD0616A4900715AFDF7CCFA616840
:102D000040004A088018FDF7C6FA01461039B9425A
:102D100026D82249491C01400007400F084322E001
:102D2000002906D0022907D0042907D0082917D185
:102D300008E0FEF70FF803E0104603E0FEF71EF888
:102D4000002812D0616A4900715AFDF7A4FA61683F
:102D50004A088018FDF79FFA01461039B94201D997
:102D6000012502E080B22168C86020460121403080
:102D70004185018500206067A0672846F8BD0000F6
:102D8000F369FFCFFFF4FF1100380140401002400B
:102D9000004400400024F400564A0008EFFF000001
:102DA000F0B58165014640318A83CA8300254567B5
:102DB000012483682403FF26A34204D10369002B66
:102DC00013D13D4B0AE07F27002B09D0012636079F
:102DD000B3420CD10369002B05D03F230B8407E0DD
:102DE0000369002B01D00F8402E00E8400E00D8403
:102DF000034680331D612225DD60EFF3108301253A
:102E000085F310880568AE6801273E43AE6083F302
:102E10001088436E7D07AB4229D1098D914226D897
:102E20008168A14202D1016900291DD0234941676F
:102E3000016900290CD0EFF31081012282F3108880
:102E400002681368FF2401342343136081F3108860
:102E5000EFF31081012282F3108800688268012359
:102E60001B071A43826023E015494167F0E7816838
:102E7000A14202D1016900290ED0124941670169BE
:102E800000290BD0EFF31081012282F31088006833
:102E90000268FF23213309E00B494167EFF31081FA
:102EA000012282F310880068026820231A4302601E
:102EB00081F310880020F0BDFF010000852A000882
:102EC00001280008B529000831270008FFB581B0A6
:102ED00005460E46044680350A9F32E0781C30D005
:102EE000FDF7FAFD0499401AB84218D8002F16D001
:102EF00020680168490724D5802E22D0402E20D09A
:102F0000C169C94309070CD4082606622046FFF7A9
:102F1000DDFB2E6100202871012005B0F0BD0320EB
:102F2000FBE7C069C04300050BD401202168C00243
:102F300008622046FFF7CAFB202028610020287184
:102F4000EDE72068C1693046884305D00021039829
:102F50008142C3D00020E0E70121F8E710B5024824
:102F6000FEF758FB10BD00008400002030B474460A
:102F7000641E2578641CAB4200D21D46635D5B0075
:102F8000E31830BC184700008307FF22DB0E9A408D
:102F90008907090E9940002808DB830809489B002F
:102FA0001B18186890430843186070470007000F0B
:102FB0000838830804489B001B18D86990430843CD
:102FC000D861704700E400E000ED00E010B5044C6B
:102FD000A078012803D1FFF73DF90020A07010BDB3
:102FE00080010020024800210170417070470000FC
:102FF0003000002070B50D4C0D4D20780121C00728
:10300000C217C9022846521CFDF75FFD207808212F
:103010008007C20F2846FDF758FD207810210007D1
:10302000C20F05200007FDF750FD70BD30000020E5
:103030000004005070B5224D02212846FDF740FDE6
:10304000204C002821782BD0EF2001402170012155
:103050002846FDF735FD0028207824D0DF210840E0
:10306000052520702D0780212846FDF729FD2178B0
:1030700000281BD0BF200140217040212846FDF7C9
:103080001FFD002815D020784106490E217020210F
:103090002846FDF715FD00280FD00020607070BD98
:1030A00010200143D2E720210843D9E74020014303
:1030B000E2E7217880200143E8E70120EEE7000005
:1030C000000400503000002002480021C1728172CB
:1030D000704700005401002008490020CA7A8B7A0A
:1030E0009A4209D0C87A085CCA7A521CD2B2CA7213
:1030F0000A2A01D30022CA7270470000540100203E
:1031000010B5FFF7E1FFFEF785FD10BD70B5FFF7C5
:10311000E3FF0021134C144D08281ED006DC0028C4
:1031200014D0022813D0052810D116E00B2814D093
:103130000E280BD10D49F72308780207D217D200C9
:1031400008321207120F184002430A7070BD6170F6
:10315000FEF780FE0648606070BD6170FEF77AFE83
:10316000656070BD28000020E939000830000020AB
:10317000353C000870B5FFF7AFFF0021134C144D2C
:1031800008281ED006DC002814D0022813D00528F9
:1031900010D116E00B2814D00E280BD10D49F723BF
:1031A00008780207D217D20008321207120F18400F
:1031B00002430A7070BD6170FEF74CFE0648606005
:1031C00070BD6170FEF746FE656070BD280000208E
:1031D0007138000830000020353C000810B5FFF7BA
:1031E0007BFF0021204C08280DD00DDC00280AD0E0
:1031F000022812D0052806D16078401CC0B2607049
:10320000042800D1617010BD0B28FCD00E28FAD123
:103210006170FEF71FFE15481AE0607800280DD097
:10322000012817D002281AD00328ECD11048012217
:1032300082706170FEF70EFE0E4809E06170FEF7C5
:1032400009FE0B4808220C491438FCF7C3FF0B4851
:10325000606010BD6170FEF7FDFD0948F8E7617020
:10326000FEF7F8FD0748F3E7280000207138000852
:1032700080010020E939000820000020BD3E000840
:103280000D400008793D000870B5FFF725FFFF23CA
:1032900000222F4D2F4C2D332F49304E082817D0A8
:1032A0000DDC00280AD002280DD0052806D1607850
:1032B000401CC0B26070032800D1627070BD0B2842
:1032C00025D00E28FAD16270FEF7C4FD656070BD8E
:1032D000607800280BD0012811D00228F7D1088C83
:1032E000643080B20884B042F1D90A8470BD888B02
:1032F0000A3080B288839842F8D98A8370BDC88B1F
:10330000401C80B2C8831E28F8D9CA8370BD60787B
:1033100000280BD0012811D00228F7D1088C64387E
:1033200080B20884B042F1D90E8470BD888B0A380F
:1033300080B288839842F8D98B8370BDC88B401EB9
:1033400080B2C8831E28F8D91E20C88370BD000033
:10335000353C000828000020600100208813000090
:10336000F8B5FFF7B9FE0026534F544D544C0828CA
:103370001CD00DDC00280AD002280ED0052806D16A
:103380006878401CC0B26870062800D16E70F8BD25
:103390000B284FD00E28FAD103E049480C3001F039
:1033A000FFF96E70FEF756FD6F60F8BD6878012575
:1033B0000300FFF7DBFD06050B1A272F3704F4E7A0
:1033C000A08940498842F0D0401C43E0A07B401CCB
:1033D000C0B2A0730D2800D1A573A17B45E0A17BED
:1033E000A08901F08BFAE073F8BDE07B401CE0732C
:1033F000A17BA08901F082FAE17B401C8842F3D1D5
:10340000E573F8BD207C401CC0B220741828F8D1A8
:103410002674F8BD607C401CC0B260743C28F8D1B2
:103420006674F8BDA07C401CC0B2A0743C28F8D1E2
:10343000A674F8BD68783B210300FFF797FD0605E9
:103440000D1D242D3504F4E7A0897D210901884252
:10345000EFD0401EA081F8BDA07B401E0006000EEC
:10346000A07301D10C20A073C1B2A08901F046FA6B
:10347000E17B8842B3D3F8BDE07B401E0006000E1E
:10348000E073ACD0F8BD207C401EC0B22074182878
:10349000F8D317202074F8BD607C401EC0B2607461
:1034A0003C28F8D36174F8BDA07C401EC0B2A07463
:1034B0003C28F8D3A174F8BD353C00082800002052
:1034C00060010020F307000070B5FFF705FE002241
:1034D0002F4D304C3049082817D00DDC00280AD079
:1034E00002280DD0052806D16078401CC0B260705B
:1034F000042800D1627070BD0B282BD00E28FAD1A1
:103500006270FEF7A7FC656070BD6078002809D086
:10351000012824D10EE00328F6D1C87D002835D03B
:10352000002015E0087D401CC0B208751828EBD3B8
:103530000A7570BD487D401CC0B248753C28F8D360
:103540004A7570BD887D00281ED00020887570BD2A
:10355000C87570BD6078002804D001280BD00228FF
:10356000F0D0D8E7087D401EC0B208751828F0D307
:103570001720087570BD487D401EC0B248753C28B4
:10358000F8D33B20487570BD0120DFE70120DFE75D
:103590000D400008280000206001002070B5FFF7F2
:1035A0009BFD00222F4D304C3049082817D00DDCF0
:1035B00000280AD002280DD0052806D16078401CCA
:1035C000C0B26070042800D1627070BD0B282BD08F
:1035D0000E28FAD16270FEF73DFC656070BD607820
:1035E000002809D0012824D10EE00328F6D1C87E96
:1035F000002835D0002015E0087E401CC0B20876B7
:103600001828EBD30A7670BD487E401CC0B24876BD
:103610003C28F8D34A7670BD887E00281ED0002052
:10362000887670BDC87670BD6078002804D0012807
:103630000BD00228F0D0D8E7087E401EC0B2087632
:103640001828F0D31720087670BD487E401EC0B2FF
:1036500048763C28F8D33B20487670BD0120DFE750
:103660000120DFE70D400008280000206001002055
:1036700010B5FFF731FD0021154C08280DD00DDCE9
:1036800000280AD0022812D0052806D16078401CF4
:10369000C0B26070022800D1617010BD0B28FCD050
:1036A0000E28FAD16170FEF7D5FB0A480DE060786C
:1036B000002806D00128F0D16170FEF7CBFB064848
:1036C00003E06170FEF7C6FB0448606010BD0000B7
:1036D00028000020353C000821420008FD40000879
:1036E00005498A7A8854887A401CC0B288720A28B0
:1036F00001D30020887270475401002010B509489A
:103700000178491CC9B201700A2909D3002101704E
:103710000C462046FEF726FA641CE4B2052CF8D3CA
:1037200010BD00003200002010B500F017F800F0C6
:1037300053F8FFF74BFC10BD10B528210548FCF7E6
:10374000A8FD0448FA2181830A21C183024901842A
:1037500010BD000060010020C4090000F8B51A483F
:103760000A21408CFCF797FD194E1849194C357801
:10377000098CF72267881540884209D812487D21B4
:10378000008CC900FCF787FD1049C98B884207D916
:10379000002F03D1FF20F5300C490EE03570F8BD45
:1037A00009480A21C08BFCF776FD08498A8B9042B4
:1037B00007D9002FF2D1FF20F530888401206080E6
:1037C000ECE700206080F8BD0806002060010020C2
:1037D0003000002034000020F8B500F023FF1F481F
:1037E0001F4FC47D1F4AF7251F4B2049002C31D0A5
:1037F000047D1E79B4422DD1447D5E79B44229D135
:103800003C78022C26D80C78002C08D1867D1478C0
:10381000F6072C40360F3443147001240C70C47E1C
:10382000002C19D0047E1E79B44215D1447E5B79F8
:103830009C4211D13B78022B0ED84B78002B08D13B
:10384000807E1378C0072B40000F034313700120C4
:103850004870F8BD0024E1E70020F9E7600100208E
:10386000280000203000002020000020340000202C
:103870007CB55748012404701025564E00950194DC
:103880003288042300211C20FEF792FC10232F22F3
:1038900000213C200094FEF7B9FB00950194B2781A
:1038A000022300214420FEF783FC10232F22002155
:1038B00054200094FEF7AAFB00950194F2780223AD
:1038C00000215C20FEF774FC0095019432790223FC
:1038D00010212420FEF76CFC10233A2219463420D4
:1038E0000094FEF793FB0095019472790223102156
:1038F0003C20FEF75DFC10233A2219464C20009430
:10390000FEF784FB00950194B27902231021542024
:10391000FEF74EFC304E00950194327A02232021AE
:103920000020FEF745FC10230022202118460094B9
:10393000FEF7DEFB00950194727A022320214020DD
:10394000FEF736FC102325A2202150200094FEF71C
:1039500064FC234800780094000702D510230B2252
:1039600001E010230C2220217020FEF7C1FB102360
:103970000122302100200094FEF7BAFB102302221E
:10398000302118460094FEF7B3FB102303223021A8
:1039900020200094FEF7ACFB3021102304220846BF
:1039A0000094FEF7A5FB0C2000900194728905237A
:1039B00032214020FEF7FCFB0C230AA232216820B2
:1039C0000094FEF72AFCFEF7E9FAFFF79FFB7CBDA7
:1039D000280000202000002060010020255248001F
:1039E000300000204C555800FEB57F490220087079
:1039F0000124002108237DA208460094FEF70DFC57
:103A00007D4E0A21F08BFCF746FC02460825032375
:103A10000021402000950194FEF7CAFB08232E22C6
:103A2000002152200094FEF7F1FAF08B0A21FCF7F6
:103A300032FC0A4601230021582000950194FEF72C
:103A4000B7FB0823562200215E200094FEF7DEFA21
:103A500008236AA2194600200094FEF7DEFB7D27AA
:103A6000FF00308C3946FCF716FC02460323082180
:103A7000402000950194FEF79BFB08232E22194657
:103A800052200094FEF7C2FA308C3946FCF703FC52
:103A90000A4603230821582000950194FEF788FB6D
:103AA0000823412219466A200094FEF7AFFA082342
:103AB00055A2102100200094FEF7AFFB708C0A2164
:103AC000FCF7E9FB024605231021402000950194F4
:103AD000FEF76EFB08232E2210215E200094FEF7D5
:103AE00095FA708C0A21FCF7D6FB0A4601231021B7
:103AF000642000950194FEF75BFB082357221021F8
:103B00006A200094FEF782FA082341A218210020BF
:103B10000094FEF782FB00950194B28C05231821D6
:103B20004020FEF745FB08233BA218215E200094AD
:103B3000FEF773FB082339A2202100200094FEF732
:103B40006CFBF08C0A21FCF7A6FB02460323202124
:103B5000402000950194FEF72BFB08232E22202104
:103B600052200094FEF752FAF08C0A21FCF793FBE6
:103B7000024601232021582000950194FEF718FBEE
:103B8000082328A220215E200094FEF746FB08238C
:103B900025A2282100200094FEF73FFB2036307A32
:103BA0006421FCF778FB0246012328214020009580
:103BB0000194FEF7FDFA08232E22282146200094C6
:103BC000FEF724FA307A6421FCF765FB0A460223EB
:103BD00028214C2000950194FEF7EAFAFEF7DEF961
:103BE000FFF7C8FAFEBD000028000020566F6C7475
:103BF0006167653A00000000080600204375727294
:103C0000656E743A00000000506F7765723A0000EC
:103C1000456E657267793A005768000046726571B3
:103C20003A000000487A0000506F7765722D4661B7
:103C3000633A000038B54F4D03202870012400215D
:103C40001023052208460094FEF752FA102306229C
:103C5000002118460094FEF74BFA1023072200219A
:103C600020200094FEF744FA10230822002130207F
:103C70000094FEF73DFA1023092219460020009413
:103C8000FEF736FA10230A22194618460094FEF76A
:103C90002FFA10230722194620200094FEF728FA55
:103CA00010230822194630200094FEF721FA102331
:103CB0001322202100200094FEF71AFA1023142268
:103CC000202118460094FEF713FA20211023152214
:103CD00008460094FEF70CFA10231622202130200B
:103CE0000094FEF705FA10232022302100200094D2
:103CF000FEF7FEF910232122302118460094FEF72A
:103D0000F7F910232222302120200094FEF7F0F949
:103D100030211023232208460094FEF7E9F91023EE
:103D20002022002178200094FEF770F91023202231
:103D3000194678200094FEF769F9202210231146D5
:103D400078200094FEF762F9102320223021782099
:103D50000094FEF75BF90094687810230007010EC9
:103D60003C227820FEF752F9FEF718F9FFF736FAF1
:103D700038BD000028000020FEB54E4F08203870E6
:103D8000012400211023172208460094FEF7B0F901
:103D900010231822002118460094FEF7A9F91023D9
:103DA0001A22002120200094FEF7A2F910231B22E2
:103DB000002130200094FEF79BF910253E4E00951F
:103DC0000194B28B032300215020FEF7F1F9102358
:103DD0001722194600200094FEF78AF910231922B1
:103DE000194618460094FEF783F910231A22194643
:103DF00020200094FEF77CF910231B221946302066
:103E00000094FEF775F900950194F28B02231021BE
:103E10005020FEF7CDF910231C2220210020009411
:103E2000FEF766F910231D22202118460094FEF7A4
:103E30005FF9202110231E2208460094FEF758F94E
:103E400010231F22202130200094FEF751F9009505
:103E50000194328C042320215020FEF7A9F910236D
:103E60002022002178200094FEF7D0F81023202291
:103E7000194678200094FEF7C9F820221023114635
:103E800078200094FEF7C2F81023202230217820F9
:103E90000094FEF7BBF80094787810230007010E19
:103EA0003C227820FEF7B2F8FEF778F8FFF7ECF93D
:103EB000FEBD00002800002060010020FEB5464F36
:103EC0000420387001240021082344A208460094ED
:103ED000FEF7A3F90825434E00950194B0897D2192
:103EE0000901421A022300216820FEF761F9082324
:103EF0003DA2194600200094FEF78FF90095019429
:103F0000B27B022308216820FEF752F9082338A269
:103F1000102100200094FEF780F900950194F27BB7
:103F2000022310216820FEF743F9082331A218214B
:103F300000200094FEF771F900950194327C022371
:103F400018216820FEF734F908232CA22021002034
:103F50000094FEF762F900950194727C02232021FF
:103F60006820FEF725F9082326A2282100200094C6
:103F7000FEF753F900950194B27C022328216820B2
:103F8000FEF716F910232022002178200094FEF776
:103F90003DF810232022194678200094FEF736F8C9
:103FA00020221023114678200094FEF72FF81023CA
:103FB0002022302178200094FEF728F800947878A9
:103FC0000823C006010E3C227820FEF71FF8FDF7FB
:103FD000E5FFFFF7C5F9FEBD280000205945415215
:103FE00000000000600100204D4F4E5448000000CA
:103FF00044415900484F5552000000004D494E556C
:10400000544500005345434F4E44000038B53A4DE7
:10401000052028700124002110230922084600945D
:10402000FEF766F810230A22002118460094FEF7D6
:104030005FF810230D22002120200094FEF758F88D
:1040400010230E22002130200094FEF751F8102397
:104050003122002140200094FDF7D8FF10230922CF
:10406000194600200094FEF743F810230A2219464F
:1040700018460094FEF73CF810230D221946202024
:104080000094FEF735F810230E22194630200094D4
:10409000FEF72EF810233222194640200094FDF737
:1040A000B5FF10232022002178200094FDF7AEFFF9
:1040B00010232022194678200094FDF7A7FF202224
:1040C0001023114678200094FDF7A0FF1023202232
:1040D000302178200094FDF799FF00946878082338
:1040E0000007010E3C227820FDF790FFFDF756FFF8
:1040F000FFF7BEFA38BD000028000020FEB5424F91
:104100000620387001240021102340A208460094A4
:10411000FEF783F810263F4D009601942A7D022376
:1041200000216820FEF744F810233BA21946002026
:104130000094FEF772F8009601946A7D0223102124
:104140006820FEF735F810230F222021002000946C
:10415000FDF7CEFF10231A46202118460094FDF7E4
:10416000C7FFA87D0094012847D010230C222021EE
:104170006820FDF7BDFF102311223021002000949C
:10418000FDF7B6FF10231222302118460094FDF7E8
:10419000AFFFE87D0094012832D010230C2230219B
:1041A0006820FDF7A5FF102320220021782000942D
:1041B000FDF72CFF10232022194678200094FDF7EC
:1041C00025FF20221023114678200094FDF71EFFC2
:1041D00010232022302178200094FDF717FF00944F
:1041E000787810230007010E3C227820FDF70EFF9F
:1041F000FDF7D4FEFFF768F9FEBD10230B22B6E7EA
:1042000010230B22CBE7000028000020484F555216
:1042100000000000600100204D494E55544500004B
:10422000FEB5424F0720387001240021102340A220
:1042300008460094FDF7F1FF10263F4D00960194CB
:104240002A7E022300216820FDF7B2FF10233BA243
:10425000194600200094FDF7E0FF009601946A7E65
:10426000022310216820FDF7A3FF10230F22202135
:1042700000200094FDF73CFF10231A462021184629
:104280000094FDF735FFA87E0094012847D0102345
:104290000C2220216820FDF72BFF10231122302152
:1042A00000200094FDF724FF10231222302118462D
:1042B0000094FDF71DFFE87E0094012832D0102302
:1042C0000C2230216820FDF713FF1023202200214B
:1042D00078200094FDF79AFE1023202219467820BA
:1042E0000094FDF793FE20221023114678200094BD
:1042F000FDF78CFE10232022302178200094FDF75A
:1043000085FE0094787810230007010E3C22782067
:10431000FDF77CFEFDF742FEFFF740F9FEBD1023DE
:104320000B22B6E710230B22CBE700002800002069
:10433000484F555200000000600100204D494E5585
:104340005445000010B5044600F0A8F8204600F0DF
:104350005FF800F0D9F8044600F0C0F8204610BD20
:1043600003200146401EC0B20029FAD17047000068
:10437000F8B5154E00242546012210213046FCF7E1
:10438000A4FB0127012220213046FCF79EFBFFF70A
:10439000E7FF6006040E10213046FCF791FB002871
:1043A00000D03C43002220213046FCF78EFB012246
:1043B00010213046FCF789FBFFF7D2FF6D1CEDB2F0
:1043C000082DDFD32046F8BD0004005010B50F4C77
:1043D000002220212046FCF778FBFFF7C1FF0022D6
:1043E00010212046FCF771FBFFF7BAFF01222021C4
:1043F0002046FCF76AFBFFF7B3FF0022202120468E
:10440000FCF763FBFFF7ACFF10BD00000004005099
:1044100070B5104E05460024002220213046FCF7DE
:1044200054FB280601D5012200E00022102130466D
:10443000FCF74BFB6806050EFFF792FF01222021D7
:104440003046FCF742FBFFF78BFF641CE4B2082CFC
:10445000E2D370BD0004005010B50F4C00222021A3
:104460002046FCF732FBFFF77BFF0122102120469C
:10447000FCF72BFBFFF774FF012220212046FCF7FD
:1044800024FBFFF76DFF002220212046FCF71DFBD7
:10449000FFF766FF10BD00000004005010B50E4C81
:1044A000012210212046FCF710FB0122202120468A
:1044B000FCF70BFBFFF754FF002210212046FCF70E
:1044C00004FBFFF74DFF002220212046FCF7FDFAF8
:1044D000FFF746FF10BD00000004005010B5094C66
:1044E000002210212046FCF7F0FA0122202120466C
:1044F000FCF7EBFAFFF734FF012210212046FCF70E
:10450000E4FA10BD0004005070B5164E01250022DB
:1045100020213046FCF7D9FAFFF722FF01221021B3
:104520003046FCF7D2FAFFF71BFF0122202130466C
:10453000FCF7CBFAFFF714FF05E0641CE4B20A2C89
:1045400001D3002505E010213046FCF7B9FA002818
:10455000F3D1002220213046FCF7B7FAFFF700FF25
:10456000284670BD000400507047000070B5044636
:104570000C4800220C4E11E02578521C2B4643407B
:104580001B07DB0EF35A0009434028095840000777
:10459000C00E305A1B09584092B2641C8A42EBD3B9
:1045A00070BD0000FFFF0000006C00080A214843B6
:1045B00000E0401E0028FCD170470A21484300E07B
:1045C000401E0028FCD1704700B585B01421684614
:1045D000FBF75FFE012100200091029101906946E6
:1045E0000248FCF7BFF905B000BD0000000C005008
:1045F00010B586B014216846FBF74BFE01200090F1
:10460000019002900320064C039069462046FCF777
:10461000A9F9002201212046FCF757FA06B010BD87
:10462000000C005010B500F099F81E4801780A06F9
:1046300003D5083000F0B4F810BD0A090A230907B1
:104640005A43090F521817490A2408318A714278CF
:1046500053065B0F12076343120F9A184A71827850
:10466000130912076343120F9A180A71C2781309CB
:1046700012076343120F9A18CA70027913091207BE
:104680006343120F9A188A704279CA7180790209BD
:1046900000076243000F10187D2212018018088065
:1046A00010BD000018000020F8B500252A4F06466E
:1046B0002C462A4602213846FCF707FA012105203C
:1046C0000022C9030007FCF700FA0320FFF76EFF82
:1046D000012202213846FCF7F8F90320FFF766FFB4
:1046E000304600F0E1F8FFF76FFF0220FFF75EFFB2
:1046F0000126F60305273F070220FFF757FF64084E
:10470000012231463846FCF7E0F90420FFF74EFF5E
:10471000002231463846FCF7D8F90E20FFF746FF55
:1047200001210D48FCF7CCF9002801D0802004437A
:104730006D1CEDB2082DDFD30220FFF737FF064DC9
:10474000002202212846FCF7C0F900220121284658
:10475000FCF7BBF92046F8BD000C005010B58120D5
:10476000FFF7A2FF0D4C20708320FFF79DFF6070C4
:104770008520FFF799FFA0708720FFF795FFE07075
:104780008920FFF791FF20718B20FFF78DFF60716B
:104790008D20FFF789FFA07110BD000018000020D8
:1047A00070B5044600887D210901401A85B20021B8
:1047B0008E2000F045F8A0790A21FBF76CFD00017E
:1047C0004018C1B2802000F03BF860790A21FBF765
:1047D00062FD00014018C1B2822000F031F820795A
:1047E0000A21FBF758FD00014018C1B2842000F0F7
:1047F00027F8E0780A21FBF74EFD00014018C1B20E
:10480000862000F01DF8A0780A21FBF744FD000186
:104810004018C1B2882000F013F807218A2000F068
:104820000FF80A212846FBF736FD00014018C1B2F7
:104830008C2000F005F880218E2000F001F870BD7A
:10484000F8B5184E04460D46002202213046FCF70A
:104850003CF90127FF030520002239460007FCF739
:1048600034F90120FFF7A2FE012202213046FCF7B5
:104870002CF90220FFF79AFE204600F015F8284692
:1048800000F012F8002202213046FCF71EF9052044
:10489000002239460007FCF718F90220FFF786FED0
:1048A000F8BD0000000C0050F8B50546FFF7A0FE6B
:1048B000012605270024F6033F07224631463846E5
:1048C000FCF703F9002231463846FCF7FEF8E8070A
:1048D00001D0012200E0002201210748FCF7F5F891
:1048E000012231463846FCF7F0F8641C6D08E4B24A
:1048F000082CE7D3F8BD0000000C005010B5891E4D
:1049000004460B00FEF732FB0A061A181A181A1A88
:10491000181A181AFF219131FBF7BDFC002907D0A6
:10492000A00707D164212046FBF7B5FC002901D080
:104930001D2010BD1C2010BD1E2010BD1F2010BD4D
:10494000FCF7D8F8FDF73AFDFDF79AF9FDF762FAA2
:10495000FDF726FA00F026F8FCE7000010B5FF206E
:10496000F530FBF7EDFFFEF7E7FEFDF7A1FAFBF7E9
:1049700086FEFBF7DFFEFFF755FEFEF733FBFEF783
:10498000BFFBFEF757FBFEF735FB0348FCF7B6FC11
:1049900003490248086010BD380000207138000843
:1049A0002C0000201CB5FFF7D9FF174D7D262846A7
:1049B00009300190401EF600144C00270090144866
:1049C000006880472188FF20F530814202D3FDF73F
:1049D000BFFC27806088B04204D301990098FBF7A0
:1049E00011FF6780A088B0420AD34620FFF7AAFCD7
:1049F000012804D1FDF738F9FBF7AEFD6881A780E7
:104A0000FEF792FEDBE700006001002010000020AE
:104A10002C00002070B50C460546FFF73FFD7820BE
:104A2000FFF7F6FCFFF770FD002813D0002C01D033
:104A3000402000E00020FFF7EBFCFFF765FD0028B9
:104A400008D02846FFF7E4FCFFF75EFD002801D000
:104A5000FFF744FD70BD01000200040006000800DD
:104A60000A000C001000200040008000000100003F
:104A70000000000000000000000000000000000036
:104A80000000000000000000000000000000000026
:104A9000010000000200000003000000040000000C
:104AA00006000000070000000800000009000000E8
:104AB00000000000000000000000000000000000F6
:104AC00001000000020000000300000004000000DC
:104AD0000000000000000000002F000000000700A0
:104AE000070000147F147F1400242A7F2A1200621A
:104AF00064081323003649552250000005030000C6
:104B000000001C224100000041221C000014083E4D
:104B100008140008083E0808000000A06000000813
:104B20000808080800006060000000201008040267
:104B3000003E5149453E0000427F40000042615125
:104B40004946002141454B31001814127F100027BF
:104B500045454539003C4A49493000017109050382
:104B600000364949493600064949291E00003636B3
:104B70000000000056360000000814224100001416
:104B800014141414000041221408000201510906F3
:104B900000324959513E007C1211127C007F494974
:104BA0004936003E41414122007F4141221C007FA5
:104BB00049494941007F09090901003E4149497AB3
:104BC000007F0808087F0000417F4100002040412D
:104BD0003F01007F08142241007F40404040007F99
:104BE000020C027F007F0408107F003E4141413EDD
:104BF000007F09090906003E4151215E007F091925
:104C000029460046494949310001017F0101003F21
:104C10004040403F001F2040201F003F4038403FA1
:104C20000063140814630007087008070061514905
:104C3000454300007F41410000552A552A55000098
:104C400041417F0000040201020400404040404016
:104C5000000001020400002054545478007F4844AE
:104C6000443800384444442000384444487F0038E5
:104C70005454541800087E0901020018A4A4A47C0E
:104C8000007F080404780000447D400000408084D8
:104C90007D00007F102844000000417F4000007C20
:104CA00004180478007C080404780038444444382C
:104CB00000FC242424180018242418FC007C080478
:104CC000040800485454542000043F444020003C51
:104CD0004040207C001C2040201C003C4030403CD8
:104CE000004428102844001CA0A0A07C0044645468
:104CF0004C441414141414140000000000000000AC
:104D0000000000000000FC000000000002000000A5
:104D1000000C020C020000000000000090D0BCD08B
:104D2000BC900003000300001824FE448C00030222
:104D3000070201001824D8B04C80000300010201D2
:104D4000C038E438E0000102020102020806000057
:104D50000000000000000000000000F80402000055
:104D600000010204000204F8000000040201000037
:104D70009060F86090000000010000002020FC20FE
:104D800020000000010000000000000000000806F4
:104D90000000000020202020200000000000000073
:104DA0000000000000000002000000000080601C05
:104DB0000200040300000000F8040404F8000102EB
:104DC000020201000008FC000000000203020000D3
:104DD0001884442418000302020202000804242458
:104DE000D80001020202010040B088FC80000000EF
:104DF000000302003C242424C4000102020201003A
:104E0000F824242CC0000102020201000C04E41C5E
:104E10000400000003000000D8242424D80001026C
:104E20000202010038444444F80000030202010079
:104E30000000100000000000020000000000200040
:104E4000000000000600000000205088040200005E
:104E5000000001029090909090000000000000007F
:104E60000002048850200002010000001804C4243D
:104E70001800000002000000F804E494F8000102A9
:104E80000202020000E09CF0800002030000030226
:104E900004FC2424D800020302020100F8040404E4
:104EA0000C0001020202010004FC0404F8000203E9
:104EB0000202010004FC24740C000203020203003D
:104EC00004FC24740C00020302000000F0080444F7
:104ED000CC4000010202010004FC2020FC0402037B
:104EE000000003020404FC040400020203020200A6
:104EF000000404FC040406040403000004FC24D0A1
:104F00000C0402030200030204FC0400000002037C
:104F100002020203FC3CC03CFC000300030003004F
:104F200004FC30C4FC04020302000300F80404047F
:104F3000F80001020202010004FC2424180002030C
:104F400002000000F8848404F80001020207050052
:104F500004FC246498000203020003021824244481
:104F60008C000302020201000C04FC040C0000028D
:104F70000302000004FC0000FC0400010202010026
:104F8000047C80E01C040000030000001CE03CE006
:104F90001C00000300030000049C609C040002034A
:104FA00000030200041CE01C0400000203020000D5
:104FB0000C84641C04000203020203000000FE02D1
:104FC0000200000007040400000E30C000000000D2
:104FD00000010200000202FE0000000404070000BD
:104FE00000040204000000000000000000000000B7
:104FF000000008080808080800000200000000007F
:10500000000000000040A0A0C00000010202030256
:1050100004FC2020C00000030202010000C0202088
:10502000600000010202020000C02024FC00000118
:105030000202030200C0A0A0C000000102020200A0
:105040000020F82424040002030202000040A0A073
:10505000602000070A0A0A0404FC2020C0000203A2
:10506000020003020020E40000000002030200002E
:10507000000020E4000008080807000004FC80E0AD
:1050800020200203020003020404FC0000000202CC
:1050900003020200E020E020C00003000300030040
:1050A00020E02020C00002030200030200C02020F4
:1050B000C00000010202010020E02020C000080F13
:1050C0000A02010000C02020E0000001020A0F08CF
:1050D00020E0402020000203020000000060A0A0A9
:1050E00020000002020203000020F820000000005F
:1050F0000102020020E00020E000000102020302A1
:1051000020E0208060200000030100006080E0803B
:1051100060000003000300002060806020000203A4
:105120000003020020E02080602008080701000042
:105130000020A0602000000203020200000020DE28
:105140000200000000070400000000FF0000000053
:10515000000F00000002DE20000000040700000035
:105160000201020404020000000000000000000030
:10517000000000000000000000000000000000F837
:1051800000000000000000333000000000100C069A
:10519000100C0600000000000000000040C0784035
:1051A000C0784000043F04043F040400007088FC01
:1051B00008300000001820FF211E0000F008F00059
:1051C000E018000000211C031E211E0000F00888CA
:1051D000700000001E2123241927211010160E0034
:1051E000000000000000000000000000000000E0DF
:1051F00018040200000000071820400000020418F4
:10520000E00000000040201807000000404080F04F
:10521000804040000202010F01020200000000F085
:10522000000000000101011F010101000000000059
:105230000000000080B070000000000000000000CE
:105240000000000000010101010101010000000057
:1052500000000000003030000000000000000000EE
:1052600080601804006018060100000000E01008CB
:105270000810E000000F102020100F00001010F8A0
:10528000000000000020203F2020000000700808DF
:10529000088870000030282422213000003008885F
:1052A000884830000018202020110E000000C02087
:1052B00010F8000000070424243F240000F80888A8
:1052C000880808000019212020110E0000E0108835
:1052D00088180000000F112020110E000038080867
:1052E000C83808000000003F000000000070880877
:1052F00008887000001C222121221C0000E01008F8
:105300000810E0000000312222110F00000000C050
:10531000C0000000000000303000000000000080ED
:1053200000000000000080600000000000008040DD
:1053300020100800000102040810200040404040F6
:105340004040400004040404040404000008102049
:10535000408000000020100804020100007048088E
:105360000808F0000000003036010000C030C828F6
:10537000E810E0000718272423140B000000C038B1
:10538000E0000000203C23020227382008F888882B
:1053900088700000203F202020110E00C030080837
:1053A00008083800071820202010080008F808080E
:1053B0000810E000203F202020100F0008F8888807
:1053C000E8081000203F20202320180008F88888D3
:1053D000E8081000203F200003000000C03008084B
:1053E0000838000007182020221E020008F80800D4
:1053F0000008F808203F210101213F20000808F89B
:10540000080800000020203F2020000000000808BD
:10541000F8080800C08080807F00000008F888C07D
:1054200028180800203F20012638200008F808002E
:1054300000000000203F20202020300008F8F80065
:10544000F8F80800203F003F003F200008F830C077
:105450000008F808203F200007183F00E010080867
:105460000810E0000F10202020100F0008F8080896
:105470000808F000203F210101010000E0100808A9
:105480000810E0000F18242438504F0008F88888CE
:1054900088887000203F2000030C302000708808AE
:1054A000080838000038202121221C00180808F8BC
:1054B000080818000000203F2000000008F808003D
:1054C0000008F808001F202020201F00087888000E
:1054D00000C83808000007380E010000F80800F87E
:1054E0000008F800033C0700073C03000818688028
:1054F0008068180820302C03032C30200838C8009E
:10550000C83808000000203F2000000010080808EC
:10551000C83808002038262120201800000000FE8E
:10552000020202000000007F40404000000C30C03A
:1055300000000000000000010638C0000002020266
:10554000FE000000004040407F0000000000040218
:105550000202040000000000000000000000000043
:105560000000000080808080808080800002020433
:10557000000000000000000000000000000080802B
:10558000808000000019242222223F2008F8008099
:1055900080000000003F112020110E00000000805C
:1055A00080800000000E11202020110000000080EB
:1055B0008088F800000E112020103F20000080801D
:1055C00080800000001F222222221300008080F031
:1055D000888888180020203F20200000000080805C
:1055E00080808000006B94949493600008F80080A1
:1055F00080800000203F210000203F2000809898FC
:10560000000000000020203F20200000000000805B
:105610009898000000C08080807F000008F800009B
:1056200080808000203F24022D302000000808F8F0
:10563000000000000020203F2020000080808080AB
:1056400080808000203F20003F20003F808000803D
:1056500080800000203F210000203F20000080804B
:1056600080800000001F202020201F0080800080FC
:105670008000000080FFA12020110E0000000080AB
:1056800080808000000E112020A0FF80808080009C
:105690008080800020203F212000010000008080C9
:1056A000808080000033242424241900008080E0BE
:1056B000808000000000001F20200000808000008B
:1056C00000808000001F202020103F20808080006C
:1056D0000080808000010E3008060100808000807C
:1056E000008080800F300C030C300F0000808000A1
:1056F000808080000020312E0E31200080808000CC
:105700000080808080818E7018060100008080807B
:10571000808080000021302C222130000000000019
:10572000807C020200000000003F404000000000BA
:10573000FF00000000000000FF0000000002027CEB
:10574000800000000040403F000000000006010112
:10575000020204040000000000000000000000003D
:105760000000000000000000000000000000000039
:105770000000000000000000000000000000000029
:105780000000000000F0F0F0000000000000000049
:1057900000017F010000000000000000001C1C1C34
:1057A0000000000000008060301C8C60301C0C0089
:1057B00000000000000000000000000000000000E9
:1057C0000000000000000000000000E000000000F9
:1057D00000E000000086E69F86868686E69F8600BB
:1057E00000011F01010101011F010100000080C033
:1057F0006020F820E0C00000000003070C18FF70D4
:10580000E18100000000070F10107F100F0700005B
:105810008060206080000000E02000000F30203019
:105820009F70DC371030C0000000100E0300071816
:10583000101807000000C02020E0C0000000000099
:1058400080E01F38E88703C43C040000070F1810ED
:10585000100B070D1010080000808C4C3800000061
:105860000000000000000000000000000000000038
:105870000000000000000000000000000000000028
:10588000000080E0300804000000000000FEFF017E
:1058900000000000000000000000030F182040007E
:1058A00000040830E080000000000000000000005C
:1058B00001FFFE0000000000004020180F03000060
:1058C00000000000000000000000C0000000000018
:1058D000004266663C18FF183C6666420000000005
:1058E0000000030000000000000000000000800035
:1058F00000000000001010101010FF101010101009
:105900000000000000000300000000000000000094
:105910000000000000000000000000000000000087
:105920000000000000808C4C3800000000000000E7
:105930000000000000000000000000000010101037
:1059400010101010101010000000000000000000E7
:105950000000000000000000000000000000000047
:1059600000000000000000000000000000001C1CFF
:105970001C0000000000000000000000000000000B
:10598000E0380C000000000080701C0300000000E4
:105990000060380E0100000000000000000080C020
:1059A00060202060C080000000FEFF0100000000B9
:1059B00001FFFE000001070E181010180E0701006D
:1059C0000000808080C0E0000000000000000000B7
:1059D00000FFFF000000000000001010101F1F104B
:1059E000101000000080402020202060C0800000B7
:1059F00000030300804020381F070000001C1A1914
:105A000018181818181F00000080C020202060C03F
:105A100080000000000303001010182FE780000032
:105A200000070F10101010180F07000000000000F2
:105A30000000C0E0F000000000C0B088868180FF58
:105A4000FF808000000000000010101F1F101000D9
:105A50000000E060606060606060000000003F1077
:105A600008080818F0E0000000070B101010101CC8
:105A70000F030000000080C040202020E0C0000094
:105A800000FCFF211008080818F0E0000001070CD6
:105A900018101010080F03000000C0E06060606084
:105AA00060E06000000003000000E0180700000054
:105AB00000000000001F1F00000000000080C06008
:105AC0002020202060C080000087EF2C1818303084
:105AD00068CF830000070F0810101010180F070080
:105AE0000000C0C020202020C0800000001F3F60B8
:105AF0004040402010FFFE0000000C1C1010100859
:105B00000F03000000000000000000000000000083
:105B100000000000000E0E0E00000000000000005B
:105B2000001C1C1C00000000000000000000000021
:105B30000000000000000000000C0C00000000004D
:105B400000000000005838000000000000000000C5
:105B50000000008040201000000010284482010056
:105B60000000000000000000000001020408100016
:105B70000000000000000000000000000084848499
:105B80008484848484848400000000000000000079
:105B90000000000000001020408000000000000015
:105BA00000000000000001824428100000001008DE
:105BB000040201000000000000C02020101010109E
:105BC00030E0C0000003030000F010080C070300E1
:105BD000000000001C1C1C0000000000000000C0B1
:105BE000406020202040C00000FCFF01F00E03C1F7
:105BF000FE03807F0001070E081111101109040235
:105C00000000000080E0E000000000000000807C58
:105C10004340477FF880000010181F10000000006C
:105C2000131F1C1020E0E02020202060C080000016
:105C300000FFFF10101010182FE78000101F1F101A
:105C400010101010180F0700000080C04020202006
:105C50002060E00000FCFF010000000000000100E7
:105C60000001070E181010100804030020E0E020C7
:105C700020202040C080000000FFFF000000000046
:105C800001FFFE00101F1F10101018080E07010062
:105C900020E0E020202020202060800000FFFF1076
:105CA0001010107C00000000101F1F1010101010AA
:105CB0001018060020E0E0202020202060608000F6
:105CC00000FFFF101010107C00000100101F1F10BB
:105CD0000000000000000000000080C060202020C4
:105CE00040E0000000FCFF0100004040C0C1404017
:105CF0000001070E181010100F0F000020E0E02028
:105D00000000000020E0E02000FFFF101010101045
:105D100010FFFF00101F1F1000000000101F1F10B9
:105D20000000202020E0E0202020000000000000F3
:105D300000FFFF000000000000001010101F1F10E7
:105D40001010000000000000202020E0E0202020B3
:105D500000000000000000FFFF0000000060E08085
:105D60008080C07F3F00000020E0E020000020A0F5
:105D70006020200000FFFF30187CE3C0000000001E
:105D8000101F1F10000001131F1C181020E0E0203E
:105D9000000000000000000000FFFF000000000005
:105DA00000000000101F1F10101010101018060027
:105DB00020E0E0E000000000E0E0E02000FF013F24
:105DC000FEC0E01E01FFFF00101F1000031F0300B4
:105DD000101F1F1020E0E0C0000000000020E020A5
:105DE00000FF0003071C78E08000FF00101F100078
:105DF00000000000030F1F00000080C06020206032
:105E0000C080000000FEFF010000000000FFFE0057
:105E10000001070E181010180C07010020E0E02008
:105E20002020202060C0800000FFFF2020202020B4
:105E3000301F0F00101F1F100000000000000000A6
:105E4000000080C060202060C080000000FEFF01D4
:105E50000000000000FFFE000001070E1111133CBE
:105E60007C67210020E0E0202020202060C080000E
:105E700000FFFF101030F0D0080F0700101F1F1098
:105E8000000000030F1C10100080C06020202020A4
:105E90004040E00000070F0C1818303060E081002F
:105EA000001F0C0810101010180F07008060202031
:105EB00020E0E020202060800100000000FFFF00C3
:105EC0000000000100000000101F1F100000000073
:105ED00020E0E020000000000020E02000FFFF00A4
:105EE000000000000000FF0000070F181010101045
:105EF000100807002060E0E02000000020E06020A3
:105F00000000077FF88000807C0300000000000094
:105F1000071F1C070000000020E0E02000E0E02058
:105F20000020E0200007FFF8E01FFFFCE01F00005A
:105F30000000031F0300011F03000000002060E0B9
:105F4000A0000020E0602000000000038F7CF8C665
:105F5000010000000010181E130001171F18100088
:105F60002060E0E02000000020E060200000010749
:105F70003EF8E0180700000000000010101F1F107E
:105F80001000000000806020202020A0E0E0200021
:105F900000000000C0F03E0F0300000000101C1FB6
:105FA00017101010101806000000000000FC040478
:105FB000040404000000000000FF000000000000D6
:105FC00000000000007F404040404000000010E022
:105FD000000000000000000000000000031C6080C2
:105FE0000000000000000000000000030C708000B2
:105FF00000000404040404FC000000000000000091
:10600000000000FF00000000000040404040407FD2
:106010000000000000000010080C040C0810000034
:106020000000000000000000000000000000000070
:106030000000000000000000000000000000000060
:106040000000000000000000000000000000000050
:10605000808080808080808080808080000000043C
:10606000040808000000000000000000000000001C
:106070000000000000000000000000000000000020
:10608000000000000000000000000000000098D8A0
:1060900044642424FCF80000000F1F18101010089E
:1060A0001F1F10180020E0F000000000000000009A
:1060B0000000FFFF180804040CF8F00000001F0F98
:1060C00018101010180F030000000000000000005E
:1060D0000000000000E0F8180404043C3800000050
:1060E00000030F0C10101010080600000000000044
:1060F00000000020E0F0000000E0F81C04040408A8
:10610000FFFF000000030F18101010081F0F0800F9
:106110000000000000000000000000000000E0F8A7
:10612000484444444C7870000000030F0C181010D1
:10613000100804000000000080C0602020E0C000C3
:1061400000040404FFFF0404040400000000101015
:106150001F1F1010100000000000000000000000D1
:1061600000000000000070F88C04048CF874040C2B
:10617000007076CF8D8D8D89C87870000020E0F09A
:1061800000000000000000000000FFFF08040404FD
:10619000FCF8000000101F1F100000101F1F10004F
:1061A0000000000000606000000000000000040427
:1061B00004FCFC000000000000001010101F1F1065
:1061C00010100000000000000000006060000000EF
:1061D00000000000040404FCFC0000000000C0C03B
:1061E0008080C07F3F0000000020E0F00000000041
:1061F000000000000000FFFF80C0F41C0404000049
:1062000000101F1F1100031F1C1010000000202091
:1062100020E0F000000000000000000000FFFF0090
:106220000000000000001010101F1F1010100000D0
:1062300000000000000000000000000004FCFC085A
:1062400004FCFC0804FCFC00101F1F10001F1F10A2
:10625000001F1F10000000000000000000000000F0
:106260000004FCFC08080404FCF8000000101F1FD8
:10627000100000101F1F10000000000000000000B0
:106280000000000000E0F0180C04040C18F0E0001E
:1062900000030F0C101010100C0F03000000000082
:1062A00000000000000000000004FCFC08040404DE
:1062B0000CF8F0000080FFFF889010101C0F030006
:1062C00000000000000000000000000000E0F81CDA
:1062D00004040408F8FC000000030F181010908854
:1062E000FFFF800000000000000000000000000030
:1062F000040404FCFC100804040C0C001010101F13
:106300001F1010100000000000000000000000003E
:106310000000000000003078CCC48484840C1C0091
:1063200000001E1810101011190F060000000000C8
:1063300000C000000000000000040404FFFF04048B
:1063400004000000000000000F1F1010100C0000DF
:106350000000000000000000000000000004FCFE3F
:1063600000000004FCFE000000000F1F18101008C1
:106370001F0F0800000000000000000000000000E7
:1063800000040C3CFCC40000C43C0C0400000000F1
:10639000010F1E0E010000000000000000000000C0
:1063A00000000000043CFCC400E47CFC84807C040D
:1063B0000000071F070000071F0700000000000083
:1063C00000000000000000000004041C7CE4C03455
:1063D0001C0404000010101C1601131F1C181000D0
:1063E00000000000000000000000000000040C3C61
:1063F000FCC400C43C0404000000C080C1370E018E
:10640000000000000000000000000000000000008C
:1064100000001C0404C4F47C1C0400000000101CD8
:106420001F17111010180E0000000000000000F8E7
:106430000C04000000000000001028EF0000000025
:10644000000000000000003F60400000000000006D
:106450000000FF0000000000000000000000FF003E
:1064600000000000000000000000FF00000000002D
:106470000000040CF8000000000000000000000014
:10648000EF28100000000000000040603F00000006
:106490000000000000180602020408102020300846
:1064A00000000000000000000000000000000000EC
:1064B0000000000000000000060909E6F80C0402D4
:1064C00002020202041E0000000000071F302040EC
:1064D00040404040201000004040424458C0407FAF
:1064E00040C05048464040008080402018070000CF
:1064F000003F40404040780000FE424242FE0042E1
:10650000A29E82A2C2BE0000806F080828CF0000B1
:106510002FC8080828CF000002E222223E00809EF9
:106520009292F292929E8000004382423E40474403
:1065300044447F444454E7000000FC242424FC2508
:106540002624FC242424040040308F80844C5525CC
:106550002525554C80808000000000FE82828282CA
:10656000828282FE00000000000000FF40404040A8
:10657000404040FF000000000004FF242424FF04EA
:1065800000FE222222FE000088482F090919AF4888
:10659000300F0242827F0000404042CC0040A09E6B
:1065A0008282829EA02020000000003F908840430D
:1065B0002C10284641808000001715D55557557D71
:1065C000555755D5151700004040407F5555555536
:1065D0005555557F40404000100C4444444445C646
:1065E0004444444444140C008040201E2040407F1A
:1065F000444444444440400000FC848484FC001033
:1066000010101010FF101000003F1010103F00007D
:10661000010640807F00000080828282FE828282AA
:106620008282FE8282828000008040300F00000063
:106630000000FF000000000000001011161010F014
:1066400010101413100000008181414121110D032D
:106650000D1121414181810000FC848484FC0010E3
:1066600010101010FF101000003F1010103F00001D
:10667000010640807F00000000F8010600F01212C1
:1066800012F2020202FE000000FF0000001F1111C2
:10669000111F0040807F00004044C4444444401027
:1066A00010FF101010F00000103C131014B8403010
:1066B0000E014080403F0000008060F80740300F2E
:1066C000F888888888080800010000FF00000000A2
:1066D000FF080808080800008060F80704E4242484
:1066E00024FF242424E404000000FF0080814529C5
:1066F000112F41418181800008CC4A49484ACC1879
:10670000007F88888482E00000FF121252927F008E
:10671000007E88888482E00080908C848484F58662
:1067200084848484948C800000808084464928106E
:10673000102C23408000000080804020504844C33B
:106740004448502040808000004040444444447FFE
:10675000444444444040000000FE0222DA06080897
:10676000F8898E888888080000FF08100887403064
:106770000F004080403F0000101010FF109000F804
:1067800088898E888888F8000444827F8140300F91
:106790000000000000000100404042CC0008488892
:1067A000080808FF080808000040201F204040415A
:1067B0004048504F404040000000FE0282828282EA
:1067C000FA8282828282020080601F404040404004
:1067D0007F404044584040001060028C00446454A4
:1067E0004D46445464C4040004047E0180403E00CD
:1067F00000FE00007E80E00000F80122A0A2A2229C
:10680000FE22AA3202FE000000FF0010130A4B20F5
:10681000170C133880FF0000008060F80704E4A420
:10682000A4BFA4A4E4040000010000FF40407F4A8C
:106830004A4A4A4A7F404000080808F808080810F9
:1068400010FF101010F000001030101F08884830A2
:106850000E014080403F00000014A4442434AD6683
:1068600024940444A414000008090808090909FD37
:1068700009090B080809080000FE225A8600FE924A
:1068800092929292FE00000000FF04080700FF4071
:1068900020030C142241400040504E4848FF484815
:1068A0004840F80000FF000000003E0202FF1222F4
:1068B0001E000F40807F00000000F888888888FF55
:1068C00088888888F800000000001F080808087FF2
:1068D000888888889F80F00008CC4A49484ACC18AC
:1068E000007F88888482E00000FF121252927F00AD
:1068F000007E88888482E0001060028C004454543A
:10690000547F54545444400004047E010000FF1599
:10691000151555957F000000100C05555555857FC0
:106920008555555505140C000404020A09292A4C02
:1069300048A9190202040400000000C08080808081
:10694000808080FC84808080808080C0C0000000C7
:10695000000000FF7F404040404040FF404040403A
:10696000404040FF7F0000000000000000000000E9
:106970000000007F70000000000000000000000028
:10698000000000000000000000000000000000FC0B
:10699000F8000000000000000000000000000000FF
:1069A00000000000FFFE020202020202020202FFD9
:1069B000FF020202020202020202FF0300000000C4
:1069C000000000001F1F040404040404040404FF66
:1069D000FF0404040404040404041F000000000075
:1069E0000000000000000000000000000000007F28
:1069F0003F00000000000000000000000000000058
:106A00000000000000000000000000000000000086
:106A100000000000000000000000000000F8F8F096
:106A2000F0702000000000000000000000000000E6
:106A30000000000000000000000000000000000056
:106A400000000000000000008000000000000000C6
:106A500000000000000000000000000000FFFFFF39
:106A6000FF00000000000000000000000000000027
:106A70000000000080800000000000000000000016
:106A8000000000000000000000FFFFFE06060606F2
:106A900006060606060606060606060606FFFFFFAB
:106AA000FF0606060606060606060606060606068D
:106AB000060606FFFFFFFF070200000000000000BF
:106AC000000000000000000000FFFFFF00000000C9
:106AD00000000000000000000000000000FFFFFFB9
:106AE000FF000000000000000000000000000000A7
:106AF000000000FFFFFFFF0000000000000000009A
:106B0000000000000000000000FFFFFF1818181828
:106B100018181818181818181818181818FFFFFF40
:106B2000FF181818181818181818181818181818FE
:106B3000181818FFFFFFFF00000000000000000011
:106B40000000000000000000020101000000000041
:106B500000000000000000000000000000FFFFFF38
:106B6000FF00000000000000000000000000000026
:106B70000000000101000000000000000000000013
:106B80000000000000000000000000000000000005
:106B900000000000000000000000000000FFFFFFF8
:106BA000FF000000000000000000000000000000E6
:106BB00000000000000000000000000000000000D5
:106BC00000000000000000000000000000000000C5
:106BD000000000000000000000000000001F1F0F68
:106BE0000F00000000000000000000000000000096
:106BF0000000000000000000000000000000000095
:106C0000000001CC01D8001401F0003C002801E490
:106C100001A0006C007801B40050019C0188004480
:106C20008182838485868788898B8C8D8E8F9192D3
:106C300093959697999A9C9D9FA0A2A3A5A7A8AA71
:106C4000ACAEB0B2B3B5B7B9BCBEC0C2C5C7C9CC93
:106C5000CED1D4D7D9DCDFE2E6E9ECF0F3F7FAFEE7
:106C6000806C0008000000203800000004010008CB
:106C7000B86C000838000020600C000020010008FB
:106C80000100000004000000000000000024F400E7
:106C900000000000000000000000000000000000F4
:106CA00000000000000000000000000000000000E4
:086CB0000000000000000000DC
:04000005080000C12E
:00000001FF
