Component: ARM Compiler 5.06 update 7 (build 960) Tool: armlink [4d3601]

==============================================================================

Section Cross References

    startup_stm32g030xx.o(STACK) refers (Special) to heapauxi.o(.text) for __use_two_region_memory
    startup_stm32g030xx.o(HEAP) refers (Special) to heapauxi.o(.text) for __use_two_region_memory
    startup_stm32g030xx.o(RESET) refers (Special) to heapauxi.o(.text) for __use_two_region_memory
    startup_stm32g030xx.o(RESET) refers to startup_stm32g030xx.o(STACK) for __initial_sp
    startup_stm32g030xx.o(RESET) refers to startup_stm32g030xx.o(.text) for Reset_Handler
    startup_stm32g030xx.o(RESET) refers to stm32g0xx_it.o(i.NMI_Handler) for NMI_Handler
    startup_stm32g030xx.o(RESET) refers to stm32g0xx_it.o(i.HardFault_Handler) for HardFault_Handler
    startup_stm32g030xx.o(RESET) refers to stm32g0xx_it.o(i.SVC_Handler) for SVC_Handler
    startup_stm32g030xx.o(RESET) refers to stm32g0xx_it.o(i.PendSV_Handler) for PendSV_Handler
    startup_stm32g030xx.o(RESET) refers to stm32g0xx_it.o(i.SysTick_Handler) for SysTick_Handler
    startup_stm32g030xx.o(RESET) refers to stm32g0xx_it.o(i.TIM1_BRK_UP_TRG_COM_IRQHandler) for TIM1_BRK_UP_TRG_COM_IRQHandler
    startup_stm32g030xx.o(RESET) refers to stm32g0xx_it.o(i.USART2_IRQHandler) for USART2_IRQHandler
    startup_stm32g030xx.o(.text) refers (Special) to heapauxi.o(.text) for __use_two_region_memory
    startup_stm32g030xx.o(.text) refers to system_stm32g0xx.o(i.SystemInit) for SystemInit
    startup_stm32g030xx.o(.text) refers to __main.o(!!!main) for __main
    startup_stm32g030xx.o(.text) refers to startup_stm32g030xx.o(HEAP) for Heap_Mem
    startup_stm32g030xx.o(.text) refers to startup_stm32g030xx.o(STACK) for Stack_Mem
    main.o(i.SystemClock_Config) refers to rt_memclr.o(.text) for __aeabi_memclr4
==============================================================================

Removing Unused input sections from the image.

    Removing main.o(.rev16_text), (4 bytes).
    Removing main.o(.revsh_text), (4 bytes).
    Removing gpio.o(.rev16_text), (4 bytes).
    Removing gpio.o(.revsh_text), (4 bytes).
    Removing tim.o(.rev16_text), (4 bytes).
    Removing tim.o(.revsh_text), (4 bytes).
    Removing tim.o(i.HAL_TIM_Base_MspDeInit), (36 bytes).
    Removing usart.o(.rev16_text), (4 bytes).
    Removing usart.o(.revsh_text), (4 bytes).
    Removing usart.o(i.HAL_UART_MspDeInit), (48 bytes).
    Removing stm32g0xx_it.o(.rev16_text), (4 bytes).
    Removing stm32g0xx_it.o(.revsh_text), (4 bytes).
    Removing stm32g0xx_hal_msp.o(.rev16_text), (4 bytes).
    Removing stm32g0xx_hal_msp.o(.revsh_text), (4 bytes).
    Removing stm32g0xx_hal_tim.o(.rev16_text), (4 bytes).
    Removing stm32g0xx_hal_tim.o(.revsh_text), (4 bytes).
    Removing stm32g0xx_hal_tim.o(i.HAL_TIM_Base_DeInit), (84 bytes).
    Removing stm32g0xx_hal_tim.o(i.HAL_TIM_Base_GetState), (6 bytes).
==============================================================================

Image Symbol Table

    Local Symbols

    Symbol Name                              Value     Ov Type        Size  Object(Section)

    ../Core/Src/gpio.c                       0x00000000   Number         0  gpio.o ABSOLUTE
    ../Core/Src/main.c                       0x00000000   Number         0  main.o ABSOLUTE
    ../Core/Src/stm32g0xx_hal_msp.c          0x00000000   Number         0  stm32g0xx_hal_msp.o ABSOLUTE
    ../Core/Src/stm32g0xx_it.c               0x00000000   Number         0  stm32g0xx_it.o ABSOLUTE
    ../Core/Src/system_stm32g0xx.c           0x00000000   Number         0  system_stm32g0xx.o ABSOLUTE
    ../Core/Src/tim.c                        0x00000000   Number         0  tim.o ABSOLUTE
    ../Core/Src/usart.c                      0x00000000   Number         0  usart.o ABSOLUTE
    ../Drivers/STM32G0xx_HAL_Driver/Src/stm32g0xx_hal.c 0x00000000   Number         0  stm32g0xx_hal.o ABSOLUTE
    ../Drivers/STM32G0xx_HAL_Driver/Src/stm32g0xx_hal_cortex.c 0x00000000   Number         0  stm32g0xx_hal_cortex.o ABSOLUTE
    ../Drivers/STM32G0xx_HAL_Driver/Src/stm32g0xx_hal_dma.c 0x00000000   Number         0  stm32g0xx_hal_dma.o ABSOLUTE
    ../Drivers/STM32G0xx_HAL_Driver/Src/stm32g0xx_hal_dma_ex.c 0x00000000   Number         0  stm32g0xx_hal_dma_ex.o ABSOLUTE
    ../Drivers/STM32G0xx_HAL_Driver/Src/stm32g0xx_hal_exti.c 0x00000000   Number         0  stm32g0xx_hal_exti.o ABSOLUTE
    ../Drivers/STM32G0xx_HAL_Driver/Src/stm32g0xx_hal_flash.c 0x00000000   Number         0  stm32g0xx_hal_flash.o ABSOLUTE
    ../Drivers/STM32G0xx_HAL_Driver/Src/stm32g0xx_hal_flash_ex.c 0x00000000   Number         0  stm32g0xx_hal_flash_ex.o ABSOLUTE
    ../Drivers/STM32G0xx_HAL_Driver/Src/stm32g0xx_hal_gpio.c 0x00000000   Number         0  stm32g0xx_hal_gpio.o ABSOLUTE
    ../Drivers/STM32G0xx_HAL_Driver/Src/stm32g0xx_hal_pwr.c 0x00000000   Number         0  stm32g0xx_hal_pwr.o ABSOLUTE
    ../Drivers/STM32G0xx_HAL_Driver/Src/stm32g0xx_hal_pwr_ex.c 0x00000000   Number         0  stm32g0xx_hal_pwr_ex.o ABSOLUTE
    ../Drivers/STM32G0xx_HAL_Driver/Src/stm32g0xx_hal_rcc.c 0x00000000   Number         0  stm32g0xx_hal_rcc.o ABSOLUTE
    ../Drivers/STM32G0xx_HAL_Driver/Src/stm32g0xx_hal_rcc_ex.c 0x00000000   Number         0  stm32g0xx_hal_rcc_ex.o ABSOLUTE
    ../Drivers/STM32G0xx_HAL_Driver/Src/stm32g0xx_hal_tim.c 0x00000000   Number         0  stm32g0xx_hal_tim.o ABSOLUTE
    ../Drivers/STM32G0xx_HAL_Driver/Src/stm32g0xx_hal_tim_ex.c 0x00000000   Number         0  stm32g0xx_hal_tim_ex.o ABSOLUTE
    ../Drivers/STM32G0xx_HAL_Driver/Src/stm32g0xx_hal_uart.c 0x00000000   Number         0  stm32g0xx_hal_uart.o ABSOLUTE
    ../Drivers/STM32G0xx_HAL_Driver/Src/stm32g0xx_hal_uart_ex.c 0x00000000   Number         0  stm32g0xx_hal_uart_ex.o ABSOLUTE
    ../Drivers/STM32G0xx_HAL_Driver/Src/stm32g0xx_ll_dma.c 0x00000000   Number         0  stm32g0xx_ll_dma.o ABSOLUTE
    ../Drivers/STM32G0xx_HAL_Driver/Src/stm32g0xx_ll_rcc.c 0x00000000   Number         0  stm32g0xx_ll_rcc.o ABSOLUTE
    ../clib/angel/boardlib.s                 0x00000000   Number         0  boardinit3.o ABSOLUTE
    ../clib/angel/boardlib.s                 0x00000000   Number         0  boardinit2.o ABSOLUTE
    ../clib/angel/boardlib.s                 0x00000000   Number         0  boardinit1.o ABSOLUTE
    ../clib/angel/boardlib.s                 0x00000000   Number         0  boardshut.o ABSOLUTE
    ../clib/angel/handlers.s                 0x00000000   Number         0  __scatter_zi.o ABSOLUTE
    ../clib/angel/handlers.s                 0x00000000   Number         0  __scatter_copy.o ABSOLUTE
    ../clib/angel/kernel.s                   0x00000000   Number         0  rtexit.o ABSOLUTE
    ../clib/angel/kernel.s                   0x00000000   Number         0  __rtentry2.o ABSOLUTE
    ../clib/angel/kernel.s                   0x00000000   Number         0  rtexit2.o ABSOLUTE
    ../clib/angel/kernel.s                   0x00000000   Number         0  __rtentry4.o ABSOLUTE
    ../clib/angel/kernel.s                   0x00000000   Number         0  __rtentry.o ABSOLUTE
    ../clib/angel/rt.s                       0x00000000   Number         0  rt_raise.o ABSOLUTE
    ../clib/angel/rt.s                       0x00000000   Number         0  aeabi_idiv0_sigfpe.o ABSOLUTE
    ../clib/angel/rt.s                       0x00000000   Number         0  aeabi_idiv0.o ABSOLUTE
    ../clib/angel/rt.s                       0x00000000   Number         0  rt_div0.o ABSOLUTE
    ../clib/angel/scatterp.s                 0x00000000   Number         0  __scatter.o ABSOLUTE
    ../clib/angel/startup.s                  0x00000000   Number         0  __main.o ABSOLUTE
    ../clib/angel/sys.s                      0x00000000   Number         0  indicate_semi.o ABSOLUTE
    ../clib/angel/sys.s                      0x00000000   Number         0  sys_stackheap_outer.o ABSOLUTE
    ../clib/angel/sys.s                      0x00000000   Number         0  tempstk.o ABSOLUTE
    ../clib/angel/sys.s                      0x00000000   Number         0  use_no_semi.o ABSOLUTE
    ../clib/angel/sys.s                      0x00000000   Number         0  libspace.o ABSOLUTE
    ../clib/angel/sysapp.c                   0x00000000   Number         0  sys_exit.o ABSOLUTE
    ../clib/angel/sysapp.c                   0x00000000   Number         0  sys_command.o ABSOLUTE
    ../clib/angel/sysapp.c                   0x00000000   Number         0  sys_wrch.o ABSOLUTE
    ../clib/armsys.c                         0x00000000   Number         0  argv_veneer.o ABSOLUTE
    ../clib/armsys.c                         0x00000000   Number         0  _get_argv_nomalloc.o ABSOLUTE
    ../clib/armsys.c                         0x00000000   Number         0  no_argv.o ABSOLUTE
    ../clib/division.s                       0x00000000   Number         0  aeabi_sdiv_div0.o ABSOLUTE
    ../clib/division.s                       0x00000000   Number         0  aeabi_sdiv.o ABSOLUTE
    ../clib/heapalloc.c                      0x00000000   Number         0  hrguard.o ABSOLUTE
    ../clib/heapaux.c                        0x00000000   Number         0  heapauxi.o ABSOLUTE
    ../clib/libinit.s                        0x00000000   Number         0  libshutdown.o ABSOLUTE
    ../clib/libinit.s                        0x00000000   Number         0  libinit2.o ABSOLUTE
    ../clib/libinit.s                        0x00000000   Number         0  libinit.o ABSOLUTE
    ../clib/libinit.s                        0x00000000   Number         0  libshutdown2.o ABSOLUTE
    ../clib/memcpset.c                       0x00000000   Number         0  rt_memclr.o ABSOLUTE
    ../clib/memcpset.c                       0x00000000   Number         0  rt_memcpy.o ABSOLUTE
    ../clib/memcpset.c                       0x00000000   Number         0  rt_memcpy.o ABSOLUTE
    ../clib/signal.c                         0x00000000   Number         0  defsig_fpe_inner.o ABSOLUTE
    ../clib/signal.c                         0x00000000   Number         0  defsig_exit.o ABSOLUTE
    ../clib/signal.c                         0x00000000   Number         0  defsig_abrt_inner.o ABSOLUTE
    ../clib/signal.c                         0x00000000   Number         0  __raise.o ABSOLUTE
    ../clib/signal.c                         0x00000000   Number         0  defsig_other.o ABSOLUTE
    ../clib/signal.c                         0x00000000   Number         0  defsig_fpe_outer.o ABSOLUTE
    ../clib/signal.c                         0x00000000   Number         0  defsig_rtmem_outer.o ABSOLUTE
    ../clib/signal.c                         0x00000000   Number         0  defsig_rtmem_formal.o ABSOLUTE
    ../clib/signal.c                         0x00000000   Number         0  defsig_fpe_formal.o ABSOLUTE
    ../clib/signal.c                         0x00000000   Number         0  defsig_stak_inner.o ABSOLUTE
    ../clib/signal.c                         0x00000000   Number         0  defsig_pvfn_inner.o ABSOLUTE
    ../clib/signal.c                         0x00000000   Number         0  defsig_cppl_inner.o ABSOLUTE
    ../clib/signal.c                         0x00000000   Number         0  defsig_segv_inner.o ABSOLUTE
    ../clib/signal.c                         0x00000000   Number         0  defsig_general.o ABSOLUTE
    ../clib/signal.c                         0x00000000   Number         0  defsig_rtred_inner.o ABSOLUTE
    ../clib/signal.c                         0x00000000   Number         0  defsig_rtmem_inner.o ABSOLUTE
    ../clib/signal.s                         0x00000000   Number         0  defsig.o ABSOLUTE
    ../clib/stdlib.c                         0x00000000   Number         0  exit.o ABSOLUTE
    ../fplib/cfplib/fdiv.c                   0x00000000   Number         0  fdiv.o ABSOLUTE
    ../fplib/cfplib/ffix.c                   0x00000000   Number         0  ffixui.o ABSOLUTE
    ../fplib/cfplib/fflt.c                   0x00000000   Number         0  fflti.o ABSOLUTE
    ../fplib/cfplib/fpinit.c                 0x00000000   Number         0  fpinit.o ABSOLUTE
    ../fplib/usenofp.s                       0x00000000   Number         0  usenofp.o ABSOLUTE
    ..\Core\Src\gpio.c                       0x00000000   Number         0  gpio.o ABSOLUTE
    ..\Core\Src\main.c                       0x00000000   Number         0  main.o ABSOLUTE
    ..\Core\Src\stm32g0xx_hal_msp.c          0x00000000   Number         0  stm32g0xx_hal_msp.o ABSOLUTE
    ..\Core\Src\stm32g0xx_it.c               0x00000000   Number         0  stm32g0xx_it.o ABSOLUTE
    ..\Core\Src\system_stm32g0xx.c           0x00000000   Number         0  system_stm32g0xx.o ABSOLUTE
    ..\Core\Src\tim.c                        0x00000000   Number         0  tim.o ABSOLUTE
    ..\Core\Src\usart.c                      0x00000000   Number         0  usart.o ABSOLUTE
    ..\Drivers\STM32G0xx_HAL_Driver\Src\stm32g0xx_hal.c 0x00000000   Number         0  stm32g0xx_hal.o ABSOLUTE
    ..\Drivers\STM32G0xx_HAL_Driver\Src\stm32g0xx_hal_cortex.c 0x00000000   Number         0  stm32g0xx_hal_cortex.o ABSOLUTE
    ..\Drivers\STM32G0xx_HAL_Driver\Src\stm32g0xx_hal_dma.c 0x00000000   Number         0  stm32g0xx_hal_dma.o ABSOLUTE
    ..\Drivers\STM32G0xx_HAL_Driver\Src\stm32g0xx_hal_dma_ex.c 0x00000000   Number         0  stm32g0xx_hal_dma_ex.o ABSOLUTE
    ..\Drivers\STM32G0xx_HAL_Driver\Src\stm32g0xx_hal_exti.c 0x00000000   Number         0  stm32g0xx_hal_exti.o ABSOLUTE
    ..\Drivers\STM32G0xx_HAL_Driver\Src\stm32g0xx_hal_flash.c 0x00000000   Number         0  stm32g0xx_hal_flash.o ABSOLUTE
    ..\Drivers\STM32G0xx_HAL_Driver\Src\stm32g0xx_hal_flash_ex.c 0x00000000   Number         0  stm32g0xx_hal_flash_ex.o ABSOLUTE
    ..\Drivers\STM32G0xx_HAL_Driver\Src\stm32g0xx_hal_gpio.c 0x00000000   Number         0  stm32g0xx_hal_gpio.o ABSOLUTE
    ..\Drivers\STM32G0xx_HAL_Driver\Src\stm32g0xx_hal_pwr.c 0x00000000   Number         0  stm32g0xx_hal_pwr.o ABSOLUTE
    ..\Drivers\STM32G0xx_HAL_Driver\Src\stm32g0xx_hal_pwr_ex.c 0x00000000   Number         0  stm32g0xx_hal_pwr_ex.o ABSOLUTE
    ..\Drivers\STM32G0xx_HAL_Driver\Src\stm32g0xx_hal_rcc.c 0x00000000   Number         0  stm32g0xx_hal_rcc.o ABSOLUTE
    ..\Drivers\STM32G0xx_HAL_Driver\Src\stm32g0xx_hal_rcc_ex.c 0x00000000   Number         0  stm32g0xx_hal_rcc_ex.o ABSOLUTE
    ..\Drivers\STM32G0xx_HAL_Driver\Src\stm32g0xx_hal_tim.c 0x00000000   Number         0  stm32g0xx_hal_tim.o ABSOLUTE
    ..\Drivers\STM32G0xx_HAL_Driver\Src\stm32g0xx_hal_tim_ex.c 0x00000000   Number         0  stm32g0xx_hal_tim_ex.o ABSOLUTE
    ..\Drivers\STM32G0xx_HAL_Driver\Src\stm32g0xx_hal_uart.c 0x00000000   Number         0  stm32g0xx_hal_uart.o ABSOLUTE
    ..\Drivers\STM32G0xx_HAL_Driver\Src\stm32g0xx_hal_uart_ex.c 0x00000000   Number         0  stm32g0xx_hal_uart_ex.o ABSOLUTE
    ..\User\app\api_display.c                0x00000000   Number         0  api_display.o ABSOLUTE
    ..\User\app\api_hard.c                   0x00000000   Number         0  api_hard.o ABSOLUTE
    ..\User\app\api_key.c                    0x00000000   Number         0  api_key.o ABSOLUTE
    ..\User\app\api_task.c                   0x00000000   Number         0  api_task.o ABSOLUTE
    ..\User\bsp\bsp_ds1302.c                 0x00000000   Number         0  bsp_ds1302.o ABSOLUTE
    ..\User\bsp\bsp_iic.c                    0x00000000   Number         0  bsp_iic.o ABSOLUTE
    ..\User\bsp\bsp_io.c                     0x00000000   Number         0  bsp_io.o ABSOLUTE
    ..\User\bsp\bsp_usart.c                  0x00000000   Number         0  bsp_usart.o ABSOLUTE
    ..\User\main_user.c                      0x00000000   Number         0  main_user.o ABSOLUTE
    ..\User\moudle\PZEM004T\PZEM004T.c       0x00000000   Number         0  pzem004t.o ABSOLUTE
    ..\User\moudle\bh1750\bh1750.c           0x00000000   Number         0  bh1750.o ABSOLUTE
    ..\User\moudle\dht11\dht11.c             0x00000000   Number         0  dht11.o ABSOLUTE
    ..\User\moudle\oled\oled.c               0x00000000   Number         0  oled.o ABSOLUTE
    ..\\User\\app\\api_display.c             0x00000000   Number         0  api_display.o ABSOLUTE
    ..\\User\\app\\api_hard.c                0x00000000   Number         0  api_hard.o ABSOLUTE
    ..\\User\\app\\api_key.c                 0x00000000   Number         0  api_key.o ABSOLUTE
    ..\\User\\app\\api_task.c                0x00000000   Number         0  api_task.o ABSOLUTE
    ..\\User\\bsp\\bsp_ds1302.c              0x00000000   Number         0  bsp_ds1302.o ABSOLUTE
    ..\\User\\bsp\\bsp_iic.c                 0x00000000   Number         0  bsp_iic.o ABSOLUTE
    ..\\User\\bsp\\bsp_io.c                  0x00000000   Number         0  bsp_io.o ABSOLUTE
    ..\\User\\bsp\\bsp_usart.c               0x00000000   Number         0  bsp_usart.o ABSOLUTE
    ..\\User\\main_user.c                    0x00000000   Number         0  main_user.o ABSOLUTE
    ..\\User\\moudle\\PZEM004T\\PZEM004T.c   0x00000000   Number         0  pzem004t.o ABSOLUTE
    ..\\User\\moudle\\bh1750\\bh1750.c       0x00000000   Number         0  bh1750.o ABSOLUTE
    ..\\User\\moudle\\dht11\\dht11.c         0x00000000   Number         0  dht11.o ABSOLUTE
    ..\\User\\moudle\\oled\\oled.c           0x00000000   Number         0  oled.o ABSOLUTE
    dc.s                                     0x00000000   Number         0  dc.o ABSOLUTE
    startup_stm32g030xx.s                    0x00000000   Number         0  startup_stm32g030xx.o ABSOLUTE
    RESET                                    0x08000000   Section      192  startup_stm32g030xx.o(RESET)
    !!!main                                  0x080000c0   Section        8  __main.o(!!!main)
    !!!scatter                               0x080000c8   Section       60  __scatter.o(!!!scatter)
    !!handler_copy                           0x08000104   Section       26  __scatter_copy.o(!!handler_copy)
    !!handler_zi                             0x08000120   Section       28  __scatter_zi.o(!!handler_zi)
    .ARM.Collect$$libinit$$00000000          0x0800013c   Section        2  libinit.o(.ARM.Collect$$libinit$$00000000)
    .ARM.Collect$$libinit$$00000002          0x0800013e   Section        0  libinit2.o(.ARM.Collect$$libinit$$00000002)
    .ARM.Collect$$libinit$$00000004          0x0800013e   Section        0  libinit2.o(.ARM.Collect$$libinit$$00000004)
    .ARM.Collect$$libinit$$0000000A          0x0800013e   Section        0  libinit2.o(.ARM.Collect$$libinit$$0000000A)
    .ARM.Collect$$libinit$$0000000C          0x0800013e   Section        0  libinit2.o(.ARM.Collect$$libinit$$0000000C)
    .ARM.Collect$$libinit$$0000000E          0x0800013e   Section        0  libinit2.o(.ARM.Collect$$libinit$$0000000E)
    .ARM.Collect$$libinit$$00000011          0x0800013e   Section        0  libinit2.o(.ARM.Collect$$libinit$$00000011)
    .ARM.Collect$$libinit$$00000013          0x0800013e   Section        0  libinit2.o(.ARM.Collect$$libinit$$00000013)
    .ARM.Collect$$libinit$$00000015          0x0800013e   Section        0  libinit2.o(.ARM.Collect$$libinit$$00000015)
    .ARM.Collect$$libinit$$00000017          0x0800013e   Section        0  libinit2.o(.ARM.Collect$$libinit$$00000017)
    .ARM.Collect$$libinit$$00000019          0x0800013e   Section        0  libinit2.o(.ARM.Collect$$libinit$$00000019)
    .ARM.Collect$$libinit$$0000001B          0x0800013e   Section        0  libinit2.o(.ARM.Collect$$libinit$$0000001B)
    .ARM.Collect$$libinit$$0000001D          0x0800013e   Section        0  libinit2.o(.ARM.Collect$$libinit$$0000001D)
    .ARM.Collect$$libinit$$0000001F          0x0800013e   Section        0  libinit2.o(.ARM.Collect$$libinit$$0000001F)
    .ARM.Collect$$libinit$$00000021          0x0800013e   Section        0  libinit2.o(.ARM.Collect$$libinit$$00000021)
    .ARM.Collect$$libinit$$00000023          0x0800013e   Section        0  libinit2.o(.ARM.Collect$$libinit$$00000023)
    .ARM.Collect$$libinit$$00000025          0x0800013e   Section        0  libinit2.o(.ARM.Collect$$libinit$$00000025)
    .ARM.Collect$$libinit$$0000002C          0x0800013e   Section        0  libinit2.o(.ARM.Collect$$libinit$$0000002C)
    .ARM.Collect$$libinit$$0000002E          0x0800013e   Section        0  libinit2.o(.ARM.Collect$$libinit$$0000002E)
    .ARM.Collect$$libinit$$00000030          0x0800013e   Section        0  libinit2.o(.ARM.Collect$$libinit$$00000030)
    .ARM.Collect$$libinit$$00000032          0x0800013e   Section        0  libinit2.o(.ARM.Collect$$libinit$$00000032)
    .ARM.Collect$$libinit$$00000033          0x0800013e   Section        2  libinit2.o(.ARM.Collect$$libinit$$00000033)
    .ARM.Collect$$libshutdown$$00000000      0x08000140   Section        2  libshutdown.o(.ARM.Collect$$libshutdown$$00000000)
    .ARM.Collect$$libshutdown$$00000002      0x08000142   Section        0  libshutdown2.o(.ARM.Collect$$libshutdown$$00000002)
    .ARM.Collect$$libshutdown$$00000004      0x08000142   Section        0  libshutdown2.o(.ARM.Collect$$libshutdown$$00000004)
    .ARM.Collect$$libshutdown$$00000006      0x08000142   Section        0  libshutdown2.o(.ARM.Collect$$libshutdown$$00000006)
    .ARM.Collect$$libshutdown$$00000009      0x08000142   Section        0  libshutdown2.o(.ARM.Collect$$libshutdown$$00000009)
    .ARM.Collect$$libshutdown$$0000000C      0x08000142   Section        0  libshutdown2.o(.ARM.Collect$$libshutdown$$0000000C)
    .ARM.Collect$$libshutdown$$0000000E      0x08000142   Section        0  libshutdown2.o(.ARM.Collect$$libshutdown$$0000000E)
    .ARM.Collect$$libshutdown$$00000011      0x08000142   Section        0  libshutdown2.o(.ARM.Collect$$libshutdown$$00000011)
    .ARM.Collect$$libshutdown$$00000012      0x08000142   Section        2  libshutdown2.o(.ARM.Collect$$libshutdown$$00000012)
    .ARM.Collect$$rtentry$$00000000          0x08000144   Section        0  __rtentry.o(.ARM.Collect$$rtentry$$00000000)
    .ARM.Collect$$rtentry$$00000002          0x08000144   Section        0  __rtentry2.o(.ARM.Collect$$rtentry$$00000002)
    .ARM.Collect$$rtentry$$00000004          0x08000144   Section        6  __rtentry4.o(.ARM.Collect$$rtentry$$00000004)
    .ARM.Collect$$rtentry$$00000009          0x0800014a   Section        0  __rtentry2.o(.ARM.Collect$$rtentry$$00000009)
    .ARM.Collect$$rtentry$$0000000A          0x0800014a   Section        4  __rtentry2.o(.ARM.Collect$$rtentry$$0000000A)
    .ARM.Collect$$rtentry$$0000000C          0x0800014e   Section        0  __rtentry2.o(.ARM.Collect$$rtentry$$0000000C)
    .ARM.Collect$$rtentry$$0000000D          0x0800014e   Section        8  __rtentry2.o(.ARM.Collect$$rtentry$$0000000D)
    .ARM.Collect$$rtexit$$00000000           0x08000156   Section        2  rtexit.o(.ARM.Collect$$rtexit$$00000000)
    .ARM.Collect$$rtexit$$00000002           0x08000158   Section        0  rtexit2.o(.ARM.Collect$$rtexit$$00000002)
    .ARM.Collect$$rtexit$$00000003           0x08000158   Section        4  rtexit2.o(.ARM.Collect$$rtexit$$00000003)
    .ARM.Collect$$rtexit$$00000004           0x0800015c   Section        6  rtexit2.o(.ARM.Collect$$rtexit$$00000004)
    .emb_text                                0x08000164   Section       56  rt_memcpy.o(.emb_text)
    .text                                    0x0800019c   Section       56  startup_stm32g030xx.o(.text)
    .text                                    0x080001d4   Section        0  rt_memcpy.o(.text)
    .text                                    0x08000256   Section        0  rt_memclr.o(.text)
    .text                                    0x08000296   Section      346  aeabi_sdiv.o(.text)
    .text                                    0x080003f0   Section        0  heapauxi.o(.text)
    .text                                    0x080003f8   Section        0  fdiv.o(.text)
    .text                                    0x08000558   Section        0  ffixui.o(.text)
    .text                                    0x08000588   Section        0  fflti.o(.text)
    .text                                    0x080005e6   Section       62  sys_stackheap_outer.o(.text)
    .text                                    0x08000624   Section        0  exit.o(.text)
    .text                                    0x08000634   Section        8  libspace.o(.text)
    .text                                    0x0800063c   Section        0  sys_exit.o(.text)
    .text                                    0x08000648   Section        2  use_no_semi.o(.text)
    .text                                    0x0800064a   Section        0  indicate_semi.o(.text)
    i.BH1750_Byte_Write                      0x0800064a   Section        0  bh1750.o(i.BH1750_Byte_Write)
    i.BH1750_Init                            0x0800067e   Section        0  bh1750.o(i.BH1750_Init)
    i.BH1750_Read_Measure                    0x0800069a   Section        0  bh1750.o(i.BH1750_Read_Measure)
    i.DHT11_Check                            0x080006d0   Section        0  dht11.o(i.DHT11_Check)
    i.DHT11_Init                             0x08000734   Section        0  dht11.o(i.DHT11_Init)
    i.DHT11_RST                              0x08000740   Section        0  dht11.o(i.DHT11_RST)
    i.DHT11_Read_Bit                         0x08000770   Section        0  dht11.o(i.DHT11_Read_Bit)
    i.DHT11_Read_Byte                        0x080007d8   Section        0  dht11.o(i.DHT11_Read_Byte)
    i.DHT11_Read_Data                        0x08000804   Section        0  dht11.o(i.DHT11_Read_Data)
    i.Error_Handler                          0x0800084c   Section        0  main.o(i.Error_Handler)
    i.HAL_DMA_Abort                          0x08000850   Section        0  stm32g0xx_hal_dma.o(i.HAL_DMA_Abort)
    i.HAL_DMA_Abort_IT                       0x080008c4   Section        0  stm32g0xx_hal_dma.o(i.HAL_DMA_Abort_IT)
    i.HAL_Delay                              0x08000940   Section        0  stm32g0xx_hal.o(i.HAL_Delay)
    i.HAL_GPIO_Init                          0x08000964   Section        0  stm32g0xx_hal_gpio.o(i.HAL_GPIO_Init)
    i.HAL_GPIO_ReadPin                       0x08000ac0   Section        0  stm32g0xx_hal_gpio.o(i.HAL_GPIO_ReadPin)
    i.HAL_GPIO_WritePin                      0x08000aca   Section        0  stm32g0xx_hal_gpio.o(i.HAL_GPIO_WritePin)
    i.HAL_GetTick                            0x08000ad8   Section        0  stm32g0xx_hal.o(i.HAL_GetTick)
    i.HAL_IncTick                            0x08000ae4   Section        0  stm32g0xx_hal.o(i.HAL_IncTick)
    i.HAL_Init                               0x08000af4   Section        0  stm32g0xx_hal.o(i.HAL_Init)
    i.HAL_InitTick                           0x08000b1c   Section        0  stm32g0xx_hal.o(i.HAL_InitTick)
    i.HAL_MspInit                            0x08000b64   Section        0  stm32g0xx_hal_msp.o(i.HAL_MspInit)
    i.HAL_NVIC_EnableIRQ                     0x08000b90   Section        0  stm32g0xx_hal_cortex.o(i.HAL_NVIC_EnableIRQ)
    i.HAL_NVIC_SetPriority                   0x08000ba8   Section        0  stm32g0xx_hal_cortex.o(i.HAL_NVIC_SetPriority)
    i.HAL_PWREx_ControlVoltageScaling        0x08000bb0   Section        0  stm32g0xx_hal_pwr_ex.o(i.HAL_PWREx_ControlVoltageScaling)
    i.HAL_RCC_ClockConfig                    0x08000bfc   Section        0  stm32g0xx_hal_rcc.o(i.HAL_RCC_ClockConfig)
    i.HAL_RCC_GetPCLK1Freq                   0x08000d54   Section        0  stm32g0xx_hal_rcc.o(i.HAL_RCC_GetPCLK1Freq)
    i.HAL_RCC_GetSysClockFreq                0x08000d7c   Section        0  stm32g0xx_hal_rcc.o(i.HAL_RCC_GetSysClockFreq)
    i.HAL_RCC_OscConfig                      0x08000e08   Section        0  stm32g0xx_hal_rcc.o(i.HAL_RCC_OscConfig)
    i.HAL_SYSTICK_Config                     0x080011e0   Section        0  stm32g0xx_hal_cortex.o(i.HAL_SYSTICK_Config)
    i.HAL_TIMEx_Break2Callback               0x08001210   Section        0  stm32g0xx_hal_tim_ex.o(i.HAL_TIMEx_Break2Callback)
    i.HAL_TIMEx_BreakCallback                0x08001212   Section        0  stm32g0xx_hal_tim_ex.o(i.HAL_TIMEx_BreakCallback)
    i.HAL_TIMEx_CommutCallback               0x08001214   Section        0  stm32g0xx_hal_tim_ex.o(i.HAL_TIMEx_CommutCallback)
    i.HAL_TIMEx_MasterConfigSynchronization  0x08001218   Section        0  stm32g0xx_hal_tim_ex.o(i.HAL_TIMEx_MasterConfigSynchronization)
    i.HAL_TIM_Base_Init                      0x0800127c   Section        0  stm32g0xx_hal_tim.o(i.HAL_TIM_Base_Init)
    i.HAL_TIM_Base_MspInit                   0x080012c8   Section        0  tim.o(i.HAL_TIM_Base_MspInit)
    i.HAL_TIM_Base_Start_IT                  0x080012fc   Section        0  stm32g0xx_hal_tim.o(i.HAL_TIM_Base_Start_IT)
    i.HAL_TIM_ConfigClockSource              0x0800134c   Section        0  stm32g0xx_hal_tim.o(i.HAL_TIM_ConfigClockSource)
    i.HAL_TIM_IC_CaptureCallback             0x0800142c   Section        0  stm32g0xx_hal_tim.o(i.HAL_TIM_IC_CaptureCallback)
    i.HAL_TIM_IRQHandler                     0x08001430   Section        0  stm32g0xx_hal_tim.o(i.HAL_TIM_IRQHandler)
    i.HAL_TIM_OC_DelayElapsedCallback        0x08001578   Section        0  stm32g0xx_hal_tim.o(i.HAL_TIM_OC_DelayElapsedCallback)
    i.HAL_TIM_PWM_PulseFinishedCallback      0x0800157a   Section        0  stm32g0xx_hal_tim.o(i.HAL_TIM_PWM_PulseFinishedCallback)
    i.HAL_TIM_PeriodElapsedCallback          0x0800157c   Section        0  main_user.o(i.HAL_TIM_PeriodElapsedCallback)
    i.HAL_TIM_TriggerCallback                0x08001608   Section        0  stm32g0xx_hal_tim.o(i.HAL_TIM_TriggerCallback)
    i.HAL_UARTEx_RxEventCallback             0x0800160a   Section        0  stm32g0xx_hal_uart.o(i.HAL_UARTEx_RxEventCallback)
    i.HAL_UARTEx_RxFifoFullCallback          0x0800160c   Section        0  stm32g0xx_hal_uart_ex.o(i.HAL_UARTEx_RxFifoFullCallback)
    i.HAL_UARTEx_TxFifoEmptyCallback         0x0800160e   Section        0  stm32g0xx_hal_uart_ex.o(i.HAL_UARTEx_TxFifoEmptyCallback)
    i.HAL_UARTEx_WakeupCallback              0x08001610   Section        0  stm32g0xx_hal_uart_ex.o(i.HAL_UARTEx_WakeupCallback)
    i.HAL_UART_ErrorCallback                 0x08001612   Section        0  stm32g0xx_hal_uart.o(i.HAL_UART_ErrorCallback)
    i.HAL_UART_IRQHandler                    0x08001614   Section        0  stm32g0xx_hal_uart.o(i.HAL_UART_IRQHandler)
    i.HAL_UART_Init                          0x08001904   Section        0  stm32g0xx_hal_uart.o(i.HAL_UART_Init)
    i.HAL_UART_MspInit                       0x08001970   Section        0  usart.o(i.HAL_UART_MspInit)
    i.HAL_UART_Receive_IT                    0x080019dc   Section        0  stm32g0xx_hal_uart.o(i.HAL_UART_Receive_IT)
    i.HAL_UART_RxCpltCallback                0x08001a34   Section        0  main_user.o(i.HAL_UART_RxCpltCallback)
    i.HAL_UART_Transmit                      0x08001a44   Section        0  stm32g0xx_hal_uart.o(i.HAL_UART_Transmit)
    i.HAL_UART_TxCpltCallback                0x08001b12   Section        0  stm32g0xx_hal_uart.o(i.HAL_UART_TxCpltCallback)
    i.HardFault_Handler                      0x08001b14   Section        0  stm32g0xx_it.o(i.HardFault_Handler)
    i.IsKey1Down                             0x08001b18   Section        0  api_key.o(i.IsKey1Down)
    i.IsKey2Down                             0x08001b28   Section        0  api_key.o(i.IsKey2Down)
    i.IsKey3Down                             0x08001b38   Section        0  api_key.o(i.IsKey3Down)
    i.IsKey4Down                             0x08001b48   Section        0  api_key.o(i.IsKey4Down)
    i.IsKey5Down                             0x08001b54   Section        0  api_key.o(i.IsKey5Down)
    i.KeyDetect                              0x08001b64   Section        0  api_key.o(i.KeyDetect)
    KeyDetect                                0x08001b65   Thumb Code   170  api_key.o(i.KeyDetect)
    i.KeyValInit                             0x08001c14   Section        0  api_key.o(i.KeyValInit)
    KeyValInit                               0x08001c15   Thumb Code    60  api_key.o(i.KeyValInit)
    i.LIght_Intensity                        0x08001c68   Section        0  bh1750.o(i.LIght_Intensity)
    i.MX_GPIO_Init                           0x08001c80   Section        0  gpio.o(i.MX_GPIO_Init)
    i.MX_TIM1_Init                           0x08001da0   Section        0  tim.o(i.MX_TIM1_Init)
    i.MX_USART2_UART_Init                    0x08001e14   Section        0  usart.o(i.MX_USART2_UART_Init)
    i.NMI_Handler                            0x08001e50   Section        0  stm32g0xx_it.o(i.NMI_Handler)
    i.OLED_Clear                             0x08001e54   Section        0  oled.o(i.OLED_Clear)
    i.OLED_DrawPoint                         0x08001e80   Section        0  oled.o(i.OLED_DrawPoint)
    i.OLED_Init                              0x08001eb0   Section        0  oled.o(i.OLED_Init)
    i.OLED_Pow                               0x08001f88   Section        0  oled.o(i.OLED_Pow)
    i.OLED_Refresh                           0x08001f9c   Section        0  oled.o(i.OLED_Refresh)
    i.OLED_ShowChar                          0x0800200c   Section        0  oled.o(i.OLED_ShowChar)
    i.OLED_ShowChinese                       0x080020f0   Section        0  oled.o(i.OLED_ShowChinese)
    i.OLED_ShowNum                           0x080021b0   Section        0  oled.o(i.OLED_ShowNum)
    i.OLED_ShowString                        0x0800221a   Section        0  oled.o(i.OLED_ShowString)
    i.PZEM004T_EnergyClear                   0x08002254   Section        0  pzem004t.o(i.PZEM004T_EnergyClear)
    i.PZEM004T_ISR                           0x08002288   Section        0  pzem004t.o(i.PZEM004T_ISR)
    i.PZEM004T_MeaCal                        0x080022fc   Section        0  pzem004t.o(i.PZEM004T_MeaCal)
    i.PZEM004T_ReadMeasValue                 0x08002350   Section        0  pzem004t.o(i.PZEM004T_ReadMeasValue)
    i.PZEM004T_ResCheck                      0x0800238c   Section        0  pzem004t.o(i.PZEM004T_ResCheck)
    i.PendSV_Handler                         0x080023b0   Section        0  stm32g0xx_it.o(i.PendSV_Handler)
    i.SVC_Handler                            0x080023b2   Section        0  stm32g0xx_it.o(i.SVC_Handler)
    i.SysTick_Handler                        0x080023b4   Section        0  stm32g0xx_it.o(i.SysTick_Handler)
    i.SystemClock_Config                     0x080023bc   Section        0  main.o(i.SystemClock_Config)
    i.SystemInit                             0x08002424   Section        0  system_stm32g0xx.o(i.SystemInit)
    i.TIM1_BRK_UP_TRG_COM_IRQHandler         0x08002428   Section        0  stm32g0xx_it.o(i.TIM1_BRK_UP_TRG_COM_IRQHandler)
    i.TIM_Base_SetConfig                     0x08002438   Section        0  stm32g0xx_hal_tim.o(i.TIM_Base_SetConfig)
    i.TIM_ETR_SetConfig                      0x080024c0   Section        0  stm32g0xx_hal_tim.o(i.TIM_ETR_SetConfig)
    i.TIM_ITRx_SetConfig                     0x080024d8   Section        0  stm32g0xx_hal_tim.o(i.TIM_ITRx_SetConfig)
    TIM_ITRx_SetConfig                       0x080024d9   Thumb Code    16  stm32g0xx_hal_tim.o(i.TIM_ITRx_SetConfig)
    i.TIM_TI1_ConfigInputStage               0x080024ec   Section        0  stm32g0xx_hal_tim.o(i.TIM_TI1_ConfigInputStage)
    TIM_TI1_ConfigInputStage                 0x080024ed   Thumb Code    34  stm32g0xx_hal_tim.o(i.TIM_TI1_ConfigInputStage)
    i.TIM_TI2_ConfigInputStage               0x0800250e   Section        0  stm32g0xx_hal_tim.o(i.TIM_TI2_ConfigInputStage)
    TIM_TI2_ConfigInputStage                 0x0800250f   Thumb Code    38  stm32g0xx_hal_tim.o(i.TIM_TI2_ConfigInputStage)
    i.UART_AdvFeatureConfig                  0x08002534   Section        0  stm32g0xx_hal_uart.o(i.UART_AdvFeatureConfig)
    i.UART_CheckIdleState                    0x08002600   Section        0  stm32g0xx_hal_uart.o(i.UART_CheckIdleState)
    i.UART_DMAAbortOnError                   0x080026b8   Section        0  stm32g0xx_hal_uart.o(i.UART_DMAAbortOnError)
    UART_DMAAbortOnError                     0x080026b9   Thumb Code    20  stm32g0xx_hal_uart.o(i.UART_DMAAbortOnError)
    i.UART_EndRxTransfer                     0x080026cc   Section        0  stm32g0xx_hal_uart.o(i.UART_EndRxTransfer)
    UART_EndRxTransfer                       0x080026cd   Thumb Code    96  stm32g0xx_hal_uart.o(i.UART_EndRxTransfer)
    i.UART_RxISR_16BIT                       0x08002730   Section        0  stm32g0xx_hal_uart.o(i.UART_RxISR_16BIT)
    UART_RxISR_16BIT                         0x08002731   Thumb Code   206  stm32g0xx_hal_uart.o(i.UART_RxISR_16BIT)
    i.UART_RxISR_16BIT_FIFOEN                0x08002800   Section        0  stm32g0xx_hal_uart.o(i.UART_RxISR_16BIT_FIFOEN)
    UART_RxISR_16BIT_FIFOEN                  0x08002801   Thumb Code   426  stm32g0xx_hal_uart.o(i.UART_RxISR_16BIT_FIFOEN)
    i.UART_RxISR_8BIT                        0x080029b4   Section        0  stm32g0xx_hal_uart.o(i.UART_RxISR_8BIT)
    UART_RxISR_8BIT                          0x080029b5   Thumb Code   206  stm32g0xx_hal_uart.o(i.UART_RxISR_8BIT)
    i.UART_RxISR_8BIT_FIFOEN                 0x08002a84   Section        0  stm32g0xx_hal_uart.o(i.UART_RxISR_8BIT_FIFOEN)
    UART_RxISR_8BIT_FIFOEN                   0x08002a85   Thumb Code   426  stm32g0xx_hal_uart.o(i.UART_RxISR_8BIT_FIFOEN)
    i.UART_SetConfig                         0x08002c38   Section        0  stm32g0xx_hal_uart.o(i.UART_SetConfig)
    i.UART_Start_Receive_IT                  0x08002da0   Section        0  stm32g0xx_hal_uart.o(i.UART_Start_Receive_IT)
    i.UART_WaitOnFlagUntilTimeout            0x08002ecc   Section        0  stm32g0xx_hal_uart.o(i.UART_WaitOnFlagUntilTimeout)
    i.USART2_IRQHandler                      0x08002f5c   Section        0  stm32g0xx_it.o(i.USART2_IRQHandler)
    i.__ARM_common_switch8                   0x08002f6c   Section        0  stm32g0xx_hal_tim.o(i.__ARM_common_switch8)
    i.__NVIC_SetPriority                     0x08002f88   Section        0  stm32g0xx_hal_cortex.o(i.__NVIC_SetPriority)
    __NVIC_SetPriority                       0x08002f89   Thumb Code    60  stm32g0xx_hal_cortex.o(i.__NVIC_SetPriority)
    i.api_energy_clr_task                    0x08002fcc   Section        0  api_task.o(i.api_energy_clr_task)
    i.api_hard_init                          0x08002fe4   Section        0  api_hard.o(i.api_hard_init)
    i.api_hard_load                          0x08002ff4   Section        0  api_hard.o(i.api_hard_load)
    i.api_hard_read                          0x08003034   Section        0  api_hard.o(i.api_hard_read)
    i.api_key_clear                          0x080030c8   Section        0  api_key.o(i.api_key_clear)
    i.api_key_get                            0x080030d8   Section        0  api_key.o(i.api_key_get)
    i.api_key_init                           0x08003100   Section        0  api_key.o(i.api_key_init)
    i.api_key_page1_task                     0x0800310c   Section        0  api_display.o(i.api_key_page1_task)
    i.api_key_page2_task                     0x08003174   Section        0  api_display.o(i.api_key_page2_task)
    i.api_key_page3_task                     0x080031dc   Section        0  api_display.o(i.api_key_page3_task)
    i.api_key_page_safe_task                 0x08003288   Section        0  api_display.o(i.api_key_page_safe_task)
    i.api_key_page_settime_task              0x08003360   Section        0  api_display.o(i.api_key_page_settime_task)
    i.api_key_page_timing1_task              0x080034c8   Section        0  api_display.o(i.api_key_page_timing1_task)
    i.api_key_page_timing2_task              0x0800359c   Section        0  api_display.o(i.api_key_page_timing2_task)
    i.api_key_page_timing_task               0x08003670   Section        0  api_display.o(i.api_key_page_timing_task)
    i.api_key_put                            0x080036e0   Section        0  api_key.o(i.api_key_put)
    i.api_key_scan                           0x080036fc   Section        0  api_key.o(i.api_key_scan)
    i.api_main_task                          0x08003728   Section        0  api_task.o(i.api_main_task)
    i.api_task_init                          0x08003738   Section        0  api_task.o(i.api_task_init)
    i.api_task_safe                          0x0800375c   Section        0  api_task.o(i.api_task_safe)
    i.api_timing_task                        0x080037d8   Section        0  api_task.o(i.api_timing_task)
    i.api_update_page1                       0x08003870   Section        0  api_display.o(i.api_update_page1)
    i.api_update_page2                       0x080039e8   Section        0  api_display.o(i.api_update_page2)
    i.api_update_page3                       0x08003c34   Section        0  api_display.o(i.api_update_page3)
    i.api_update_page_safe                   0x08003d78   Section        0  api_display.o(i.api_update_page_safe)
    i.api_update_page_settime                0x08003ebc   Section        0  api_display.o(i.api_update_page_settime)
    i.api_update_page_timing                 0x0800400c   Section        0  api_display.o(i.api_update_page_timing)
    i.api_update_page_timing1                0x080040fc   Section        0  api_display.o(i.api_update_page_timing1)
    i.api_update_page_timing2                0x08004220   Section        0  api_display.o(i.api_update_page_timing2)
    i.bsp_iic_check_dev                      0x08004344   Section        0  bsp_iic.o(i.bsp_iic_check_dev)
    i.bsp_iic_delay                          0x08004360   Section        0  bsp_iic.o(i.bsp_iic_delay)
    bsp_iic_delay                            0x08004361   Thumb Code    14  bsp_iic.o(i.bsp_iic_delay)
    i.bsp_iic_read_byte                      0x08004370   Section        0  bsp_iic.o(i.bsp_iic_read_byte)
    i.bsp_iic_send_ack                       0x080043cc   Section        0  bsp_iic.o(i.bsp_iic_send_ack)
    i.bsp_iic_send_byte                      0x08004410   Section        0  bsp_iic.o(i.bsp_iic_send_byte)
    i.bsp_iic_send_noack                     0x08004458   Section        0  bsp_iic.o(i.bsp_iic_send_noack)
    i.bsp_iic_start                          0x0800449c   Section        0  bsp_iic.o(i.bsp_iic_start)
    i.bsp_iic_stop                           0x080044dc   Section        0  bsp_iic.o(i.bsp_iic_stop)
    i.bsp_iic_wait_ack                       0x08004508   Section        0  bsp_iic.o(i.bsp_iic_wait_ack)
    i.bsp_usart_isr                          0x08004568   Section        0  bsp_usart.o(i.bsp_usart_isr)
    i.crc16tablefast                         0x0800456c   Section        0  pzem004t.o(i.crc16tablefast)
    i.delay_us                               0x080045ac   Section        0  bsp_ds1302.o(i.delay_us)
    delay_us                                 0x080045ad   Thumb Code    14  bsp_ds1302.o(i.delay_us)
    i.delay_us                               0x080045ba   Section        0  dht11.o(i.delay_us)
    delay_us                                 0x080045bb   Thumb Code    14  dht11.o(i.delay_us)
    i.ds1302_DATAINPUT_init                  0x080045c8   Section        0  bsp_ds1302.o(i.ds1302_DATAINPUT_init)
    i.ds1302_DATAOUT_init                    0x080045f0   Section        0  bsp_ds1302.o(i.ds1302_DATAOUT_init)
    i.ds1302_read_realTime                   0x08004624   Section        0  bsp_ds1302.o(i.ds1302_read_realTime)
    i.ds1302_read_rig                        0x080046a8   Section        0  bsp_ds1302.o(i.ds1302_read_rig)
    i.ds1302_read_time                       0x0800475c   Section        0  bsp_ds1302.o(i.ds1302_read_time)
    i.ds1302_set                             0x080047a0   Section        0  bsp_ds1302.o(i.ds1302_set)
    i.ds1302_wirte_rig                       0x08004840   Section        0  bsp_ds1302.o(i.ds1302_wirte_rig)
    i.ds1302_write_onebyte                   0x080048a8   Section        0  bsp_ds1302.o(i.ds1302_write_onebyte)
    i.get_max_day                            0x080048fc   Section        0  api_display.o(i.get_max_day)
    i.main                                   0x08004940   Section        0  main.o(i.main)
    i.main_init                              0x0800495c   Section        0  main_user.o(i.main_init)
    i.main_user                              0x080049a4   Section        0  main_user.o(i.main_user)
    i.oled_iic_send                          0x08004a14   Section        0  oled.o(i.oled_iic_send)
    .constdata                               0x08004a56   Section       24  stm32g0xx_hal_uart.o(.constdata)
    x$fpl$usenofp                            0x08004a56   Section        0  usenofp.o(x$fpl$usenofp)
    .constdata                               0x08004a70   Section       64  system_stm32g0xx.o(.constdata)
    .constdata                               0x08004ab0   Section       32  system_stm32g0xx.o(.constdata)
    .constdata                               0x08004ad0   Section     8496  oled.o(.constdata)
    .constdata                               0x08006c00   Section       32  pzem004t.o(.constdata)
    .constdata                               0x08006c20   Section       64  fdiv.o(.constdata)
    fdiv_tab                                 0x08006c20   Data          64  fdiv.o(.constdata)
    .data                                    0x20000000   Section       12  stm32g0xx_hal.o(.data)
    .data                                    0x2000000c   Section        4  system_stm32g0xx.o(.data)
    .data                                    0x20000010   Section        8  main_user.o(.data)
    led_cnt                                  0x20000016   Data           2  main_user.o(.data)
    .data                                    0x20000018   Section       16  bsp_ds1302.o(.data)
    .data                                    0x20000028   Section        8  api_display.o(.data)
    .data                                    0x20000030   Section        2  api_hard.o(.data)
    .data                                    0x20000032   Section        1  api_key.o(.data)
    ticker                                   0x20000032   Data           1  api_key.o(.data)
    .data                                    0x20000034   Section        4  api_task.o(.data)
    is_timing1_ok                            0x20000034   Data           1  api_task.o(.data)
    is_timing2_ok                            0x20000035   Data           1  api_task.o(.data)
    is_err                                   0x20000036   Data           2  api_task.o(.data)
    .bss                                     0x20000038   Section       76  tim.o(.bss)
    .bss                                     0x20000084   Section      148  usart.o(.bss)
    .bss                                     0x20000118   Section       72  api_key.o(.bss)
    .bss                                     0x20000160   Section       40  api_task.o(.bss)
    .bss                                     0x20000188   Section     1152  oled.o(.bss)
    .bss                                     0x20000608   Section       42  pzem004t.o(.bss)
    .bss                                     0x20000634   Section       96  libspace.o(.bss)
    HEAP                                     0x20000698   Section      512  startup_stm32g030xx.o(HEAP)
    Heap_Mem                                 0x20000698   Data         512  startup_stm32g030xx.o(HEAP)
    STACK                                    0x20000898   Section     1024  startup_stm32g030xx.o(STACK)
    Stack_Mem                                0x20000898   Data        1024  startup_stm32g030xx.o(STACK)
    __initial_sp                             0x20000c98   Data           0  startup_stm32g030xx.o(STACK)

    Global Symbols

    Symbol Name                              Value     Ov Type        Size  Object(Section)

    BuildAttributes$$THM_ISAv3M$S$PE$A:L22$X:L11$S22$IEEE1$IW$USESV6$~STKCKD$USESV7$~SHL$OSPACE$ROPI$EBA8$UX$STANDARDLIB$REQ8$PRES8$EABIv2 0x00000000   Number         0  anon$$obj.o ABSOLUTE
    __ARM_use_no_argv                        0x00000000   Number         0  main.o ABSOLUTE
    __ARM_exceptions_init                     - Undefined Weak Reference
    __alloca_initialize                       - Undefined Weak Reference
    __arm_fini_                               - Undefined Weak Reference
    __arm_preinit_                            - Undefined Weak Reference
    __cpp_initialize__aeabi_                  - Undefined Weak Reference
    __cxa_finalize                            - Undefined Weak Reference
    __rt_locale                               - Undefined Weak Reference
    __sigvec_lookup                           - Undefined Weak Reference
    _atexit_init                              - Undefined Weak Reference
    _call_atexit_fns                          - Undefined Weak Reference
    _clock_init                               - Undefined Weak Reference
    _fp_trap_init                             - Undefined Weak Reference
    _fp_trap_shutdown                         - Undefined Weak Reference
    _get_lc_collate                           - Undefined Weak Reference
    _get_lc_ctype                             - Undefined Weak Reference
    _get_lc_monetary                          - Undefined Weak Reference
    _get_lc_numeric                           - Undefined Weak Reference
    _get_lc_time                              - Undefined Weak Reference
    _getenv_init                              - Undefined Weak Reference
    _handle_redirection                       - Undefined Weak Reference
    _init_alloc                               - Undefined Weak Reference
    _init_user_alloc                          - Undefined Weak Reference
    _initio                                   - Undefined Weak Reference
    _rand_init                                - Undefined Weak Reference
    _signal_finish                            - Undefined Weak Reference
    _signal_init                              - Undefined Weak Reference
    _terminate_alloc                          - Undefined Weak Reference
    _terminate_user_alloc                     - Undefined Weak Reference
    _terminateio                              - Undefined Weak Reference
    __Vectors_Size                           0x000000c0   Number         0  startup_stm32g030xx.o ABSOLUTE
    __Vectors                                0x08000000   Data           4  startup_stm32g030xx.o(RESET)
    __Vectors_End                            0x080000c0   Data           0  startup_stm32g030xx.o(RESET)
    __main                                   0x080000c1   Thumb Code     8  __main.o(!!!main)
    __scatterload                            0x080000c9   Thumb Code     0  __scatter.o(!!!scatter)
    __scatterload_rt2                        0x080000c9   Thumb Code    52  __scatter.o(!!!scatter)
    __scatterload_rt2_thumb_only             0x080000c9   Thumb Code     0  __scatter.o(!!!scatter)
    __scatterload_null                       0x080000d9   Thumb Code     0  __scatter.o(!!!scatter)
    __scatterload_copy                       0x08000105   Thumb Code    26  __scatter_copy.o(!!handler_copy)
    __scatterload_zeroinit                   0x08000121   Thumb Code    28  __scatter_zi.o(!!handler_zi)
    __rt_lib_init                            0x0800013d   Thumb Code     0  libinit.o(.ARM.Collect$$libinit$$00000000)
    __rt_lib_init_alloca_1                   0x0800013f   Thumb Code     0  libinit2.o(.ARM.Collect$$libinit$$0000002E)
    __rt_lib_init_argv_1                     0x0800013f   Thumb Code     0  libinit2.o(.ARM.Collect$$libinit$$0000002C)
    __rt_lib_init_atexit_1                   0x0800013f   Thumb Code     0  libinit2.o(.ARM.Collect$$libinit$$0000001B)
    __rt_lib_init_clock_1                    0x0800013f   Thumb Code     0  libinit2.o(.ARM.Collect$$libinit$$00000021)
    __rt_lib_init_cpp_1                      0x0800013f   Thumb Code     0  libinit2.o(.ARM.Collect$$libinit$$00000032)
    __rt_lib_init_exceptions_1               0x0800013f   Thumb Code     0  libinit2.o(.ARM.Collect$$libinit$$00000030)
    __rt_lib_init_fp_1                       0x0800013f   Thumb Code     0  libinit2.o(.ARM.Collect$$libinit$$00000002)
    __rt_lib_init_fp_trap_1                  0x0800013f   Thumb Code     0  libinit2.o(.ARM.Collect$$libinit$$0000001F)
    __rt_lib_init_getenv_1                   0x0800013f   Thumb Code     0  libinit2.o(.ARM.Collect$$libinit$$00000023)
    __rt_lib_init_heap_1                     0x0800013f   Thumb Code     0  libinit2.o(.ARM.Collect$$libinit$$0000000A)
    __rt_lib_init_lc_collate_1               0x0800013f   Thumb Code     0  libinit2.o(.ARM.Collect$$libinit$$00000011)
    __rt_lib_init_lc_ctype_1                 0x0800013f   Thumb Code     0  libinit2.o(.ARM.Collect$$libinit$$00000013)
    __rt_lib_init_lc_monetary_1              0x0800013f   Thumb Code     0  libinit2.o(.ARM.Collect$$libinit$$00000015)
    __rt_lib_init_lc_numeric_1               0x0800013f   Thumb Code     0  libinit2.o(.ARM.Collect$$libinit$$00000017)
    __rt_lib_init_lc_time_1                  0x0800013f   Thumb Code     0  libinit2.o(.ARM.Collect$$libinit$$00000019)
    __rt_lib_init_preinit_1                  0x0800013f   Thumb Code     0  libinit2.o(.ARM.Collect$$libinit$$00000004)
    __rt_lib_init_rand_1                     0x0800013f   Thumb Code     0  libinit2.o(.ARM.Collect$$libinit$$0000000E)
    __rt_lib_init_return                     0x0800013f   Thumb Code     0  libinit2.o(.ARM.Collect$$libinit$$00000033)
    __rt_lib_init_signal_1                   0x0800013f   Thumb Code     0  libinit2.o(.ARM.Collect$$libinit$$0000001D)
    __rt_lib_init_stdio_1                    0x0800013f   Thumb Code     0  libinit2.o(.ARM.Collect$$libinit$$00000025)
    __rt_lib_init_user_alloc_1               0x0800013f   Thumb Code     0  libinit2.o(.ARM.Collect$$libinit$$0000000C)
    __rt_lib_shutdown                        0x08000141   Thumb Code     0  libshutdown.o(.ARM.Collect$$libshutdown$$00000000)
    __rt_lib_shutdown_cpp_1                  0x08000143   Thumb Code     0  libshutdown2.o(.ARM.Collect$$libshutdown$$00000004)
    __rt_lib_shutdown_fini_1                 0x08000143   Thumb Code     0  libshutdown2.o(.ARM.Collect$$libshutdown$$00000002)
    __rt_lib_shutdown_fp_trap_1              0x08000143   Thumb Code     0  libshutdown2.o(.ARM.Collect$$libshutdown$$00000009)
    __rt_lib_shutdown_heap_1                 0x08000143   Thumb Code     0  libshutdown2.o(.ARM.Collect$$libshutdown$$00000011)
    __rt_lib_shutdown_return                 0x08000143   Thumb Code     0  libshutdown2.o(.ARM.Collect$$libshutdown$$00000012)
    __rt_lib_shutdown_signal_1               0x08000143   Thumb Code     0  libshutdown2.o(.ARM.Collect$$libshutdown$$0000000C)
    __rt_lib_shutdown_stdio_1                0x08000143   Thumb Code     0  libshutdown2.o(.ARM.Collect$$libshutdown$$00000006)
    __rt_lib_shutdown_user_alloc_1           0x08000143   Thumb Code     0  libshutdown2.o(.ARM.Collect$$libshutdown$$0000000E)
    __rt_entry                               0x08000145   Thumb Code     0  __rtentry.o(.ARM.Collect$$rtentry$$00000000)
    __rt_entry_presh_1                       0x08000145   Thumb Code     0  __rtentry2.o(.ARM.Collect$$rtentry$$00000002)
    __rt_entry_sh                            0x08000145   Thumb Code     0  __rtentry4.o(.ARM.Collect$$rtentry$$00000004)
    __rt_entry_li                            0x0800014b   Thumb Code     0  __rtentry2.o(.ARM.Collect$$rtentry$$0000000A)
    __rt_entry_postsh_1                      0x0800014b   Thumb Code     0  __rtentry2.o(.ARM.Collect$$rtentry$$00000009)
    __rt_entry_main                          0x0800014f   Thumb Code     0  __rtentry2.o(.ARM.Collect$$rtentry$$0000000D)
    __rt_entry_postli_1                      0x0800014f   Thumb Code     0  __rtentry2.o(.ARM.Collect$$rtentry$$0000000C)
    __rt_exit                                0x08000157   Thumb Code     0  rtexit.o(.ARM.Collect$$rtexit$$00000000)
    __rt_exit_ls                             0x08000159   Thumb Code     0  rtexit2.o(.ARM.Collect$$rtexit$$00000003)
    __rt_exit_prels_1                        0x08000159   Thumb Code     0  rtexit2.o(.ARM.Collect$$rtexit$$00000002)
    __rt_exit_exit                           0x0800015d   Thumb Code     0  rtexit2.o(.ARM.Collect$$rtexit$$00000004)
    __aeabi_memcpy4                          0x08000165   Thumb Code    56  rt_memcpy.o(.emb_text)
    __aeabi_memcpy8                          0x08000165   Thumb Code     0  rt_memcpy.o(.emb_text)
    Reset_Handler                            0x0800019d   Thumb Code     8  startup_stm32g030xx.o(.text)
    ADC1_IRQHandler                          0x080001af   Thumb Code     0  startup_stm32g030xx.o(.text)
    DMA1_Ch4_5_DMAMUX1_OVR_IRQHandler        0x080001af   Thumb Code     0  startup_stm32g030xx.o(.text)
    DMA1_Channel1_IRQHandler                 0x080001af   Thumb Code     0  startup_stm32g030xx.o(.text)
    DMA1_Channel2_3_IRQHandler               0x080001af   Thumb Code     0  startup_stm32g030xx.o(.text)
    EXTI0_1_IRQHandler                       0x080001af   Thumb Code     0  startup_stm32g030xx.o(.text)
    EXTI2_3_IRQHandler                       0x080001af   Thumb Code     0  startup_stm32g030xx.o(.text)
    EXTI4_15_IRQHandler                      0x080001af   Thumb Code     0  startup_stm32g030xx.o(.text)
    FLASH_IRQHandler                         0x080001af   Thumb Code     0  startup_stm32g030xx.o(.text)
    I2C1_IRQHandler                          0x080001af   Thumb Code     0  startup_stm32g030xx.o(.text)
    I2C2_IRQHandler                          0x080001af   Thumb Code     0  startup_stm32g030xx.o(.text)
    RCC_IRQHandler                           0x080001af   Thumb Code     0  startup_stm32g030xx.o(.text)
    RTC_TAMP_IRQHandler                      0x080001af   Thumb Code     0  startup_stm32g030xx.o(.text)
    SPI1_IRQHandler                          0x080001af   Thumb Code     0  startup_stm32g030xx.o(.text)
    SPI2_IRQHandler                          0x080001af   Thumb Code     0  startup_stm32g030xx.o(.text)
    TIM14_IRQHandler                         0x080001af   Thumb Code     0  startup_stm32g030xx.o(.text)
    TIM16_IRQHandler                         0x080001af   Thumb Code     0  startup_stm32g030xx.o(.text)
    TIM17_IRQHandler                         0x080001af   Thumb Code     0  startup_stm32g030xx.o(.text)
    TIM1_CC_IRQHandler                       0x080001af   Thumb Code     0  startup_stm32g030xx.o(.text)
    TIM3_IRQHandler                          0x080001af   Thumb Code     0  startup_stm32g030xx.o(.text)
    USART1_IRQHandler                        0x080001af   Thumb Code     0  startup_stm32g030xx.o(.text)
    WWDG_IRQHandler                          0x080001af   Thumb Code     0  startup_stm32g030xx.o(.text)
    __user_initial_stackheap                 0x080001b1   Thumb Code     0  startup_stm32g030xx.o(.text)
    __aeabi_memcpy                           0x080001d5   Thumb Code   130  rt_memcpy.o(.text)
    __rt_memcpy                              0x080001d5   Thumb Code     0  rt_memcpy.o(.text)
    _memset_w                                0x08000257   Thumb Code    26  rt_memclr.o(.text)
    _memset                                  0x08000271   Thumb Code    30  rt_memclr.o(.text)
    __aeabi_memclr                           0x0800028f   Thumb Code     4  rt_memclr.o(.text)
    __rt_memclr                              0x0800028f   Thumb Code     0  rt_memclr.o(.text)
    __aeabi_memclr4                          0x08000293   Thumb Code     0  rt_memclr.o(.text)
    __aeabi_memclr8                          0x08000293   Thumb Code     0  rt_memclr.o(.text)
    __rt_memclr_w                            0x08000293   Thumb Code     4  rt_memclr.o(.text)
    __aeabi_uidiv                            0x08000297   Thumb Code     0  aeabi_sdiv.o(.text)
    __aeabi_uidivmod                         0x08000297   Thumb Code    20  aeabi_sdiv.o(.text)
    __aeabi_idiv                             0x080002ab   Thumb Code     0  aeabi_sdiv.o(.text)
    __aeabi_idivmod                          0x080002ab   Thumb Code   326  aeabi_sdiv.o(.text)
    __use_two_region_memory                  0x080003f1   Thumb Code     2  heapauxi.o(.text)
    __rt_heap_escrow$2region                 0x080003f3   Thumb Code     2  heapauxi.o(.text)
    __rt_heap_expand$2region                 0x080003f5   Thumb Code     2  heapauxi.o(.text)
    __aeabi_fdiv                             0x080003f9   Thumb Code     0  fdiv.o(.text)
    _fdiv                                    0x080003f9   Thumb Code   334  fdiv.o(.text)
    _frdiv                                   0x08000547   Thumb Code     8  fdiv.o(.text)
    __aeabi_f2uiz                            0x08000559   Thumb Code     0  ffixui.o(.text)
    _ffixu                                   0x08000559   Thumb Code    48  ffixui.o(.text)
    __aeabi_i2f_normalise                    0x08000589   Thumb Code    72  fflti.o(.text)
    __aeabi_i2f                              0x080005d1   Thumb Code    16  fflti.o(.text)
    _fflt                                    0x080005d1   Thumb Code     0  fflti.o(.text)
    __aeabi_ui2f                             0x080005e1   Thumb Code     6  fflti.o(.text)
    _ffltu                                   0x080005e1   Thumb Code     0  fflti.o(.text)
    __user_setup_stackheap                   0x080005e7   Thumb Code    62  sys_stackheap_outer.o(.text)
    exit                                     0x08000625   Thumb Code    16  exit.o(.text)
    __user_libspace                          0x08000635   Thumb Code     8  libspace.o(.text)
    __user_perproc_libspace                  0x08000635   Thumb Code     0  libspace.o(.text)
    __user_perthread_libspace                0x08000635   Thumb Code     0  libspace.o(.text)
    _sys_exit                                0x0800063d   Thumb Code     8  sys_exit.o(.text)
    __I$use$semihosting                      0x08000649   Thumb Code     0  use_no_semi.o(.text)
    __use_no_semihosting_swi                 0x08000649   Thumb Code     2  use_no_semi.o(.text)
    BH1750_Byte_Write                        0x0800064b   Thumb Code    52  bh1750.o(i.BH1750_Byte_Write)
    __semihosting_library_function           0x0800064b   Thumb Code     0  indicate_semi.o(.text)
    BH1750_Init                              0x0800067f   Thumb Code    28  bh1750.o(i.BH1750_Init)
    BH1750_Read_Measure                      0x0800069b   Thumb Code    52  bh1750.o(i.BH1750_Read_Measure)
    DHT11_Check                              0x080006d1   Thumb Code    96  dht11.o(i.DHT11_Check)
    DHT11_Init                               0x08000735   Thumb Code    12  dht11.o(i.DHT11_Init)
    DHT11_RST                                0x08000741   Thumb Code    42  dht11.o(i.DHT11_RST)
    DHT11_Read_Bit                           0x08000771   Thumb Code    98  dht11.o(i.DHT11_Read_Bit)
    DHT11_Read_Byte                          0x080007d9   Thumb Code    38  dht11.o(i.DHT11_Read_Byte)
    DHT11_Read_Data                          0x08000805   Thumb Code    72  dht11.o(i.DHT11_Read_Data)
    Error_Handler                            0x0800084d   Thumb Code     4  main.o(i.Error_Handler)
    HAL_DMA_Abort                            0x08000851   Thumb Code   112  stm32g0xx_hal_dma.o(i.HAL_DMA_Abort)
    HAL_DMA_Abort_IT                         0x080008c5   Thumb Code   118  stm32g0xx_hal_dma.o(i.HAL_DMA_Abort_IT)
    HAL_Delay                                0x08000941   Thumb Code    32  stm32g0xx_hal.o(i.HAL_Delay)
    HAL_GPIO_Init                            0x08000965   Thumb Code   330  stm32g0xx_hal_gpio.o(i.HAL_GPIO_Init)
    HAL_GPIO_ReadPin                         0x08000ac1   Thumb Code    10  stm32g0xx_hal_gpio.o(i.HAL_GPIO_ReadPin)
    HAL_GPIO_WritePin                        0x08000acb   Thumb Code    12  stm32g0xx_hal_gpio.o(i.HAL_GPIO_WritePin)
    HAL_GetTick                              0x08000ad9   Thumb Code     6  stm32g0xx_hal.o(i.HAL_GetTick)
    HAL_IncTick                              0x08000ae5   Thumb Code    12  stm32g0xx_hal.o(i.HAL_IncTick)
    HAL_Init                                 0x08000af5   Thumb Code    36  stm32g0xx_hal.o(i.HAL_Init)
    HAL_InitTick                             0x08000b1d   Thumb Code    64  stm32g0xx_hal.o(i.HAL_InitTick)
    HAL_MspInit                              0x08000b65   Thumb Code    38  stm32g0xx_hal_msp.o(i.HAL_MspInit)
    HAL_NVIC_EnableIRQ                       0x08000b91   Thumb Code    18  stm32g0xx_hal_cortex.o(i.HAL_NVIC_EnableIRQ)
    HAL_NVIC_SetPriority                     0x08000ba9   Thumb Code     8  stm32g0xx_hal_cortex.o(i.HAL_NVIC_SetPriority)
    HAL_PWREx_ControlVoltageScaling          0x08000bb1   Thumb Code    62  stm32g0xx_hal_pwr_ex.o(i.HAL_PWREx_ControlVoltageScaling)
    HAL_RCC_ClockConfig                      0x08000bfd   Thumb Code   318  stm32g0xx_hal_rcc.o(i.HAL_RCC_ClockConfig)
    HAL_RCC_GetPCLK1Freq                     0x08000d55   Thumb Code    26  stm32g0xx_hal_rcc.o(i.HAL_RCC_GetPCLK1Freq)
    HAL_RCC_GetSysClockFreq                  0x08000d7d   Thumb Code   130  stm32g0xx_hal_rcc.o(i.HAL_RCC_GetSysClockFreq)
    HAL_RCC_OscConfig                        0x08000e09   Thumb Code   946  stm32g0xx_hal_rcc.o(i.HAL_RCC_OscConfig)
    HAL_SYSTICK_Config                       0x080011e1   Thumb Code    38  stm32g0xx_hal_cortex.o(i.HAL_SYSTICK_Config)
    HAL_TIMEx_Break2Callback                 0x08001211   Thumb Code     2  stm32g0xx_hal_tim_ex.o(i.HAL_TIMEx_Break2Callback)
    HAL_TIMEx_BreakCallback                  0x08001213   Thumb Code     2  stm32g0xx_hal_tim_ex.o(i.HAL_TIMEx_BreakCallback)
    HAL_TIMEx_CommutCallback                 0x08001215   Thumb Code     2  stm32g0xx_hal_tim_ex.o(i.HAL_TIMEx_CommutCallback)
    HAL_TIMEx_MasterConfigSynchronization    0x08001219   Thumb Code    90  stm32g0xx_hal_tim_ex.o(i.HAL_TIMEx_MasterConfigSynchronization)
    HAL_TIM_Base_Init                        0x0800127d   Thumb Code    76  stm32g0xx_hal_tim.o(i.HAL_TIM_Base_Init)
    HAL_TIM_Base_MspInit                     0x080012c9   Thumb Code    44  tim.o(i.HAL_TIM_Base_MspInit)
    HAL_TIM_Base_Start_IT                    0x080012fd   Thumb Code    68  stm32g0xx_hal_tim.o(i.HAL_TIM_Base_Start_IT)
    HAL_TIM_ConfigClockSource                0x0800134d   Thumb Code   220  stm32g0xx_hal_tim.o(i.HAL_TIM_ConfigClockSource)
    HAL_TIM_IC_CaptureCallback               0x0800142d   Thumb Code     2  stm32g0xx_hal_tim.o(i.HAL_TIM_IC_CaptureCallback)
    HAL_TIM_IRQHandler                       0x08001431   Thumb Code   318  stm32g0xx_hal_tim.o(i.HAL_TIM_IRQHandler)
    HAL_TIM_OC_DelayElapsedCallback          0x08001579   Thumb Code     2  stm32g0xx_hal_tim.o(i.HAL_TIM_OC_DelayElapsedCallback)
    HAL_TIM_PWM_PulseFinishedCallback        0x0800157b   Thumb Code     2  stm32g0xx_hal_tim.o(i.HAL_TIM_PWM_PulseFinishedCallback)
    HAL_TIM_PeriodElapsedCallback            0x0800157d   Thumb Code   122  main_user.o(i.HAL_TIM_PeriodElapsedCallback)
    HAL_TIM_TriggerCallback                  0x08001609   Thumb Code     2  stm32g0xx_hal_tim.o(i.HAL_TIM_TriggerCallback)
    HAL_UARTEx_RxEventCallback               0x0800160b   Thumb Code     2  stm32g0xx_hal_uart.o(i.HAL_UARTEx_RxEventCallback)
    HAL_UARTEx_RxFifoFullCallback            0x0800160d   Thumb Code     2  stm32g0xx_hal_uart_ex.o(i.HAL_UARTEx_RxFifoFullCallback)
    HAL_UARTEx_TxFifoEmptyCallback           0x0800160f   Thumb Code     2  stm32g0xx_hal_uart_ex.o(i.HAL_UARTEx_TxFifoEmptyCallback)
    HAL_UARTEx_WakeupCallback                0x08001611   Thumb Code     2  stm32g0xx_hal_uart_ex.o(i.HAL_UARTEx_WakeupCallback)
    HAL_UART_ErrorCallback                   0x08001613   Thumb Code     2  stm32g0xx_hal_uart.o(i.HAL_UART_ErrorCallback)
    HAL_UART_IRQHandler                      0x08001615   Thumb Code   734  stm32g0xx_hal_uart.o(i.HAL_UART_IRQHandler)
    HAL_UART_Init                            0x08001905   Thumb Code   108  stm32g0xx_hal_uart.o(i.HAL_UART_Init)
    HAL_UART_MspInit                         0x08001971   Thumb Code   100  usart.o(i.HAL_UART_MspInit)
    HAL_UART_Receive_IT                      0x080019dd   Thumb Code    88  stm32g0xx_hal_uart.o(i.HAL_UART_Receive_IT)
    HAL_UART_RxCpltCallback                  0x08001a35   Thumb Code    16  main_user.o(i.HAL_UART_RxCpltCallback)
    HAL_UART_Transmit                        0x08001a45   Thumb Code   206  stm32g0xx_hal_uart.o(i.HAL_UART_Transmit)
    HAL_UART_TxCpltCallback                  0x08001b13   Thumb Code     2  stm32g0xx_hal_uart.o(i.HAL_UART_TxCpltCallback)
    HardFault_Handler                        0x08001b15   Thumb Code     2  stm32g0xx_it.o(i.HardFault_Handler)
    IsKey1Down                               0x08001b19   Thumb Code    10  api_key.o(i.IsKey1Down)
    IsKey2Down                               0x08001b29   Thumb Code    10  api_key.o(i.IsKey2Down)
    IsKey3Down                               0x08001b39   Thumb Code    10  api_key.o(i.IsKey3Down)
    IsKey4Down                               0x08001b49   Thumb Code     8  api_key.o(i.IsKey4Down)
    IsKey5Down                               0x08001b55   Thumb Code    10  api_key.o(i.IsKey5Down)
    LIght_Intensity                          0x08001c69   Thumb Code    18  bh1750.o(i.LIght_Intensity)
    MX_GPIO_Init                             0x08001c81   Thumb Code   264  gpio.o(i.MX_GPIO_Init)
    MX_TIM1_Init                             0x08001da1   Thumb Code   104  tim.o(i.MX_TIM1_Init)
    MX_USART2_UART_Init                      0x08001e15   Thumb Code    50  usart.o(i.MX_USART2_UART_Init)
    NMI_Handler                              0x08001e51   Thumb Code     2  stm32g0xx_it.o(i.NMI_Handler)
    OLED_Clear                               0x08001e55   Thumb Code    38  oled.o(i.OLED_Clear)
    OLED_DrawPoint                           0x08001e81   Thumb Code    42  oled.o(i.OLED_DrawPoint)
    OLED_Init                                0x08001eb1   Thumb Code   216  oled.o(i.OLED_Init)
    OLED_Pow                                 0x08001f89   Thumb Code    20  oled.o(i.OLED_Pow)
    OLED_Refresh                             0x08001f9d   Thumb Code   108  oled.o(i.OLED_Refresh)
    OLED_ShowChar                            0x0800200d   Thumb Code   210  oled.o(i.OLED_ShowChar)
    OLED_ShowChinese                         0x080020f1   Thumb Code   184  oled.o(i.OLED_ShowChinese)
    OLED_ShowNum                             0x080021b1   Thumb Code   106  oled.o(i.OLED_ShowNum)
    OLED_ShowString                          0x0800221b   Thumb Code    58  oled.o(i.OLED_ShowString)
    PZEM004T_EnergyClear                     0x08002255   Thumb Code    40  pzem004t.o(i.PZEM004T_EnergyClear)
    PZEM004T_ISR                             0x08002289   Thumb Code   102  pzem004t.o(i.PZEM004T_ISR)
    PZEM004T_MeaCal                          0x080022fd   Thumb Code    80  pzem004t.o(i.PZEM004T_MeaCal)
    PZEM004T_ReadMeasValue                   0x08002351   Thumb Code    42  pzem004t.o(i.PZEM004T_ReadMeasValue)
    PZEM004T_ResCheck                        0x0800238d   Thumb Code    32  pzem004t.o(i.PZEM004T_ResCheck)
    PendSV_Handler                           0x080023b1   Thumb Code     2  stm32g0xx_it.o(i.PendSV_Handler)
    SVC_Handler                              0x080023b3   Thumb Code     2  stm32g0xx_it.o(i.SVC_Handler)
    SysTick_Handler                          0x080023b5   Thumb Code     8  stm32g0xx_it.o(i.SysTick_Handler)
    SystemClock_Config                       0x080023bd   Thumb Code   104  main.o(i.SystemClock_Config)
    SystemInit                               0x08002425   Thumb Code     2  system_stm32g0xx.o(i.SystemInit)
    TIM1_BRK_UP_TRG_COM_IRQHandler           0x08002429   Thumb Code    10  stm32g0xx_it.o(i.TIM1_BRK_UP_TRG_COM_IRQHandler)
    TIM_Base_SetConfig                       0x08002439   Thumb Code   114  stm32g0xx_hal_tim.o(i.TIM_Base_SetConfig)
    TIM_ETR_SetConfig                        0x080024c1   Thumb Code    22  stm32g0xx_hal_tim.o(i.TIM_ETR_SetConfig)
    UART_AdvFeatureConfig                    0x08002535   Thumb Code   202  stm32g0xx_hal_uart.o(i.UART_AdvFeatureConfig)
    UART_CheckIdleState                      0x08002601   Thumb Code   180  stm32g0xx_hal_uart.o(i.UART_CheckIdleState)
    UART_SetConfig                           0x08002c39   Thumb Code   326  stm32g0xx_hal_uart.o(i.UART_SetConfig)
    UART_Start_Receive_IT                    0x08002da1   Thumb Code   280  stm32g0xx_hal_uart.o(i.UART_Start_Receive_IT)
    UART_WaitOnFlagUntilTimeout              0x08002ecd   Thumb Code   144  stm32g0xx_hal_uart.o(i.UART_WaitOnFlagUntilTimeout)
    USART2_IRQHandler                        0x08002f5d   Thumb Code    10  stm32g0xx_it.o(i.USART2_IRQHandler)
    __ARM_common_switch8                     0x08002f6d   Thumb Code    26  stm32g0xx_hal_tim.o(i.__ARM_common_switch8)
    api_energy_clr_task                      0x08002fcd   Thumb Code    20  api_task.o(i.api_energy_clr_task)
    api_hard_init                            0x08002fe5   Thumb Code    10  api_hard.o(i.api_hard_init)
    api_hard_load                            0x08002ff5   Thumb Code    56  api_hard.o(i.api_hard_load)
    api_hard_read                            0x08003035   Thumb Code   138  api_hard.o(i.api_hard_read)
    api_key_clear                            0x080030c9   Thumb Code    10  api_key.o(i.api_key_clear)
    api_key_get                              0x080030d9   Thumb Code    34  api_key.o(i.api_key_get)
    api_key_init                             0x08003101   Thumb Code    12  api_key.o(i.api_key_init)
    api_key_page1_task                       0x0800310d   Thumb Code    88  api_display.o(i.api_key_page1_task)
    api_key_page2_task                       0x08003175   Thumb Code    88  api_display.o(i.api_key_page2_task)
    api_key_page3_task                       0x080031dd   Thumb Code   140  api_display.o(i.api_key_page3_task)
    api_key_page_safe_task                   0x08003289   Thumb Code   198  api_display.o(i.api_key_page_safe_task)
    api_key_page_settime_task                0x08003361   Thumb Code   344  api_display.o(i.api_key_page_settime_task)
    api_key_page_timing1_task                0x080034c9   Thumb Code   200  api_display.o(i.api_key_page_timing1_task)
    api_key_page_timing2_task                0x0800359d   Thumb Code   200  api_display.o(i.api_key_page_timing2_task)
    api_key_page_timing_task                 0x08003671   Thumb Code    94  api_display.o(i.api_key_page_timing_task)
    api_key_put                              0x080036e1   Thumb Code    24  api_key.o(i.api_key_put)
    api_key_scan                             0x080036fd   Thumb Code    38  api_key.o(i.api_key_scan)
    api_main_task                            0x08003729   Thumb Code    16  api_task.o(i.api_main_task)
    api_task_init                            0x08003739   Thumb Code    26  api_task.o(i.api_task_init)
    api_task_safe                            0x0800375d   Thumb Code   108  api_task.o(i.api_task_safe)
    api_timing_task                          0x080037d9   Thumb Code   132  api_task.o(i.api_timing_task)
    api_update_page1                         0x08003871   Thumb Code   352  api_display.o(i.api_update_page1)
    api_update_page2                         0x080039e9   Thumb Code   510  api_display.o(i.api_update_page2)
    api_update_page3                         0x08003c35   Thumb Code   318  api_display.o(i.api_update_page3)
    api_update_page_safe                     0x08003d79   Thumb Code   314  api_display.o(i.api_update_page_safe)
    api_update_page_settime                  0x08003ebd   Thumb Code   284  api_display.o(i.api_update_page_settime)
    api_update_page_timing                   0x0800400d   Thumb Code   234  api_display.o(i.api_update_page_timing)
    api_update_page_timing1                  0x080040fd   Thumb Code   266  api_display.o(i.api_update_page_timing1)
    api_update_page_timing2                  0x08004221   Thumb Code   266  api_display.o(i.api_update_page_timing2)
    bsp_iic_check_dev                        0x08004345   Thumb Code    28  bsp_iic.o(i.bsp_iic_check_dev)
    bsp_iic_read_byte                        0x08004371   Thumb Code    88  bsp_iic.o(i.bsp_iic_read_byte)
    bsp_iic_send_ack                         0x080043cd   Thumb Code    62  bsp_iic.o(i.bsp_iic_send_ack)
    bsp_iic_send_byte                        0x08004411   Thumb Code    68  bsp_iic.o(i.bsp_iic_send_byte)
    bsp_iic_send_noack                       0x08004459   Thumb Code    62  bsp_iic.o(i.bsp_iic_send_noack)
    bsp_iic_start                            0x0800449d   Thumb Code    58  bsp_iic.o(i.bsp_iic_start)
    bsp_iic_stop                             0x080044dd   Thumb Code    40  bsp_iic.o(i.bsp_iic_stop)
    bsp_iic_wait_ack                         0x08004509   Thumb Code    92  bsp_iic.o(i.bsp_iic_wait_ack)
    bsp_usart_isr                            0x08004569   Thumb Code     2  bsp_usart.o(i.bsp_usart_isr)
    crc16tablefast                           0x0800456d   Thumb Code    54  pzem004t.o(i.crc16tablefast)
    ds1302_DATAINPUT_init                    0x080045c9   Thumb Code    34  bsp_ds1302.o(i.ds1302_DATAINPUT_init)
    ds1302_DATAOUT_init                      0x080045f1   Thumb Code    48  bsp_ds1302.o(i.ds1302_DATAOUT_init)
    ds1302_read_realTime                     0x08004625   Thumb Code   126  bsp_ds1302.o(i.ds1302_read_realTime)
    ds1302_read_rig                          0x080046a9   Thumb Code   176  bsp_ds1302.o(i.ds1302_read_rig)
    ds1302_read_time                         0x0800475d   Thumb Code    62  bsp_ds1302.o(i.ds1302_read_time)
    ds1302_set                               0x080047a1   Thumb Code   160  bsp_ds1302.o(i.ds1302_set)
    ds1302_wirte_rig                         0x08004841   Thumb Code    98  bsp_ds1302.o(i.ds1302_wirte_rig)
    ds1302_write_onebyte                     0x080048a9   Thumb Code    78  bsp_ds1302.o(i.ds1302_write_onebyte)
    get_max_day                              0x080048fd   Thumb Code    68  api_display.o(i.get_max_day)
    main                                     0x08004941   Thumb Code    26  main.o(i.main)
    main_init                                0x0800495d   Thumb Code    60  main_user.o(i.main_init)
    main_user                                0x080049a5   Thumb Code    98  main_user.o(i.main_user)
    oled_iic_send                            0x08004a15   Thumb Code    66  oled.o(i.oled_iic_send)
    UARTPrescTable                           0x08004a56   Data          24  stm32g0xx_hal_uart.o(.constdata)
    __I$use$fp                               0x08004a56   Number         0  usenofp.o(x$fpl$usenofp)
    AHBPrescTable                            0x08004a70   Data          64  system_stm32g0xx.o(.constdata)
    APBPrescTable                            0x08004ab0   Data          32  system_stm32g0xx.o(.constdata)
    asc2_0806                                0x08004ad0   Data         552  oled.o(.constdata)
    asc2_1206                                0x08004cf8   Data        1140  oled.o(.constdata)
    asc2_1608                                0x0800516c   Data        1520  oled.o(.constdata)
    asc2_2412                                0x0800575c   Data        3420  oled.o(.constdata)
    Hzk1                                     0x080064b8   Data        1152  oled.o(.constdata)
    Hzk2                                     0x08006938   Data          72  oled.o(.constdata)
    Hzk3                                     0x08006980   Data         128  oled.o(.constdata)
    Hzk4                                     0x08006a00   Data         512  oled.o(.constdata)
    crctalbeabs                              0x08006c00   Data          32  pzem004t.o(.constdata)
    Region$$Table$$Base                      0x08006c60   Number         0  anon$$obj.o(Region$$Table)
    Region$$Table$$Limit                     0x08006c80   Number         0  anon$$obj.o(Region$$Table)
    uwTickFreq                               0x20000000   Data           1  stm32g0xx_hal.o(.data)
    uwTickPrio                               0x20000004   Data           4  stm32g0xx_hal.o(.data)
    uwTick                                   0x20000008   Data           4  stm32g0xx_hal.o(.data)
    SystemCoreClock                          0x2000000c   Data           4  system_stm32g0xx.o(.data)
    pzem004t_ticker                          0x20000010   Data           2  main_user.o(.data)
    dht11_ticker                             0x20000012   Data           2  main_user.o(.data)
    bh1750_ticker                            0x20000014   Data           2  main_user.o(.data)
    read_time                                0x20000018   Data           7  bsp_ds1302.o(.data)
    TimeData                                 0x20000020   Data           8  bsp_ds1302.o(.data)
    main_page                                0x20000028   Data           1  api_display.o(.data)
    sel_index                                0x20000029   Data           1  api_display.o(.data)
    api_display_task                         0x2000002c   Data           4  api_display.o(.data)
    g_hard                                   0x20000030   Data           2  api_hard.o(.data)
    htim1                                    0x20000038   Data          76  tim.o(.bss)
    huart2                                   0x20000084   Data         148  usart.o(.bss)
    s_TKey                                   0x20000118   Data          60  api_key.o(.bss)
    s_TKeyFIFO                               0x20000154   Data          12  api_key.o(.bss)
    g_syspar                                 0x20000160   Data          40  api_task.o(.bss)
    OLED_GRAM                                0x20000188   Data        1152  oled.o(.bss)
    PZEM004T                                 0x20000608   Data          42  pzem004t.o(.bss)
    __libspace_start                         0x20000634   Data          96  libspace.o(.bss)
    __temporary_stack_top$libspace           0x20000694   Data           0  libspace.o(.bss)



==============================================================================

Memory Map of the image

  Image Entry point : 0x080000c1

  Load Region LR_IROM1 (Base: 0x08000000, Size: 0x00006cb8, Max: 0x00010000, ABSOLUTE)

    Execution Region ER_IROM1 (Exec base: 0x08000000, Load base: 0x08000000, Size: 0x00006c80, Max: 0x00010000, ABSOLUTE)

    Exec Addr    Load Addr    Size         Type   Attr      Idx    E Section Name        Object

    0x08000000   0x08000000   0x000000c0   Data   RO            3    RESET               startup_stm32g030xx.o
    0x080000c0   0x080000c0   0x00000008   Code   RO         3994  * !!!main             c_p.l(__main.o)
    0x080000c8   0x080000c8   0x0000003c   Code   RO         4173    !!!scatter          c_p.l(__scatter.o)
    0x08000104   0x08000104   0x0000001a   Code   RO         4175    !!handler_copy      c_p.l(__scatter_copy.o)
    0x0800011e   0x0800011e   0x00000002   PAD
    0x08000120   0x08000120   0x0000001c   Code   RO         4177    !!handler_zi        c_p.l(__scatter_zi.o)
    0x0800013c   0x0800013c   0x00000002   Code   RO         4040    .ARM.Collect$$libinit$$00000000  c_p.l(libinit.o)
    0x0800013e   0x0800013e   0x00000000   Code   RO         4054    .ARM.Collect$$libinit$$00000002  c_p.l(libinit2.o)
    0x0800013e   0x0800013e   0x00000000   Code   RO         4056    .ARM.Collect$$libinit$$00000004  c_p.l(libinit2.o)
    0x0800013e   0x0800013e   0x00000000   Code   RO         4059    .ARM.Collect$$libinit$$0000000A  c_p.l(libinit2.o)
    0x0800013e   0x0800013e   0x00000000   Code   RO         4061    .ARM.Collect$$libinit$$0000000C  c_p.l(libinit2.o)
    0x0800013e   0x0800013e   0x00000000   Code   RO         4063    .ARM.Collect$$libinit$$0000000E  c_p.l(libinit2.o)
    0x0800013e   0x0800013e   0x00000000   Code   RO         4066    .ARM.Collect$$libinit$$00000011  c_p.l(libinit2.o)
    0x0800013e   0x0800013e   0x00000000   Code   RO         4068    .ARM.Collect$$libinit$$00000013  c_p.l(libinit2.o)
    0x0800013e   0x0800013e   0x00000000   Code   RO         4070    .ARM.Collect$$libinit$$00000015  c_p.l(libinit2.o)
    0x0800013e   0x0800013e   0x00000000   Code   RO         4072    .ARM.Collect$$libinit$$00000017  c_p.l(libinit2.o)
    0x0800013e   0x0800013e   0x00000000   Code   RO         4074    .ARM.Collect$$libinit$$00000019  c_p.l(libinit2.o)
    0x0800013e   0x0800013e   0x00000000   Code   RO         4076    .ARM.Collect$$libinit$$0000001B  c_p.l(libinit2.o)
    0x0800013e   0x0800013e   0x00000000   Code   RO         4078    .ARM.Collect$$libinit$$0000001D  c_p.l(libinit2.o)
    0x0800013e   0x0800013e   0x00000000   Code   RO         4080    .ARM.Collect$$libinit$$0000001F  c_p.l(libinit2.o)
    0x0800013e   0x0800013e   0x00000000   Code   RO         4082    .ARM.Collect$$libinit$$00000021  c_p.l(libinit2.o)
    0x0800013e   0x0800013e   0x00000000   Code   RO         4084    .ARM.Collect$$libinit$$00000023  c_p.l(libinit2.o)
    0x0800013e   0x0800013e   0x00000000   Code   RO         4086    .ARM.Collect$$libinit$$00000025  c_p.l(libinit2.o)
    0x0800013e   0x0800013e   0x00000000   Code   RO         4090    .ARM.Collect$$libinit$$0000002C  c_p.l(libinit2.o)
    0x0800013e   0x0800013e   0x00000000   Code   RO         4092    .ARM.Collect$$libinit$$0000002E  c_p.l(libinit2.o)
    0x0800013e   0x0800013e   0x00000000   Code   RO         4094    .ARM.Collect$$libinit$$00000030  c_p.l(libinit2.o)
    0x0800013e   0x0800013e   0x00000000   Code   RO         4096    .ARM.Collect$$libinit$$00000032  c_p.l(libinit2.o)
    0x0800013e   0x0800013e   0x00000002   Code   RO         4097    .ARM.Collect$$libinit$$00000033  c_p.l(libinit2.o)
    0x08000140   0x08000140   0x00000002   Code   RO         4128    .ARM.Collect$$libshutdown$$00000000  c_p.l(libshutdown.o)
    0x08000142   0x08000142   0x00000000   Code   RO         4154    .ARM.Collect$$libshutdown$$00000002  c_p.l(libshutdown2.o)
    0x08000142   0x08000142   0x00000000   Code   RO         4156    .ARM.Collect$$libshutdown$$00000004  c_p.l(libshutdown2.o)
    0x08000142   0x08000142   0x00000000   Code   RO         4158    .ARM.Collect$$libshutdown$$00000006  c_p.l(libshutdown2.o)
    0x08000142   0x08000142   0x00000000   Code   RO         4161    .ARM.Collect$$libshutdown$$00000009  c_p.l(libshutdown2.o)
    0x08000142   0x08000142   0x00000000   Code   RO         4164    .ARM.Collect$$libshutdown$$0000000C  c_p.l(libshutdown2.o)
    0x08000142   0x08000142   0x00000000   Code   RO         4166    .ARM.Collect$$libshutdown$$0000000E  c_p.l(libshutdown2.o)
    0x08000142   0x08000142   0x00000000   Code   RO         4169    .ARM.Collect$$libshutdown$$00000011  c_p.l(libshutdown2.o)
    0x08000142   0x08000142   0x00000002   Code   RO         4170    .ARM.Collect$$libshutdown$$00000012  c_p.l(libshutdown2.o)
    0x08000144   0x08000144   0x00000000   Code   RO         4003    .ARM.Collect$$rtentry$$00000000  c_p.l(__rtentry.o)
    0x08000144   0x08000144   0x00000000   Code   RO         4010    .ARM.Collect$$rtentry$$00000002  c_p.l(__rtentry2.o)
    0x08000144   0x08000144   0x00000006   Code   RO         4022    .ARM.Collect$$rtentry$$00000004  c_p.l(__rtentry4.o)
    0x0800014a   0x0800014a   0x00000000   Code   RO         4012    .ARM.Collect$$rtentry$$00000009  c_p.l(__rtentry2.o)
    0x0800014a   0x0800014a   0x00000004   Code   RO         4013    .ARM.Collect$$rtentry$$0000000A  c_p.l(__rtentry2.o)
    0x0800014e   0x0800014e   0x00000000   Code   RO         4015    .ARM.Collect$$rtentry$$0000000C  c_p.l(__rtentry2.o)
    0x0800014e   0x0800014e   0x00000008   Code   RO         4016    .ARM.Collect$$rtentry$$0000000D  c_p.l(__rtentry2.o)
    0x08000156   0x08000156   0x00000002   Code   RO         4045    .ARM.Collect$$rtexit$$00000000  c_p.l(rtexit.o)
    0x08000158   0x08000158   0x00000000   Code   RO         4101    .ARM.Collect$$rtexit$$00000002  c_p.l(rtexit2.o)
    0x08000158   0x08000158   0x00000004   Code   RO         4102    .ARM.Collect$$rtexit$$00000003  c_p.l(rtexit2.o)
    0x0800015c   0x0800015c   0x00000006   Code   RO         4103    .ARM.Collect$$rtexit$$00000004  c_p.l(rtexit2.o)
    0x08000162   0x08000162   0x00000002   PAD
    0x08000164   0x08000164   0x00000038   Code   RO         3982    .emb_text           c_p.l(rt_memcpy.o)
    0x0800019c   0x0800019c   0x00000038   Code   RO            4    .text               startup_stm32g030xx.o
    0x080001d4   0x080001d4   0x00000082   Code   RO         3983    .text               c_p.l(rt_memcpy.o)
    0x08000256   0x08000256   0x00000040   Code   RO         3986    .text               c_p.l(rt_memclr.o)
    0x08000296   0x08000296   0x0000015a   Code   RO         3988    .text               c_p.l(aeabi_sdiv.o)
    0x080003f0   0x080003f0   0x00000006   Code   RO         3992    .text               c_p.l(heapauxi.o)
    0x080003f6   0x080003f6   0x00000002   PAD
    0x080003f8   0x080003f8   0x00000160   Code   RO         3996    .text               fz_ps.l(fdiv.o)
    0x08000558   0x08000558   0x00000030   Code   RO         3999    .text               fz_ps.l(ffixui.o)
    0x08000588   0x08000588   0x0000005e   Code   RO         4001    .text               fz_ps.l(fflti.o)
    0x080005e6   0x080005e6   0x0000003e   Code   RO         4026    .text               c_p.l(sys_stackheap_outer.o)
    0x08000624   0x08000624   0x00000010   Code   RO         4029    .text               c_p.l(exit.o)
    0x08000634   0x08000634   0x00000008   Code   RO         4041    .text               c_p.l(libspace.o)
    0x0800063c   0x0800063c   0x0000000c   Code   RO         4098    .text               c_p.l(sys_exit.o)
    0x08000648   0x08000648   0x00000002   Code   RO         4117    .text               c_p.l(use_no_semi.o)
    0x0800064a   0x0800064a   0x00000000   Code   RO         4119    .text               c_p.l(indicate_semi.o)
    0x0800064a   0x0800064a   0x00000034   Code   RO         3809    i.BH1750_Byte_Write  bh1750.o
    0x0800067e   0x0800067e   0x0000001c   Code   RO         3810    i.BH1750_Init       bh1750.o
    0x0800069a   0x0800069a   0x00000034   Code   RO         3814    i.BH1750_Read_Measure  bh1750.o
    0x080006ce   0x080006ce   0x00000002   PAD
    0x080006d0   0x080006d0   0x00000064   Code   RO         3867    i.DHT11_Check       dht11.o
    0x08000734   0x08000734   0x0000000c   Code   RO         3868    i.DHT11_Init        dht11.o
    0x08000740   0x08000740   0x00000030   Code   RO         3869    i.DHT11_RST         dht11.o
    0x08000770   0x08000770   0x00000068   Code   RO         3870    i.DHT11_Read_Bit    dht11.o
    0x080007d8   0x080007d8   0x0000002c   Code   RO         3871    i.DHT11_Read_Byte   dht11.o
    0x08000804   0x08000804   0x00000048   Code   RO         3872    i.DHT11_Read_Data   dht11.o
    0x0800084c   0x0800084c   0x00000004   Code   RO           12    i.Error_Handler     main.o
    0x08000850   0x08000850   0x00000074   Code   RO         1825    i.HAL_DMA_Abort     stm32g0xx_hal_dma.o
    0x080008c4   0x080008c4   0x0000007c   Code   RO         1826    i.HAL_DMA_Abort_IT  stm32g0xx_hal_dma.o
    0x08000940   0x08000940   0x00000024   Code   RO         2295    i.HAL_Delay         stm32g0xx_hal.o
    0x08000964   0x08000964   0x0000015c   Code   RO         1758    i.HAL_GPIO_Init     stm32g0xx_hal_gpio.o
    0x08000ac0   0x08000ac0   0x0000000a   Code   RO         1760    i.HAL_GPIO_ReadPin  stm32g0xx_hal_gpio.o
    0x08000aca   0x08000aca   0x0000000c   Code   RO         1762    i.HAL_GPIO_WritePin  stm32g0xx_hal_gpio.o
    0x08000ad6   0x08000ad6   0x00000002   PAD
    0x08000ad8   0x08000ad8   0x0000000c   Code   RO         2299    i.HAL_GetTick       stm32g0xx_hal.o
    0x08000ae4   0x08000ae4   0x00000010   Code   RO         2305    i.HAL_IncTick       stm32g0xx_hal.o
    0x08000af4   0x08000af4   0x00000028   Code   RO         2306    i.HAL_Init          stm32g0xx_hal.o
    0x08000b1c   0x08000b1c   0x00000048   Code   RO         2307    i.HAL_InitTick      stm32g0xx_hal.o
    0x08000b64   0x08000b64   0x0000002c   Code   RO          374    i.HAL_MspInit       stm32g0xx_hal_msp.o
    0x08000b90   0x08000b90   0x00000018   Code   RO         2173    i.HAL_NVIC_EnableIRQ  stm32g0xx_hal_cortex.o
    0x08000ba8   0x08000ba8   0x00000008   Code   RO         2177    i.HAL_NVIC_SetPriority  stm32g0xx_hal_cortex.o
    0x08000bb0   0x08000bb0   0x0000004c   Code   RO         2056    i.HAL_PWREx_ControlVoltageScaling  stm32g0xx_hal_pwr_ex.o
    0x08000bfc   0x08000bfc   0x00000158   Code   RO         1408    i.HAL_RCC_ClockConfig  stm32g0xx_hal_rcc.o
    0x08000d54   0x08000d54   0x00000028   Code   RO         1416    i.HAL_RCC_GetPCLK1Freq  stm32g0xx_hal_rcc.o
    0x08000d7c   0x08000d7c   0x0000008c   Code   RO         1418    i.HAL_RCC_GetSysClockFreq  stm32g0xx_hal_rcc.o
    0x08000e08   0x08000e08   0x000003d8   Code   RO         1422    i.HAL_RCC_OscConfig  stm32g0xx_hal_rcc.o
    0x080011e0   0x080011e0   0x00000030   Code   RO         2181    i.HAL_SYSTICK_Config  stm32g0xx_hal_cortex.o
    0x08001210   0x08001210   0x00000002   Code   RO         1108    i.HAL_TIMEx_Break2Callback  stm32g0xx_hal_tim_ex.o
    0x08001212   0x08001212   0x00000002   Code   RO         1109    i.HAL_TIMEx_BreakCallback  stm32g0xx_hal_tim_ex.o
    0x08001214   0x08001214   0x00000002   Code   RO         1110    i.HAL_TIMEx_CommutCallback  stm32g0xx_hal_tim_ex.o
    0x08001216   0x08001216   0x00000002   PAD
    0x08001218   0x08001218   0x00000064   Code   RO         1131    i.HAL_TIMEx_MasterConfigSynchronization  stm32g0xx_hal_tim_ex.o
    0x0800127c   0x0800127c   0x0000004c   Code   RO          396    i.HAL_TIM_Base_Init  stm32g0xx_hal_tim.o
    0x080012c8   0x080012c8   0x00000034   Code   RO          239    i.HAL_TIM_Base_MspInit  tim.o
    0x080012fc   0x080012fc   0x00000050   Code   RO          401    i.HAL_TIM_Base_Start_IT  stm32g0xx_hal_tim.o
    0x0800134c   0x0800134c   0x000000e0   Code   RO          405    i.HAL_TIM_ConfigClockSource  stm32g0xx_hal_tim.o
    0x0800142c   0x0800142c   0x00000002   Code   RO          430    i.HAL_TIM_IC_CaptureCallback  stm32g0xx_hal_tim.o
    0x0800142e   0x0800142e   0x00000002   PAD
    0x08001430   0x08001430   0x00000148   Code   RO          444    i.HAL_TIM_IRQHandler  stm32g0xx_hal_tim.o
    0x08001578   0x08001578   0x00000002   Code   RO          447    i.HAL_TIM_OC_DelayElapsedCallback  stm32g0xx_hal_tim.o
    0x0800157a   0x0800157a   0x00000002   Code   RO          474    i.HAL_TIM_PWM_PulseFinishedCallback  stm32g0xx_hal_tim.o
    0x0800157c   0x0800157c   0x0000008c   Code   RO         3116    i.HAL_TIM_PeriodElapsedCallback  main_user.o
    0x08001608   0x08001608   0x00000002   Code   RO          487    i.HAL_TIM_TriggerCallback  stm32g0xx_hal_tim.o
    0x0800160a   0x0800160a   0x00000002   Code   RO         2561    i.HAL_UARTEx_RxEventCallback  stm32g0xx_hal_uart.o
    0x0800160c   0x0800160c   0x00000002   Code   RO         2976    i.HAL_UARTEx_RxFifoFullCallback  stm32g0xx_hal_uart_ex.o
    0x0800160e   0x0800160e   0x00000002   Code   RO         2980    i.HAL_UARTEx_TxFifoEmptyCallback  stm32g0xx_hal_uart_ex.o
    0x08001610   0x08001610   0x00000002   Code   RO         2981    i.HAL_UARTEx_WakeupCallback  stm32g0xx_hal_uart_ex.o
    0x08001612   0x08001612   0x00000002   Code   RO         2577    i.HAL_UART_ErrorCallback  stm32g0xx_hal_uart.o
    0x08001614   0x08001614   0x000002f0   Code   RO         2580    i.HAL_UART_IRQHandler  stm32g0xx_hal_uart.o
    0x08001904   0x08001904   0x0000006c   Code   RO         2581    i.HAL_UART_Init     stm32g0xx_hal_uart.o
    0x08001970   0x08001970   0x0000006c   Code   RO          277    i.HAL_UART_MspInit  usart.o
    0x080019dc   0x080019dc   0x00000058   Code   RO         2586    i.HAL_UART_Receive_IT  stm32g0xx_hal_uart.o
    0x08001a34   0x08001a34   0x00000010   Code   RO         3117    i.HAL_UART_RxCpltCallback  main_user.o
    0x08001a44   0x08001a44   0x000000ce   Code   RO         2590    i.HAL_UART_Transmit  stm32g0xx_hal_uart.o
    0x08001b12   0x08001b12   0x00000002   Code   RO         2593    i.HAL_UART_TxCpltCallback  stm32g0xx_hal_uart.o
    0x08001b14   0x08001b14   0x00000002   Code   RO          314    i.HardFault_Handler  stm32g0xx_it.o
    0x08001b16   0x08001b16   0x00000002   PAD
    0x08001b18   0x08001b18   0x00000010   Code   RO         3540    i.IsKey1Down        api_key.o
    0x08001b28   0x08001b28   0x00000010   Code   RO         3541    i.IsKey2Down        api_key.o
    0x08001b38   0x08001b38   0x00000010   Code   RO         3542    i.IsKey3Down        api_key.o
    0x08001b48   0x08001b48   0x0000000c   Code   RO         3543    i.IsKey4Down        api_key.o
    0x08001b54   0x08001b54   0x00000010   Code   RO         3544    i.IsKey5Down        api_key.o
    0x08001b64   0x08001b64   0x000000b0   Code   RO         3545    i.KeyDetect         api_key.o
    0x08001c14   0x08001c14   0x00000054   Code   RO         3546    i.KeyValInit        api_key.o
    0x08001c68   0x08001c68   0x00000018   Code   RO         3815    i.LIght_Intensity   bh1750.o
    0x08001c80   0x08001c80   0x00000120   Code   RO          218    i.MX_GPIO_Init      gpio.o
    0x08001da0   0x08001da0   0x00000074   Code   RO          240    i.MX_TIM1_Init      tim.o
    0x08001e14   0x08001e14   0x0000003c   Code   RO          278    i.MX_USART2_UART_Init  usart.o
    0x08001e50   0x08001e50   0x00000002   Code   RO          315    i.NMI_Handler       stm32g0xx_it.o
    0x08001e52   0x08001e52   0x00000002   PAD
    0x08001e54   0x08001e54   0x0000002c   Code   RO         3678    i.OLED_Clear        oled.o
    0x08001e80   0x08001e80   0x00000030   Code   RO         3685    i.OLED_DrawPoint    oled.o
    0x08001eb0   0x08001eb0   0x000000d8   Code   RO         3686    i.OLED_Init         oled.o
    0x08001f88   0x08001f88   0x00000014   Code   RO         3687    i.OLED_Pow          oled.o
    0x08001f9c   0x08001f9c   0x00000070   Code   RO         3688    i.OLED_Refresh      oled.o
    0x0800200c   0x0800200c   0x000000e4   Code   RO         3690    i.OLED_ShowChar     oled.o
    0x080020f0   0x080020f0   0x000000c0   Code   RO         3691    i.OLED_ShowChinese  oled.o
    0x080021b0   0x080021b0   0x0000006a   Code   RO         3692    i.OLED_ShowNum      oled.o
    0x0800221a   0x0800221a   0x0000003a   Code   RO         3694    i.OLED_ShowString   oled.o
    0x08002254   0x08002254   0x00000034   Code   RO         3924    i.PZEM004T_EnergyClear  pzem004t.o
    0x08002288   0x08002288   0x00000074   Code   RO         3925    i.PZEM004T_ISR      pzem004t.o
    0x080022fc   0x080022fc   0x00000054   Code   RO         3926    i.PZEM004T_MeaCal   pzem004t.o
    0x08002350   0x08002350   0x0000003c   Code   RO         3927    i.PZEM004T_ReadMeasValue  pzem004t.o
    0x0800238c   0x0800238c   0x00000024   Code   RO         3928    i.PZEM004T_ResCheck  pzem004t.o
    0x080023b0   0x080023b0   0x00000002   Code   RO          316    i.PendSV_Handler    stm32g0xx_it.o
    0x080023b2   0x080023b2   0x00000002   Code   RO          317    i.SVC_Handler       stm32g0xx_it.o
    0x080023b4   0x080023b4   0x00000008   Code   RO          318    i.SysTick_Handler   stm32g0xx_it.o
    0x080023bc   0x080023bc   0x00000068   Code   RO           13    i.SystemClock_Config  main.o
    0x08002424   0x08002424   0x00000002   Code   RO         3083    i.SystemInit        system_stm32g0xx.o
    0x08002426   0x08002426   0x00000002   PAD
    0x08002428   0x08002428   0x00000010   Code   RO          319    i.TIM1_BRK_UP_TRG_COM_IRQHandler  stm32g0xx_it.o
    0x08002438   0x08002438   0x00000088   Code   RO          489    i.TIM_Base_SetConfig  stm32g0xx_hal_tim.o
    0x080024c0   0x080024c0   0x00000016   Code   RO          500    i.TIM_ETR_SetConfig  stm32g0xx_hal_tim.o
    0x080024d6   0x080024d6   0x00000002   PAD
    0x080024d8   0x080024d8   0x00000014   Code   RO          501    i.TIM_ITRx_SetConfig  stm32g0xx_hal_tim.o
    0x080024ec   0x080024ec   0x00000022   Code   RO          509    i.TIM_TI1_ConfigInputStage  stm32g0xx_hal_tim.o
    0x0800250e   0x0800250e   0x00000026   Code   RO          511    i.TIM_TI2_ConfigInputStage  stm32g0xx_hal_tim.o
    0x08002534   0x08002534   0x000000ca   Code   RO         2595    i.UART_AdvFeatureConfig  stm32g0xx_hal_uart.o
    0x080025fe   0x080025fe   0x00000002   PAD
    0x08002600   0x08002600   0x000000b8   Code   RO         2596    i.UART_CheckIdleState  stm32g0xx_hal_uart.o
    0x080026b8   0x080026b8   0x00000014   Code   RO         2597    i.UART_DMAAbortOnError  stm32g0xx_hal_uart.o
    0x080026cc   0x080026cc   0x00000064   Code   RO         2607    i.UART_EndRxTransfer  stm32g0xx_hal_uart.o
    0x08002730   0x08002730   0x000000ce   Code   RO         2609    i.UART_RxISR_16BIT  stm32g0xx_hal_uart.o
    0x080027fe   0x080027fe   0x00000002   PAD
    0x08002800   0x08002800   0x000001b4   Code   RO         2610    i.UART_RxISR_16BIT_FIFOEN  stm32g0xx_hal_uart.o
    0x080029b4   0x080029b4   0x000000ce   Code   RO         2611    i.UART_RxISR_8BIT   stm32g0xx_hal_uart.o
    0x08002a82   0x08002a82   0x00000002   PAD
    0x08002a84   0x08002a84   0x000001b4   Code   RO         2612    i.UART_RxISR_8BIT_FIFOEN  stm32g0xx_hal_uart.o
    0x08002c38   0x08002c38   0x00000168   Code   RO         2613    i.UART_SetConfig    stm32g0xx_hal_uart.o
    0x08002da0   0x08002da0   0x0000012c   Code   RO         2615    i.UART_Start_Receive_IT  stm32g0xx_hal_uart.o
    0x08002ecc   0x08002ecc   0x00000090   Code   RO         2620    i.UART_WaitOnFlagUntilTimeout  stm32g0xx_hal_uart.o
    0x08002f5c   0x08002f5c   0x00000010   Code   RO          320    i.USART2_IRQHandler  stm32g0xx_it.o
    0x08002f6c   0x08002f6c   0x0000001a   Code   RO         1100    i.__ARM_common_switch8  stm32g0xx_hal_tim.o
    0x08002f86   0x08002f86   0x00000002   PAD
    0x08002f88   0x08002f88   0x00000044   Code   RO         2183    i.__NVIC_SetPriority  stm32g0xx_hal_cortex.o
    0x08002fcc   0x08002fcc   0x00000018   Code   RO         3627    i.api_energy_clr_task  api_task.o
    0x08002fe4   0x08002fe4   0x00000010   Code   RO         3498    i.api_hard_init     api_hard.o
    0x08002ff4   0x08002ff4   0x00000040   Code   RO         3499    i.api_hard_load     api_hard.o
    0x08003034   0x08003034   0x00000094   Code   RO         3500    i.api_hard_read     api_hard.o
    0x080030c8   0x080030c8   0x00000010   Code   RO         3547    i.api_key_clear     api_key.o
    0x080030d8   0x080030d8   0x00000028   Code   RO         3548    i.api_key_get       api_key.o
    0x08003100   0x08003100   0x0000000c   Code   RO         3549    i.api_key_init      api_key.o
    0x0800310c   0x0800310c   0x00000068   Code   RO         3362    i.api_key_page1_task  api_display.o
    0x08003174   0x08003174   0x00000068   Code   RO         3363    i.api_key_page2_task  api_display.o
    0x080031dc   0x080031dc   0x000000ac   Code   RO         3364    i.api_key_page3_task  api_display.o
    0x08003288   0x08003288   0x000000d8   Code   RO         3365    i.api_key_page_safe_task  api_display.o
    0x08003360   0x08003360   0x00000168   Code   RO         3366    i.api_key_page_settime_task  api_display.o
    0x080034c8   0x080034c8   0x000000d4   Code   RO         3367    i.api_key_page_timing1_task  api_display.o
    0x0800359c   0x0800359c   0x000000d4   Code   RO         3368    i.api_key_page_timing2_task  api_display.o
    0x08003670   0x08003670   0x00000070   Code   RO         3369    i.api_key_page_timing_task  api_display.o
    0x080036e0   0x080036e0   0x0000001c   Code   RO         3550    i.api_key_put       api_key.o
    0x080036fc   0x080036fc   0x0000002c   Code   RO         3551    i.api_key_scan      api_key.o
    0x08003728   0x08003728   0x00000010   Code   RO         3628    i.api_main_task     api_task.o
    0x08003738   0x08003738   0x00000024   Code   RO         3629    i.api_task_init     api_task.o
    0x0800375c   0x0800375c   0x0000007c   Code   RO         3630    i.api_task_safe     api_task.o
    0x080037d8   0x080037d8   0x00000098   Code   RO         3631    i.api_timing_task   api_task.o
    0x08003870   0x08003870   0x00000178   Code   RO         3370    i.api_update_page1  api_display.o
    0x080039e8   0x080039e8   0x0000024c   Code   RO         3371    i.api_update_page2  api_display.o
    0x08003c34   0x08003c34   0x00000144   Code   RO         3372    i.api_update_page3  api_display.o
    0x08003d78   0x08003d78   0x00000144   Code   RO         3373    i.api_update_page_safe  api_display.o
    0x08003ebc   0x08003ebc   0x00000150   Code   RO         3374    i.api_update_page_settime  api_display.o
    0x0800400c   0x0800400c   0x000000f0   Code   RO         3375    i.api_update_page_timing  api_display.o
    0x080040fc   0x080040fc   0x00000124   Code   RO         3376    i.api_update_page_timing1  api_display.o
    0x08004220   0x08004220   0x00000124   Code   RO         3377    i.api_update_page_timing2  api_display.o
    0x08004344   0x08004344   0x0000001c   Code   RO         3160    i.bsp_iic_check_dev  bsp_iic.o
    0x08004360   0x08004360   0x0000000e   Code   RO         3161    i.bsp_iic_delay     bsp_iic.o
    0x0800436e   0x0800436e   0x00000002   PAD
    0x08004370   0x08004370   0x0000005c   Code   RO         3162    i.bsp_iic_read_byte  bsp_iic.o
    0x080043cc   0x080043cc   0x00000044   Code   RO         3163    i.bsp_iic_send_ack  bsp_iic.o
    0x08004410   0x08004410   0x00000048   Code   RO         3164    i.bsp_iic_send_byte  bsp_iic.o
    0x08004458   0x08004458   0x00000044   Code   RO         3165    i.bsp_iic_send_noack  bsp_iic.o
    0x0800449c   0x0800449c   0x00000040   Code   RO         3166    i.bsp_iic_start     bsp_iic.o
    0x080044dc   0x080044dc   0x0000002c   Code   RO         3167    i.bsp_iic_stop      bsp_iic.o
    0x08004508   0x08004508   0x00000060   Code   RO         3168    i.bsp_iic_wait_ack  bsp_iic.o
    0x08004568   0x08004568   0x00000002   Code   RO         3258    i.bsp_usart_isr     bsp_usart.o
    0x0800456a   0x0800456a   0x00000002   PAD
    0x0800456c   0x0800456c   0x00000040   Code   RO         3929    i.crc16tablefast    pzem004t.o
    0x080045ac   0x080045ac   0x0000000e   Code   RO         3283    i.delay_us          bsp_ds1302.o
    0x080045ba   0x080045ba   0x0000000e   Code   RO         3873    i.delay_us          dht11.o
    0x080045c8   0x080045c8   0x00000028   Code   RO         3284    i.ds1302_DATAINPUT_init  bsp_ds1302.o
    0x080045f0   0x080045f0   0x00000034   Code   RO         3285    i.ds1302_DATAOUT_init  bsp_ds1302.o
    0x08004624   0x08004624   0x00000084   Code   RO         3287    i.ds1302_read_realTime  bsp_ds1302.o
    0x080046a8   0x080046a8   0x000000b4   Code   RO         3288    i.ds1302_read_rig   bsp_ds1302.o
    0x0800475c   0x0800475c   0x00000044   Code   RO         3289    i.ds1302_read_time  bsp_ds1302.o
    0x080047a0   0x080047a0   0x000000a0   Code   RO         3290    i.ds1302_set        bsp_ds1302.o
    0x08004840   0x08004840   0x00000068   Code   RO         3291    i.ds1302_wirte_rig  bsp_ds1302.o
    0x080048a8   0x080048a8   0x00000054   Code   RO         3292    i.ds1302_write_onebyte  bsp_ds1302.o
    0x080048fc   0x080048fc   0x00000044   Code   RO         3378    i.get_max_day       api_display.o
    0x08004940   0x08004940   0x0000001a   Code   RO           14    i.main              main.o
    0x0800495a   0x0800495a   0x00000002   PAD
    0x0800495c   0x0800495c   0x00000048   Code   RO         3118    i.main_init         main_user.o
    0x080049a4   0x080049a4   0x00000070   Code   RO         3119    i.main_user         main_user.o
    0x08004a14   0x08004a14   0x00000042   Code   RO         3695    i.oled_iic_send     oled.o
    0x08004a56   0x08004a56   0x00000000   Code   RO         4008    x$fpl$usenofp       fz_ps.l(usenofp.o)
    0x08004a56   0x08004a56   0x00000018   Data   RO         2621    .constdata          stm32g0xx_hal_uart.o
    0x08004a6e   0x08004a6e   0x00000002   PAD
    0x08004a70   0x08004a70   0x00000040   Data   RO         3084    .constdata          system_stm32g0xx.o
    0x08004ab0   0x08004ab0   0x00000020   Data   RO         3085    .constdata          system_stm32g0xx.o
    0x08004ad0   0x08004ad0   0x00002130   Data   RO         3697    .constdata          oled.o
    0x08006c00   0x08006c00   0x00000020   Data   RO         3932    .constdata          pzem004t.o
    0x08006c20   0x08006c20   0x00000040   Data   RO         3997    .constdata          fz_ps.l(fdiv.o)
    0x08006c60   0x08006c60   0x00000020   Data   RO         4171    Region$$Table       anon$$obj.o


    Execution Region RW_IRAM1 (Exec base: 0x20000000, Load base: 0x08006c80, Size: 0x00000c98, Max: 0x00002000, ABSOLUTE)

    Exec Addr    Load Addr    Size         Type   Attr      Idx    E Section Name        Object

    0x20000000   0x08006c80   0x0000000c   Data   RW         2319    .data               stm32g0xx_hal.o
    0x2000000c   0x08006c8c   0x00000004   Data   RW         3086    .data               system_stm32g0xx.o
    0x20000010   0x08006c90   0x00000008   Data   RW         3120    .data               main_user.o
    0x20000018   0x08006c98   0x00000010   Data   RW         3293    .data               bsp_ds1302.o
    0x20000028   0x08006ca8   0x00000008   Data   RW         3379    .data               api_display.o
    0x20000030   0x08006cb0   0x00000002   Data   RW         3501    .data               api_hard.o
    0x20000032   0x08006cb2   0x00000001   Data   RW         3553    .data               api_key.o
    0x20000033   0x08006cb3   0x00000001   PAD
    0x20000034   0x08006cb4   0x00000004   Data   RW         3633    .data               api_task.o
    0x20000038        -       0x0000004c   Zero   RW          241    .bss                tim.o
    0x20000084        -       0x00000094   Zero   RW          279    .bss                usart.o
    0x20000118        -       0x00000048   Zero   RW         3552    .bss                api_key.o
    0x20000160        -       0x00000028   Zero   RW         3632    .bss                api_task.o
    0x20000188        -       0x00000480   Zero   RW         3696    .bss                oled.o
    0x20000608        -       0x0000002a   Zero   RW         3930    .bss                pzem004t.o
    0x20000632   0x08006cb8   0x00000002   PAD
    0x20000634        -       0x00000060   Zero   RW         4042    .bss                c_p.l(libspace.o)
    0x20000694   0x08006cb8   0x00000004   PAD
    0x20000698        -       0x00000200   Zero   RW            2    HEAP                startup_stm32g030xx.o
    0x20000898        -       0x00000400   Zero   RW            1    STACK               startup_stm32g030xx.o


==============================================================================

Image component sizes


      Code (inc. data)   RO Data    RW Data    ZI Data      Debug   Object Name

      4332        396          0          8          0      10791   api_display.o
       228         24          0          2          0       2041   api_hard.o
       476         80          0          1         72       6601   api_key.o
       352         50          0          4         40       3775   api_task.o
       156          6          0          0          0       2561   bh1750.o
       834         38          0         16          0       6350   bsp_ds1302.o
       546         34          0          0          0       4870   bsp_iic.o
         2          0          0          0          0        704   bsp_usart.o
       394         22          0          0          0       4106   dht11.o
       288         24          0          0          0        999   gpio.o
       134          0          0          0          0     391348   main.o
       340         44          0          8          0       2695   main_user.o
      1090         42       8496          0       1152       9242   oled.o
       412         62         32          0         42       4733   pzem004t.o
        56         26        192          0       1536        632   startup_stm32g030xx.o
       176         26          0         12          0      16013   stm32g0xx_hal.o
       148         24          0          0          0      12093   stm32g0xx_hal_cortex.o
       240         10          0          0          0       1907   stm32g0xx_hal_dma.o
         0          0          0          0          0       2712   stm32g0xx_hal_flash.o
       370         18          0          0          0       2551   stm32g0xx_hal_gpio.o
        44          6          0          0          0        822   stm32g0xx_hal_msp.o
        76         14          0          0          0        738   stm32g0xx_hal_pwr_ex.o
      1508         88          0          0          0      20277   stm32g0xx_hal_rcc.o
       992         52          0          0          0       9693   stm32g0xx_hal_tim.o
       106         10          0          0          0       2960   stm32g0xx_hal_tim_ex.o
      3754        100         24          0          0      42862   stm32g0xx_hal_uart.o
         6          0          0          0          0       2089   stm32g0xx_hal_uart_ex.o
        48         12          0          0          0       3036   stm32g0xx_it.o
         2          0         96          4          0       1099   system_stm32g0xx.o
       168         20          0          0         76       1622   tim.o
       168         18          0          0        148       1630   usart.o

    ----------------------------------------------------------------------
     17476       1246       8874         56       3068     573552   Object Totals
         0          0         32          0          0          0   (incl. Generated)
        30          0          2          1          2          0   (incl. Padding)

    ----------------------------------------------------------------------

      Code (inc. data)   RO Data    RW Data    ZI Data      Debug   Library Member Name

         8          0          0          0          0         68   __main.o
         0          0          0          0          0          0   __rtentry.o
        12          0          0          0          0          0   __rtentry2.o
         6          0          0          0          0          0   __rtentry4.o
        60          8          0          0          0          0   __scatter.o
        26          0          0          0          0          0   __scatter_copy.o
        28          0          0          0          0          0   __scatter_zi.o
       346          0          0          0          0         92   aeabi_sdiv.o
        16          0          0          0          0         68   exit.o
         6          0          0          0          0        136   heapauxi.o
         0          0          0          0          0          0   indicate_semi.o
         2          0          0          0          0          0   libinit.o
         2          0          0          0          0          0   libinit2.o
         2          0          0          0          0          0   libshutdown.o
         2          0          0          0          0          0   libshutdown2.o
         8          4          0          0         96         68   libspace.o
        64          0          0          0          0        108   rt_memclr.o
       186          0          0          0          0        144   rt_memcpy.o
         2          0          0          0          0          0   rtexit.o
        10          0          0          0          0          0   rtexit2.o
        12          4          0          0          0         60   sys_exit.o
        62          0          0          0          0         80   sys_stackheap_outer.o
         2          0          0          0          0         68   use_no_semi.o
       352         10         64          0          0         92   fdiv.o
        48          0          0          0          0         60   ffixui.o
        94          0          0          0          0         92   fflti.o
         0          0          0          0          0          0   usenofp.o

    ----------------------------------------------------------------------
      1362         26         64          0        100       1136   Library Totals
         6          0          0          0          4          0   (incl. Padding)

    ----------------------------------------------------------------------

      Code (inc. data)   RO Data    RW Data    ZI Data      Debug   Library Name

       862         16          0          0         96        892   c_p.l
       494         10         64          0          0        244   fz_ps.l

    ----------------------------------------------------------------------
      1362         26         64          0        100       1136   Library Totals

    ----------------------------------------------------------------------

==============================================================================


      Code (inc. data)   RO Data    RW Data    ZI Data      Debug   

     18838       1272       8938         56       3168     567320   Grand Totals
     18838       1272       8938         56       3168     567320   ELF Image Totals
     18838       1272       8938         56          0          0   ROM Totals

==============================================================================

    Total RO  Size (Code + RO Data)                27776 (  27.13kB)
    Total RW  Size (RW Data + ZI Data)              3224 (   3.15kB)
    Total ROM Size (Code + RO Data + RW Data)      27832 (  27.18kB)

==============================================================================

